{"abi":[{"type":"constructor","inputs":[{"name":"_initialOwner","type":"address","internalType":"address"},{"name":"_feeRecipient","type":"address","internalType":"address"},{"name":"_feeBasisPoints","type":"uint256","internalType":"uint256"},{"name":"_humanIdAttester","type":"address","internalType":"address"},{"name":"_cleanHandsCircuitId","type":"uint256","internalType":"uint256"},{"name":"_cleanHandsActionId","type":"uint256","internalType":"uint256"},{"name":"_passportSigner","type":"address","internalType":"address"}],"stateMutability":"nonpayable"},{"type":"function","name":"MAX_FEE_BASIS_POINTS","inputs":[],"outputs":[{"name":"","type":"uint256","internalType":"uint256"}],"stateMutability":"view"},{"type":"function","name":"acceptOwnership","inputs":[],"outputs":[],"stateMutability":"nonpayable"},{"type":"function","name":"calculateFee","inputs":[{"name":"_amount","type":"uint256","internalType":"uint256"}],"outputs":[{"name":"","type":"uint256","internalType":"uint256"}],"stateMutability":"view"},{"type":"function","name":"cancelOwnershipTransfer","inputs":[],"outputs":[],"stateMutability":"nonpayable"},{"type":"function","name":"cleanHandsActionId","inputs":[],"outputs":[{"name":"","type":"uint256","internalType":"uint256"}],"stateMutability":"view"},{"type":"function","name":"cleanHandsCircuitId","inputs":[],"outputs":[{"name":"","type":"uint256","internalType":"uint256"}],"stateMutability":"view"},{"type":"function","name":"cleanHandsNonces","inputs":[{"name":"","type":"address","internalType":"address"},{"name":"","type":"uint256","internalType":"uint256"}],"outputs":[{"name":"","type":"bool","internalType":"bool"}],"stateMutability":"view"},{"type":"function","name":"collectedFees","inputs":[],"outputs":[{"name":"","type":"uint256","internalType":"uint256"}],"stateMutability":"view"},{"type":"function","name":"depositToAztecPrivate","inputs":[{"name":"_amount","type":"uint256","internalType":"uint256"},{"name":"_secretHashForL2MessageConsumption","type":"bytes32","internalType":"bytes32"},{"name":"_cleanHands","type":"tuple","internalType":"struct TokenPortal.CleanHandsData","components":[{"name":"nonce","type":"uint256","internalType":"uint256"},{"name":"signature","type":"bytes","internalType":"bytes"}]},{"name":"_passport","type":"tuple","internalType":"struct TokenPortal.PassportData","components":[{"name":"maxAmount","type":"uint256","internalType":"uint256"},{"name":"nonce","type":"uint256","internalType":"uint256"},{"name":"deadline","type":"uint256","internalType":"uint256"},{"name":"signature","type":"bytes","internalType":"bytes"}]}],"outputs":[{"name":"","type":"bytes32","internalType":"bytes32"},{"name":"","type":"uint256","internalType":"uint256"},{"name":"","type":"uint256","internalType":"uint256"}],"stateMutability":"nonpayable"},{"type":"function","name":"depositToAztecPrivateFor","inputs":[{"name":"_depositor","type":"address","internalType":"address"},{"name":"_amount","type":"uint256","internalType":"uint256"},{"name":"_secretHashForL2MessageConsumption","type":"bytes32","internalType":"bytes32"},{"name":"_cleanHands","type":"tuple","internalType":"struct TokenPortal.CleanHandsData","components":[{"name":"nonce","type":"uint256","internalType":"uint256"},{"name":"signature","type":"bytes","internalType":"bytes"}]},{"name":"_passport","type":"tuple","internalType":"struct TokenPortal.PassportData","components":[{"name":"maxAmount","type":"uint256","internalType":"uint256"},{"name":"nonce","type":"uint256","internalType":"uint256"},{"name":"deadline","type":"uint256","internalType":"uint256"},{"name":"signature","type":"bytes","internalType":"bytes"}]}],"outputs":[{"name":"","type":"bytes32","internalType":"bytes32"},{"name":"","type":"uint256","internalType":"uint256"},{"name":"","type":"uint256","internalType":"uint256"}],"stateMutability":"nonpayable"},{"type":"function","name":"depositToAztecPublic","inputs":[{"name":"_to","type":"bytes32","internalType":"bytes32"},{"name":"_amount","type":"uint256","internalType":"uint256"},{"name":"_secretHash","type":"bytes32","internalType":"bytes32"},{"name":"_cleanHands","type":"tuple","internalType":"struct TokenPortal.CleanHandsData","components":[{"name":"nonce","type":"uint256","internalType":"uint256"},{"name":"signature","type":"bytes","internalType":"bytes"}]},{"name":"_passport","type":"tuple","internalType":"struct TokenPortal.PassportData","components":[{"name":"maxAmount","type":"uint256","internalType":"uint256"},{"name":"nonce","type":"uint256","internalType":"uint256"},{"name":"deadline","type":"uint256","internalType":"uint256"},{"name":"signature","type":"bytes","internalType":"bytes"}]}],"outputs":[{"name":"","type":"bytes32","internalType":"bytes32"},{"name":"","type":"uint256","internalType":"uint256"},{"name":"","type":"uint256","internalType":"uint256"}],"stateMutability":"nonpayable"},{"type":"function","name":"depositToAztecPublicFor","inputs":[{"name":"_depositor","type":"address","internalType":"address"},{"name":"_to","type":"bytes32","internalType":"bytes32"},{"name":"_amount","type":"uint256","internalType":"uint256"},{"name":"_secretHash","type":"bytes32","internalType":"bytes32"},{"name":"_cleanHands","type":"tuple","internalType":"struct TokenPortal.CleanHandsData","components":[{"name":"nonce","type":"uint256","internalType":"uint256"},{"name":"signature","type":"bytes","internalType":"bytes"}]},{"name":"_passport","type":"tuple","internalType":"struct TokenPortal.PassportData","components":[{"name":"maxAmount","type":"uint256","internalType":"uint256"},{"name":"nonce","type":"uint256","internalType":"uint256"},{"name":"deadline","type":"uint256","internalType":"uint256"},{"name":"signature","type":"bytes","internalType":"bytes"}]}],"outputs":[{"name":"","type":"bytes32","internalType":"bytes32"},{"name":"","type":"uint256","internalType":"uint256"},{"name":"","type":"uint256","internalType":"uint256"}],"stateMutability":"nonpayable"},{"type":"function","name":"depositsActive","inputs":[],"outputs":[{"name":"","type":"bool","internalType":"bool"}],"stateMutability":"view"},{"type":"function","name":"feeBasisPoints","inputs":[],"outputs":[{"name":"","type":"uint256","internalType":"uint256"}],"stateMutability":"view"},{"type":"function","name":"feeRecipient","inputs":[],"outputs":[{"name":"","type":"address","internalType":"address"}],"stateMutability":"view"},{"type":"function","name":"getCollectedFees","inputs":[],"outputs":[{"name":"","type":"uint256","internalType":"uint256"}],"stateMutability":"view"},{"type":"function","name":"getFeeRecipient","inputs":[],"outputs":[{"name":"","type":"address","internalType":"address"}],"stateMutability":"view"},{"type":"function","name":"humanIdAttester","inputs":[],"outputs":[{"name":"","type":"address","internalType":"address"}],"stateMutability":"view"},{"type":"function","name":"inbox","inputs":[],"outputs":[{"name":"","type":"address","internalType":"contract IInbox"}],"stateMutability":"view"},{"type":"function","name":"initialize","inputs":[{"name":"_registry","type":"address","internalType":"address"},{"name":"_underlying","type":"address","internalType":"address"},{"name":"_l2Bridge","type":"bytes32","internalType":"bytes32"}],"outputs":[],"stateMutability":"nonpayable"},{"type":"function","name":"l2Bridge","inputs":[],"outputs":[{"name":"","type":"bytes32","internalType":"bytes32"}],"stateMutability":"view"},{"type":"function","name":"outbox","inputs":[],"outputs":[{"name":"","type":"address","internalType":"contract IOutbox"}],"stateMutability":"view"},{"type":"function","name":"owner","inputs":[],"outputs":[{"name":"","type":"address","internalType":"address"}],"stateMutability":"view"},{"type":"function","name":"passportNonces","inputs":[{"name":"","type":"address","internalType":"address"},{"name":"","type":"uint256","internalType":"uint256"}],"outputs":[{"name":"","type":"bool","internalType":"bool"}],"stateMutability":"view"},{"type":"function","name":"passportSigner","inputs":[],"outputs":[{"name":"","type":"address","internalType":"address"}],"stateMutability":"view"},{"type":"function","name":"pause","inputs":[],"outputs":[],"stateMutability":"nonpayable"},{"type":"function","name":"pauseDeposits","inputs":[],"outputs":[],"stateMutability":"nonpayable"},{"type":"function","name":"paused","inputs":[],"outputs":[{"name":"","type":"bool","internalType":"bool"}],"stateMutability":"view"},{"type":"function","name":"pendingOwner","inputs":[],"outputs":[{"name":"","type":"address","internalType":"address"}],"stateMutability":"view"},{"type":"function","name":"proposeOwnershipTransfer","inputs":[{"name":"newOwner","type":"address","internalType":"address"}],"outputs":[],"stateMutability":"nonpayable"},{"type":"function","name":"registry","inputs":[],"outputs":[{"name":"","type":"address","internalType":"contract IRegistry"}],"stateMutability":"view"},{"type":"function","name":"renounceOwnership","inputs":[],"outputs":[],"stateMutability":"nonpayable"},{"type":"function","name":"rescueToken","inputs":[{"name":"_token","type":"address","internalType":"address"},{"name":"_amount","type":"uint256","internalType":"uint256"}],"outputs":[],"stateMutability":"nonpayable"},{"type":"function","name":"rollup","inputs":[],"outputs":[{"name":"","type":"address","internalType":"contract IRollup"}],"stateMutability":"view"},{"type":"function","name":"rollupVersion","inputs":[],"outputs":[{"name":"","type":"uint256","internalType":"uint256"}],"stateMutability":"view"},{"type":"function","name":"setTrustedForwarder","inputs":[{"name":"_forwarder","type":"address","internalType":"address"},{"name":"_trusted","type":"bool","internalType":"bool"}],"outputs":[],"stateMutability":"nonpayable"},{"type":"function","name":"transferOwnership","inputs":[{"name":"newOwner","type":"address","internalType":"address"}],"outputs":[],"stateMutability":"nonpayable"},{"type":"function","name":"trustedForwarders","inputs":[{"name":"","type":"address","internalType":"address"}],"outputs":[{"name":"","type":"bool","internalType":"bool"}],"stateMutability":"view"},{"type":"function","name":"underlying","inputs":[],"outputs":[{"name":"","type":"address","internalType":"contract IERC20"}],"stateMutability":"view"},{"type":"function","name":"unpause","inputs":[],"outputs":[],"stateMutability":"nonpayable"},{"type":"function","name":"unpauseDeposits","inputs":[],"outputs":[],"stateMutability":"nonpayable"},{"type":"function","name":"updateAttestationConfig","inputs":[{"name":"_attester","type":"address","internalType":"address"},{"name":"_circuitId","type":"uint256","internalType":"uint256"},{"name":"_actionId","type":"uint256","internalType":"uint256"},{"name":"_signer","type":"address","internalType":"address"}],"outputs":[],"stateMutability":"nonpayable"},{"type":"function","name":"updateFee","inputs":[{"name":"_newFeeBasisPoints","type":"uint256","internalType":"uint256"}],"outputs":[],"stateMutability":"nonpayable"},{"type":"function","name":"updateFeeRecipient","inputs":[{"name":"_newFeeRecipient","type":"address","internalType":"address"}],"outputs":[],"stateMutability":"nonpayable"},{"type":"function","name":"verifyCleanHandsSignature","inputs":[{"name":"nonce","type":"uint256","internalType":"uint256"},{"name":"signature","type":"bytes","internalType":"bytes"}],"outputs":[{"name":"","type":"bool","internalType":"bool"}],"stateMutability":"view"},{"type":"function","name":"verifyPassportSignature","inputs":[{"name":"maxAmount","type":"uint256","internalType":"uint256"},{"name":"nonce","type":"uint256","internalType":"uint256"},{"name":"deadline","type":"uint256","internalType":"uint256"},{"name":"signature","type":"bytes","internalType":"bytes"}],"outputs":[{"name":"","type":"bool","internalType":"bool"}],"stateMutability":"view"},{"type":"function","name":"withdraw","inputs":[{"name":"_recipient","type":"address","internalType":"address"},{"name":"_amount","type":"uint256","internalType":"uint256"},{"name":"_withCaller","type":"bool","internalType":"bool"},{"name":"_l2BlockNumber","type":"uint256","internalType":"uint256"},{"name":"_leafIndex","type":"uint256","internalType":"uint256"},{"name":"_path","type":"bytes32[]","internalType":"bytes32[]"}],"outputs":[],"stateMutability":"nonpayable"},{"type":"function","name":"withdrawFees","inputs":[],"outputs":[],"stateMutability":"nonpayable"},{"type":"event","name":"AttestationConfigUpdated","inputs":[{"name":"attester","type":"address","indexed":true,"internalType":"address"},{"name":"circuitId","type":"uint256","indexed":false,"internalType":"uint256"},{"name":"actionId","type":"uint256","indexed":false,"internalType":"uint256"},{"name":"signer","type":"address","indexed":true,"internalType":"address"}],"anonymous":false},{"type":"event","name":"DepositToAztecPrivate","inputs":[{"name":"amount","type":"uint256","indexed":false,"internalType":"uint256"},{"name":"fee","type":"uint256","indexed":false,"internalType":"uint256"},{"name":"secretHash","type":"bytes32","indexed":false,"internalType":"bytes32"},{"name":"key","type":"bytes32","indexed":false,"internalType":"bytes32"},{"name":"index","type":"uint256","indexed":false,"internalType":"uint256"}],"anonymous":false},{"type":"event","name":"DepositToAztecPublic","inputs":[{"name":"to","type":"bytes32","indexed":true,"internalType":"bytes32"},{"name":"amount","type":"uint256","indexed":false,"internalType":"uint256"},{"name":"fee","type":"uint256","indexed":false,"internalType":"uint256"},{"name":"secretHash","type":"bytes32","indexed":false,"internalType":"bytes32"},{"name":"key","type":"bytes32","indexed":false,"internalType":"bytes32"},{"name":"index","type":"uint256","indexed":false,"internalType":"uint256"}],"anonymous":false},{"type":"event","name":"DepositsBlocked","inputs":[],"anonymous":false},{"type":"event","name":"DepositsUnblocked","inputs":[],"anonymous":false},{"type":"event","name":"FeeRecipientUpdated","inputs":[{"name":"newFeeRecipient","type":"address","indexed":true,"internalType":"address"}],"anonymous":false},{"type":"event","name":"FeeUpdated","inputs":[{"name":"newFeeBasisPoints","type":"uint256","indexed":false,"internalType":"uint256"}],"anonymous":false},{"type":"event","name":"FeesWithdrawn","inputs":[{"name":"recipient","type":"address","indexed":true,"internalType":"address"},{"name":"amount","type":"uint256","indexed":false,"internalType":"uint256"}],"anonymous":false},{"type":"event","name":"Initialized","inputs":[{"name":"registry","type":"address","indexed":true,"internalType":"address"},{"name":"underlying","type":"address","indexed":true,"internalType":"address"},{"name":"l2Bridge","type":"bytes32","indexed":false,"internalType":"bytes32"}],"anonymous":false},{"type":"event","name":"OwnershipTransferCancelled","inputs":[{"name":"currentOwner","type":"address","indexed":true,"internalType":"address"}],"anonymous":false},{"type":"event","name":"OwnershipTransferProposed","inputs":[{"name":"previousOwner","type":"address","indexed":true,"internalType":"address"},{"name":"newOwner","type":"address","indexed":true,"internalType":"address"}],"anonymous":false},{"type":"event","name":"OwnershipTransferStarted","inputs":[{"name":"previousOwner","type":"address","indexed":true,"internalType":"address"},{"name":"newOwner","type":"address","indexed":true,"internalType":"address"}],"anonymous":false},{"type":"event","name":"OwnershipTransferred","inputs":[{"name":"previousOwner","type":"address","indexed":true,"internalType":"address"},{"name":"newOwner","type":"address","indexed":true,"internalType":"address"}],"anonymous":false},{"type":"event","name":"Paused","inputs":[{"name":"account","type":"address","indexed":false,"internalType":"address"}],"anonymous":false},{"type":"event","name":"TokensRescued","inputs":[{"name":"token","type":"address","indexed":true,"internalType":"address"},{"name":"to","type":"address","indexed":true,"internalType":"address"},{"name":"amount","type":"uint256","indexed":false,"internalType":"uint256"}],"anonymous":false},{"type":"event","name":"TrustedForwarderUpdated","inputs":[{"name":"forwarder","type":"address","indexed":true,"internalType":"address"},{"name":"trusted","type":"bool","indexed":false,"internalType":"bool"}],"anonymous":false},{"type":"event","name":"Unpaused","inputs":[{"name":"account","type":"address","indexed":false,"internalType":"address"}],"anonymous":false},{"type":"error","name":"AlreadyInitialized","inputs":[]},{"type":"error","name":"AmountExceedsLimit","inputs":[]},{"type":"error","name":"CleanHandsNonceUsed","inputs":[]},{"type":"error","name":"DepositsPaused","inputs":[]},{"type":"error","name":"ECDSAInvalidSignature","inputs":[]},{"type":"error","name":"ECDSAInvalidSignatureLength","inputs":[{"name":"length","type":"uint256","internalType":"uint256"}]},{"type":"error","name":"ECDSAInvalidSignatureS","inputs":[{"name":"s","type":"bytes32","internalType":"bytes32"}]},{"type":"error","name":"EnforcedPause","inputs":[]},{"type":"error","name":"ExpectedPause","inputs":[]},{"type":"error","name":"FeeTooHigh","inputs":[]},{"type":"error","name":"InvalidAddress","inputs":[]},{"type":"error","name":"InvalidPassportSignature","inputs":[]},{"type":"error","name":"InvalidVerification","inputs":[]},{"type":"error","name":"NoFeesToWithdraw","inputs":[]},{"type":"error","name":"NoPendingOwner","inputs":[]},{"type":"error","name":"NotTrustedForwarder","inputs":[]},{"type":"error","name":"OwnableInvalidOwner","inputs":[{"name":"owner","type":"address","internalType":"address"}]},{"type":"error","name":"OwnableUnauthorizedAccount","inputs":[{"name":"account","type":"address","internalType":"address"}]},{"type":"error","name":"PassportNonceUsed","inputs":[]},{"type":"error","name":"ReentrancyGuardReentrantCall","inputs":[]},{"type":"error","name":"SafeERC20FailedOperation","inputs":[{"name":"token","type":"address","internalType":"address"}]},{"type":"error","name":"Unauthorized","inputs":[]}],"bytecode":{"object":"0x60a06040523461003f5761002061001461017c565b95949094939193610319565b610028610044565b614cb96106698239608051816126aa0152614cb990f35b61004a565b60405190565b5f80fd5b601f801991011690565b634e487b7160e01b5f52604160045260245ffd5b906100769061004e565b810190811060018060401b0382111761008e57604052565b610058565b906100a661009f610044565b928361006c565b565b5f80fd5b60018060a01b031690565b6100c0906100ac565b90565b6100cc816100b7565b036100d357565b5f80fd5b905051906100e4826100c3565b565b90565b6100f2816100e6565b036100f957565b5f80fd5b9050519061010a826100e9565b565b60e08183031261017757610122825f83016100d7565b9261013083602084016100d7565b9261013e81604085016100fd565b9261014c82606083016100d7565b9261017461015d84608085016100fd565b9361016b8160a086016100fd565b9360c0016100d7565b90565b6100a8565b61019a6153228038038061018f81610093565b92833981019061010c565b90919293949596565b5f1b90565b906101b460ff916101a3565b9181191691161790565b151590565b6101cc906101be565b90565b90565b906101e76101e26101ee926101c3565b6101cf565b82546101a8565b9055565b90565b90565b61020c610207610211926101f2565b6101f5565b6100ac565b90565b61021d906101f8565b90565b5f0190565b90565b61023c61023761024192610225565b6101f5565b6100e6565b90565b61024f6103e8610228565b90565b9061026360018060a01b03916101a3565b9181191691161790565b61028161027c610286926100ac565b6101f5565b6100ac565b90565b6102929061026d565b90565b61029e90610289565b90565b90565b906102b96102b46102c092610295565b6102a1565b8254610252565b9055565b906102d05f19916101a3565b9181191691161790565b6102ee6102e96102f3926100e6565b6101f5565b6100e6565b90565b90565b9061030e610309610315926102da565b6102f6565b82546102c4565b9055565b6103299096959396929192610470565b610335600160156101d2565b61033d61054f565b6080528161035b6103556103505f610214565b6100b7565b916100b7565b14610454578061037a61037461036f610244565b6100e6565b916100e6565b116104385761038d6103949260136102a4565b60126102f9565b836103af6103a96103a45f610214565b6100b7565b916100b7565b1461041c57826103cf6103c96103c45f610214565b6100b7565b916100b7565b14610400576103f06103f7926103e96103fe96600b6102a4565b600c6102f9565b600d6102f9565b600e6102a4565b565b5f63e6c4247b60e01b81528061041860048201610220565b0390fd5b5f63e6c4247b60e01b81528061043460048201610220565b0390fd5b5f63cd4e616760e01b81528061045060048201610220565b0390fd5b5f63e6c4247b60e01b81528061046c60048201610220565b0390fd5b6104799061049d565b565b610484906100b7565b9052565b919061049b905f6020850194019061047b565b565b6104a5610523565b806104c06104ba6104b55f610214565b6100b7565b916100b7565b146104d0576104ce906105c0565b565b6104f36104dc5f610214565b5f918291631e4fbdf760e01b835260048301610488565b0390fd5b90565b61050e610509610513926104f7565b6101f5565b6100e6565b90565b61052060016104fa565b90565b61052b61053f565b61053d610536610516565b60016102f9565b565b6105495f5f6101d2565b565b5f90565b61055761054b565b503390565b1b90565b9190600861058091029161057a60018060a01b038461055c565b9261055c565b9181191691161790565b91906105a061059b6105a893610295565b6102a1565b908354610560565b9055565b6105be916105b861054b565b9161058a565b565b6105d4906105cf5f60036105ac565b610607565b565b5f1c90565b60018060a01b031690565b6105f26105f7916105d6565b6105db565b90565b61060490546105e6565b90565b61061160026105fa565b61061c8260026102a4565b9061065061064a7f8be0079c531659141344cd1fd0a4f28419497f9722a3daafe3b4186f6b6457e093610295565b91610295565b91610659610044565b8061066381610220565b0390a356fe60806040526004361015610013575b6118f3565b61001d5f3561031c565b8063021919801461031757806321040fc31461031257806323452b9c1461030d57806333f3d628146103085780633ba57310146103035780633f4ba83a146102fe57806346904840146102f9578063476343ee146102f45780634befe2ca146102ef5780634ccb20c0146102ea57806354776bb9146102e55780635c975abb146102e05780636133f985146102db57806363d8882a146102d65780636f307dc3146102d1578063715018a6146102cc57806379ba5097146102c75780637b103999146102c25780638456cb59146102bd5780638da5cb5b146102b85780639003adfe146102b35780639012c4a8146102ae57806390f27f80146102a957806399a5d747146102a4578063a491a4fc1461029f578063ab3d25ac1461029a578063ac1d201b14610295578063ae1f6aaf14610290578063b08938871461028b578063b0a00e1514610286578063b8606eef14610281578063c631bfa81461027c578063cb23bcb514610277578063cb33461614610272578063ce11e6ab1461026d578063d1a7900814610268578063d54a8d1814610263578063db1eb3741461025e578063e30c397814610259578063e691d03b14610254578063eb50136f1461024f578063eff3facf1461024a578063f160d36914610245578063f23e245214610240578063f275c0ce1461023b578063f2fde38b14610236578063f9148fa1146102315763fb0e722b0361000e576118be565b61181a565b6117c6565b611791565b611743565b61167d565b611648565b611604565b6115c1565b61155f565b611523565b611467565b611432565b6113ee565b611344565b611298565b6111ee565b6110d6565b611092565b61104e565b61100a565b610f79565b610efd565b610e5b565b610dc7565b610d91565b610c32565b610bdf565b610b72565b610b3f565b610b0a565b610a69565b610a36565b610a01565b610960565b61092c565b610897565b610862565b61077c565b610747565b6106b7565b610682565b6105e9565b6105af565b61048c565b610406565b6103d3565b610344565b60e01c90565b60405190565b5f80fd5b5f80fd5b5f91031261033a57565b61032c565b5f0190565b3461037257610354366004610330565b61035c611996565b610364610322565b8061036e8161033f565b0390f35b610328565b5f80fd5b60018060a01b031690565b61038f9061037b565b90565b61039b81610386565b036103a257565b5f80fd5b905035906103b382610392565b565b906020828203126103ce576103cb915f016103a6565b90565b61032c565b34610401576103eb6103e63660046103b5565b611a77565b6103f3610322565b806103fd8161033f565b0390f35b610328565b3461043457610416366004610330565b61041e611b31565b610426610322565b806104308161033f565b0390f35b610328565b90565b61044581610439565b0361044c57565b5f80fd5b9050359061045d8261043c565b565b9190604083820312610487578061047b610484925f86016103a6565b93602001610450565b90565b61032c565b346104bb576104a561049f36600461045f565b90611c16565b6104ad610322565b806104b78161033f565b0390f35b610328565b151590565b6104ce816104c0565b036104d557565b5f80fd5b905035906104e6826104c5565b565b5f80fd5b5f80fd5b5f80fd5b909182601f8301121561052e5781359167ffffffffffffffff831161052957602001926020830284011161052457565b6104f0565b6104ec565b6104e8565b9160c0838303126105aa5761054a825f85016103a6565b926105588360208301610450565b9261056681604084016104d9565b926105748260608501610450565b926105828360808301610450565b9260a082013567ffffffffffffffff81116105a5576105a192016104f4565b9091565b610377565b61032c565b346105e4576105ce6105c2366004610533565b95949094939193612200565b6105d6610322565b806105e08161033f565b0390f35b610328565b34610617576105f9366004610330565b61060161222d565b610609610322565b806106138161033f565b0390f35b610328565b1c90565b60018060a01b031690565b61063b906008610640930261061c565b610620565b90565b9061064e915461062b565b90565b61065d60135f90610643565b90565b61066990610386565b9052565b9190610680905f60208501940190610660565b565b346106b257610692366004610330565b6106ae61069d610651565b6106a5610322565b9182918261066d565b0390f35b610328565b346106e5576106c7366004610330565b6106cf612341565b6106d7610322565b806106e18161033f565b0390f35b610328565b90565b90565b6107046106ff610709926106ea565b6106ed565b610439565b90565b6107176103e86106f0565b90565b61072261070c565b90565b61072e90610439565b9052565b9190610745905f60208501940190610725565b565b3461077757610757366004610330565b61077361076261071a565b61076a610322565b91829182610732565b0390f35b610328565b346107ac5761078c366004610330565b6107a861079761234f565b61079f610322565b9182918261066d565b0390f35b610328565b6107c56107c06107ca9261037b565b6106ed565b61037b565b90565b6107d6906107b1565b90565b6107e2906107cd565b90565b906107ef906107d9565b5f5260205260405f2090565b60ff1690565b610811906008610816930261061c565b6107fb565b90565b906108249154610801565b90565b61083d906108386011915f926107e5565b610819565b90565b610849906104c0565b9052565b9190610860905f60208501940190610840565b565b346108925761088e61087d6108783660046103b5565b610827565b610885610322565b9182918261084d565b0390f35b610328565b346108c7576108a7366004610330565b6108c36108b261238a565b6108ba610322565b9182918261084d565b0390f35b610328565b90565b6108d8816108cc565b036108df57565b5f80fd5b905035906108f0826108cf565b565b90916060828403126109275761092461090d845f85016103a6565b9361091b81602086016103a6565b936040016108e3565b90565b61032c565b3461095b5761094561093f3660046108f2565b91612697565b61094d610322565b806109578161033f565b0390f35b610328565b3461098e57610970366004610330565b610978612aea565b610980610322565b8061098a8161033f565b0390f35b610328565b60018060a01b031690565b6109ae9060086109b3930261061c565b610993565b90565b906109c1915461099e565b90565b6109d060055f906109b6565b90565b6109dc906107cd565b90565b6109e8906109d3565b9052565b91906109ff905f602085019401906109df565b565b34610a3157610a11366004610330565b610a2d610a1c6109c4565b610a24610322565b918291826109ec565b0390f35b610328565b34610a6457610a46366004610330565b610a4e612b19565b610a56610322565b80610a608161033f565b0390f35b610328565b34610a9757610a79366004610330565b610a81612b23565b610a89610322565b80610a938161033f565b0390f35b610328565b60018060a01b031690565b610ab7906008610abc930261061c565b610a9c565b90565b90610aca9154610aa7565b90565b610ad960045f90610abf565b90565b610ae5906107cd565b90565b610af190610adc565b9052565b9190610b08905f60208501940190610ae8565b565b34610b3a57610b1a366004610330565b610b36610b25610acd565b610b2d610322565b91829182610af5565b0390f35b610328565b34610b6d57610b4f366004610330565b610b57612b49565b610b5f610322565b80610b698161033f565b0390f35b610328565b34610ba257610b82366004610330565b610b9e610b8d612b53565b610b95610322565b9182918261066d565b0390f35b610328565b90565b610bba906008610bbf930261061c565b610ba7565b90565b90610bcd9154610baa565b90565b610bdc60145f90610bc2565b90565b34610c0f57610bef366004610330565b610c0b610bfa610bd0565b610c02610322565b91829182610732565b0390f35b610328565b90602082820312610c2d57610c2a915f01610450565b90565b61032c565b34610c6057610c4a610c45366004610c14565b612bfd565b610c52610322565b80610c5c8161033f565b0390f35b610328565b5f80fd5b601f801991011690565b634e487b7160e01b5f52604160045260245ffd5b90610c9190610c69565b810190811067ffffffffffffffff821117610cab57604052565b610c73565b90610cc3610cbc610322565b9283610c87565b565b67ffffffffffffffff8111610ce357610cdf602091610c69565b0190565b610c73565b90825f939282370152565b90929192610d08610d0382610cc5565b610cb0565b93818552602085019082840111610d2457610d2292610ce8565b565b610c65565b9080601f83011215610d4757816020610d4493359101610cf3565b90565b6104e8565b919091604081840312610d8c57610d65835f8301610450565b92602082013567ffffffffffffffff8111610d8757610d849201610d29565b90565b610377565b61032c565b34610dc257610dbe610dad610da7366004610d4c565b90612c08565b610db5610322565b9182918261084d565b0390f35b610328565b34610df757610df3610de2610ddd366004610c14565b612ccb565b610dea610322565b91829182610732565b0390f35b610328565b90608082820312610e5657610e13815f8401610450565b92610e218260208501610450565b92610e2f8360408301610450565b92606082013567ffffffffffffffff8111610e5157610e4e9201610d29565b90565b610377565b61032c565b34610e8f57610e8b610e7a610e71366004610dfc565b92919091612cff565b610e82610322565b9182918261084d565b0390f35b610328565b90610e9e906107d9565b5f5260205260405f2090565b610ebe610eb9610ec392610439565b6106ed565b610439565b90565b90610ed090610eaa565b5f5260205260405f2090565b610ef5610efa92610ef0600f935f94610e94565b610ec6565b610819565b90565b34610f2e57610f2a610f19610f1336600461045f565b90610edc565b610f21610322565b9182918261084d565b0390f35b610328565b608081830312610f7457610f49825f83016103a6565b92610f71610f5a8460208501610450565b93610f688160408601610450565b936060016103a6565b90565b61032c565b34610fab57610f95610f8c366004610f33565b92919091612e75565b610f9d610322565b80610fa78161033f565b0390f35b610328565b90565b610fc3906008610fc8930261061c565b610fb0565b90565b90610fd69154610fb3565b90565b610fe560095f90610fcb565b90565b610ff1906108cc565b9052565b9190611008905f60208501940190610fe8565b565b3461103a5761101a366004610330565b611036611025610fd9565b61102d610322565b91829182610ff5565b0390f35b610328565b61104b600a5f90610bc2565b90565b3461107e5761105e366004610330565b61107a61106961103f565b611071610322565b91829182610732565b0390f35b610328565b61108f600b5f90610643565b90565b346110c2576110a2366004610330565b6110be6110ad611083565b6110b5610322565b9182918261066d565b0390f35b610328565b6110d360125f90610bc2565b90565b34611106576110e6366004610330565b6111026110f16110c7565b6110f9610322565b91829182610732565b0390f35b610328565b5f80fd5b9081604091031261111d5790565b61110b565b908160809103126111305790565b61110b565b91909160a0818403126111b75761114e835f83016103a6565b9261115c8160208401610450565b9261116a82604085016108e3565b92606081013567ffffffffffffffff81116111b2578361118b91830161110f565b92608082013567ffffffffffffffff81116111ad576111aa9201611122565b90565b610377565b610377565b61032c565b6040906111e56111ec94969593966111db60608401985f850190610fe8565b6020830190610725565b0190610725565b565b346112255761122161120d611204366004611135565b9392909261320f565b611218939193610322565b938493846111bc565b0390f35b610328565b60018060a01b031690565b61124590600861124a930261061c565b61122a565b90565b906112589154611235565b90565b61126760065f9061124d565b90565b611273906107cd565b90565b61127f9061126a565b9052565b9190611296905f60208501940190611276565b565b346112c8576112a8366004610330565b6112c46112b361125b565b6112bb610322565b91829182611283565b0390f35b610328565b9060808282031261133f576112e4815f8401610450565b926112f282602085016108e3565b92604081013567ffffffffffffffff811161133a578361131391830161110f565b92606082013567ffffffffffffffff8111611335576113329201611122565b90565b610377565b610377565b61032c565b3461137b5761137761136361135a3660046112cd565b92919091613491565b61136e939193610322565b938493846111bc565b0390f35b610328565b60018060a01b031690565b61139b9060086113a0930261061c565b611380565b90565b906113ae915461138b565b90565b6113bd60075f906113a3565b90565b6113c9906107cd565b90565b6113d5906113c0565b9052565b91906113ec905f602085019401906113cc565b565b3461141e576113fe366004610330565b61141a6114096113b1565b611411610322565b918291826113d9565b0390f35b610328565b61142f600c5f90610bc2565b90565b3461146257611442366004610330565b61145e61144d611423565b611455610322565b91829182610732565b0390f35b610328565b3461149757611477366004610330565b6114936114826134bb565b61148a610322565b91829182610732565b0390f35b610328565b91909160a08184031261151e576114b5835f83016108e3565b926114c38160208401610450565b926114d182604085016108e3565b92606081013567ffffffffffffffff811161151957836114f291830161110f565b92608082013567ffffffffffffffff8111611514576115119201611122565b90565b610377565b610377565b61032c565b3461155a5761155661154261153936600461149c565b93929092613758565b61154d939193610322565b938493846111bc565b0390f35b610328565b3461158f5761156f366004610330565b61158b61157a613783565b611582610322565b9182918261066d565b0390f35b610328565b91906040838203126115bc57806115b06115b9925f86016103a6565b936020016104d9565b90565b61032c565b346115f0576115da6115d4366004611594565b90613842565b6115e2610322565b806115ec8161033f565b0390f35b610328565b611601600e5f90610643565b90565b3461163457611614366004610330565b61163061161f6115f5565b611627610322565b9182918261066d565b0390f35b610328565b611645600d5f90610bc2565b90565b3461167857611658366004610330565b611674611663611639565b61166b610322565b91829182610732565b0390f35b610328565b346116ab576116956116903660046103b5565b6138ea565b61169d610322565b806116a78161033f565b0390f35b610328565b9160c08383031261173e576116c7825f85016103a6565b926116d583602083016108e3565b926116e38160408401610450565b926116f182606085016108e3565b92608081013567ffffffffffffffff8111611739578361171291830161110f565b9260a082013567ffffffffffffffff8111611734576117319201611122565b90565b610377565b610377565b61032c565b3461177d576117796117656117593660046116b0565b94939093929192613b8a565b611770939193610322565b938493846111bc565b0390f35b610328565b61178e60155f90610819565b90565b346117c1576117a1366004610330565b6117bd6117ac611782565b6117b4610322565b9182918261084d565b0390f35b610328565b346117f4576117de6117d93660046103b5565b613c28565b6117e6610322565b806117f08161033f565b0390f35b610328565b6118126118179261180d6010935f94610e94565b610ec6565b610819565b90565b3461184b5761184761183661183036600461045f565b906117f9565b61183e610322565b9182918261084d565b0390f35b610328565b60018060a01b031690565b61186b906008611870930261061c565b611850565b90565b9061187e915461185b565b90565b61188d60085f90611873565b90565b611899906107cd565b90565b6118a590611890565b9052565b91906118bc905f6020850194019061189c565b565b346118ee576118ce366004610330565b6118ea6118d9611881565b6118e1610322565b918291826118a9565b0390f35b610328565b5f80fd5b6118ff613c33565b611907611953565b565b5f1b90565b9061191a60ff91611909565b9181191691161790565b61192d906104c0565b90565b90565b9061194861194361194f92611924565b611930565b825461190e565b9055565b61195e5f6015611933565b7fa42716464c1db5dcbde8f45245f86811504bf01f15d4a375a9bd025fdbafe860611987610322565b806119918161033f565b0390a1565b61199e6118f7565b565b6119b1906119ac613c33565b6119de565b565b90565b6119ca6119c56119cf926119b3565b6106ed565b61037b565b90565b6119db906119b6565b90565b806119f96119f36119ee5f6119d2565b610386565b91610386565b14611a5b57611a06612b53565b611a0f82613c28565b90611a43611a3d7ff4e75b79500ab730f8a026ed3cba6d55331bcb64c9e9f60c548e371356e5e3c0936107d9565b916107d9565b91611a4c610322565b80611a568161033f565b0390a3565b5f63e6c4247b60e01b815280611a736004820161033f565b0390fd5b611a80906119a0565b565b611a8a613c33565b611a92611a94565b565b611a9c613783565b611ab6611ab0611aab5f6119d2565b610386565b91610386565b14611b1557611acb611ac6612b53565b613ce5565b611ad3612b53565b611afd7f48a87225523c5fd46bf3b7da3223e5525f77b8136a962695d701a24699bef8f3916107d9565b90611b06610322565b80611b108161033f565b0390a2565b5f633e31d61b60e11b815280611b2d6004820161033f565b0390fd5b611b39611a82565b565b90611b4d91611b48613c33565b611b67565b565b611b58906107b1565b90565b611b6490611b4f565b90565b80611b82611b7c611b775f6119d2565b610386565b91610386565b14611bfa57611ba2611b9382611b5b565b611b9b612b53565b8491613d4f565b90611bab612b53565b9091611bf5611be3611bdd7f77023e19c7343ad491fd706c36335ca0e738340a91f29b1fd81e2673d44896c4936107d9565b936107d9565b93611bec610322565b91829182610732565b0390a3565b5f63e6c4247b60e01b815280611c126004820161033f565b0390fd5b90611c2091611b3b565b565b90611c39969594939291611c34613d9d565b611c3b565b565b90611c52969594939291611c4d613df3565b61200f565b611c5a613e77565b565b611c70611c6b611c75926119b3565b6106ed565b610439565b90565b60209181520190565b5f7f416d6f756e74206d7573742062652067726561746572207468616e207a65726f910152565b611cb460208092611c78565b611cbd81611c81565b0190565b611cd69060208101905f818303910152611ca8565b90565b15611ce057565b611ce8610322565b62461bcd60e51b815280611cfe60048201611cc1565b0390fd5b5f1c90565b611d13611d1891611d02565b610fb0565b90565b611d259054611d07565b90565b611d34611d3991611d02565b610ba7565b90565b611d469054611d28565b90565b611d536040610cb0565b90565b90611d60906108cc565b9052565b90611d6e90610439565b9052565b611d7b906107cd565b90565b611d886040610cb0565b90565b90611d9590610386565b9052565b604090611dc2611dc99496959396611db860608401985f850190610660565b6020830190610725565b0190610660565b565b611dd56060610cb0565b90565b52565b52565b634e487b7160e01b5f52601160045260245ffd5b611e01611e0791939293610439565b92610439565b8203918211611e1257565b611dde565b611e26611e2c91939293610439565b92610439565b8201809211611e3757565b611dde565b90611e485f1991611909565b9181191691161790565b90565b90611e6a611e65611e7192610eaa565b611e52565b8254611e3c565b9055565b611e81611e8691611d02565b611380565b90565b611e939054611e75565b90565b5f80fd5b60e01b90565b5f910312611eaa57565b61032c565b611eb8906108cc565b9052565b611ec590610439565b9052565b90602080611eeb93611ee15f8201515f860190611eaf565b0151910190611ebc565b565b611ef690610386565b9052565b90602080611f1c93611f125f8201515f860190611eed565b0151910190611ebc565b565b9060806040611f5293611f375f8201515f860190611ec9565b611f48602082015183860190611efa565b0151910190611eaf565b565b60209181520190565b5f80fd5b9037565b909182611f7191611f54565b9160018060fb1b038111611f945782916020611f909202938491611f61565b0190565b611f5d565b909391611fdb9593611fc4611fce92611fba6101008601985f870190611f1e565b60a0850190610725565b60c0830190610725565b60e0818503910152611f65565b90565b611fe6610322565b3d5f823e3d90fd5b611ffa611fff91611d02565b610993565b90565b61200c9054611fee565b90565b949291959093956120328561202c6120265f611c5c565b91610439565b11611cd9565b61210f61203f6009611d1b565b9161206a61204d600a611d3c565b612061612058611d49565b955f8701611d56565b60208501611d64565b6121066120e861207930611d72565b9261209b46612092612089611d7e565b965f8801611d8b565b60208601611d64565b6120e38b8b925f146121ef576120d46120b2613e8b565b5b6120bb610322565b948593600460208601631a4ca37b60e21b815201611d99565b60208201810382520382610c87565b613feb565b916120fd6120f4611dcb565b955f8701611dd8565b60208501611ddb565b60408301611d56565b61214061213961212961212188612ccb565b978890611df2565b966121346014611d3c565b611e17565b6014611e55565b61215261214d6007611e89565b6113c0565b91637fb34967919397949091833b156121ea57612190612185935f97938894612179610322565b9c8d998a988997611e9a565b875260048701611f99565b03925af19283156121e5576121b7936121b9575b506121af6005612002565b919091613d4f565b565b6121d8905f3d81116121de575b6121d08183610c87565b810190611ea0565b5f6121a4565b503d6121c6565b611fde565b611e96565b6120d46121fb5f6119d2565b6120b3565b9061220f969594939291611c22565b565b612219613c33565b612221612223565b565b61222b6140b4565b565b612235612211565b565b61223f613c33565b612247612249565b565b612251613df3565b612259612284565b612261613e77565b565b61226f61227491611d02565b610620565b90565b6122819054612263565b90565b61228e6014611d3c565b806122a161229b5f611c5c565b91610439565b14612325576122b96122b25f611c5c565b6014611e55565b6122d76122c66005612002565b6122d06013612277565b8391613d4f565b6122e16013612277565b61232061230e7fc0819c13be868895eb93e40eaceb96de976442fa1d404e5c55f14bb65a8c489a926107d9565b92612317610322565b91829182610732565b0390a2565b5f630d00db4d60e31b81528061233d6004820161033f565b0390fd5b612349612237565b565b5f90565b61235761234b565b506123626013612277565b90565b5f90565b61237561237a91611d02565b6107fb565b90565b6123879054612369565b90565b612392612365565b5061239c5f61237d565b90565b6123ab6123b091611d02565b610a9c565b90565b6123bd905461239f565b90565b6123d46123cf6123d9926119b3565b611909565b6108cc565b90565b6123e5906107b1565b90565b6123f1906123dc565b90565b9061240560018060a01b0391611909565b9181191691161790565b612418906123dc565b90565b90565b9061243361242e61243a9261240f565b61241b565b82546123f4565b9055565b61244790611b4f565b90565b90565b9061246261245d6124699261243e565b61244a565b82546123f4565b9055565b612476906108cc565b90565b61248290611d02565b90565b9061249a6124956124a19261246d565b612479565b8254611e3c565b9055565b6124ae90610386565b90565b6124ba816124a5565b036124c157565b5f80fd5b905051906124d2826124b1565b565b906020828203126124ed576124ea915f016124c5565b90565b61032c565b6124fb906107b1565b90565b612507906124f2565b90565b612513906124f2565b90565b90565b9061252e6125296125359261250a565b612516565b82546123f4565b9055565b61254561254a91611d02565b61122a565b90565b6125579054612539565b90565b61256390610386565b90565b61256f8161255a565b0361257657565b5f80fd5b9050519061258782612566565b565b906020828203126125a25761259f915f0161257a565b90565b61032c565b6125b0906107b1565b90565b6125bc906125a7565b90565b90565b906125d76125d26125de926125b3565b6125bf565b82546123f4565b9055565b6125eb90610386565b90565b6125f7816125e2565b036125fe57565b5f80fd5b9050519061260f826125ee565b565b9060208282031261262a57612627915f01612602565b90565b61032c565b612638906107b1565b90565b6126449061262f565b90565b90565b9061265f61265a6126669261263b565b612647565b82546123f4565b9055565b905051906126778261043c565b565b906020828203126126925761268f915f0161266a565b90565b61032c565b9190916126a2613e8b565b6126d46126ce7f0000000000000000000000000000000000000000000000000000000000000000610386565b91610386565b03612a79576126eb6126e660046123b3565b610adc565b6127056126ff6126fa5f6119d2565b610386565b91610386565b03612a5e578061272561271f61271a5f6119d2565b610386565b91610386565b148015612a3c575b8015612a1a575b6129fe5761274b612744826123e8565b600461241e565b61275e61275784611b5b565b600561244d565b612769826009612485565b612796602061278061277b60046123b3565b610adc565b63971b0e6b9061278e610322565b938492611e9a565b825281806127a66004820161033f565b03915afa80156129f9576127c86127cd916127d4935f916129cb575b5061126a565b6124fe565b6006612519565b61280160206127eb6127e6600661254d565b61126a565b63a32fbb7b906127f9610322565b938492611e9a565b825281806128116004820161033f565b03915afa80156129c65761282e915f91612998575b5060076125c2565b61285b6020612845612840600661254d565b61126a565b63368c093c90612853610322565b938492611e9a565b8252818061286b6004820161033f565b03915afa801561299357612888915f91612965575b50600861264a565b6128b5602061289f61289a600661254d565b61126a565b630d8e6e2c906128ad610322565b938492611e9a565b825281806128c56004820161033f565b03915afa8015612960576128e2915f91612932575b50600a611e55565b91909161292d61291b6129157fce8c93fecc87ea28c5a92dea4f94ba0a51087dc17a2f11782aa2117dbd19b686936107d9565b936107d9565b93612924610322565b91829182610ff5565b0390a3565b612953915060203d8111612959575b61294b8183610c87565b810190612679565b5f6128da565b503d612941565b611fde565b612986915060203d811161298c575b61297e8183610c87565b810190612611565b5f612880565b503d612974565b611fde565b6129b9915060203d81116129bf575b6129b18183610c87565b810190612589565b5f612826565b503d6129a7565b611fde565b6129ec915060203d81116129f2575b6129e48183610c87565b8101906124d4565b5f6127c2565b503d6129da565b611fde565b5f63e6c4247b60e01b815280612a166004820161033f565b0390fd5b5081612a36612a30612a2b5f6123c0565b6108cc565b916108cc565b14612734565b5082612a58612a52612a4d5f6119d2565b610386565b91610386565b1461272d565b5f62dc149f60e41b815280612a756004820161033f565b0390fd5b5f6282b42960e81b815280612a906004820161033f565b0390fd5b612a9c613c33565b612aa4612aa6565b565b612ab260016015611933565b7f92157b8195c8c3ac00efedfa7044da4ff96d1ce98df0c0a14f62f0ae09caaaf6612adb610322565b80612ae58161033f565b0390a1565b612af2612a94565b565b612afc613c33565b612b04612b06565b565b612b17612b125f6119d2565b613ce5565b565b612b21612af4565b565b612b2b6140be565b565b612b35613c33565b612b3d612b3f565b565b612b4761416f565b565b612b51612b2d565b565b612b5b61234b565b50612b666002612277565b90565b612b7a90612b75613c33565b612b7c565b565b80612b96612b90612b8b61070c565b610439565b91610439565b11612be157612ba6816012611e55565b612bdc7f8c4d35e54a3f2ef1134138fd8ea3daee6a3c89e10d2665996babdf70261e2c7691612bd3610322565b91829182610732565b0390a1565b5f63cd4e616760e01b815280612bf96004820161033f565b0390fd5b612c0690612b69565b565b612c3a91612c14612365565b50612c1d613e8b565b91612c28600c611d3c565b90612c33600d611d3c565b9293614274565b90565b5f90565b612c50612c5691939293610439565b92610439565b91612c62838202610439565b928184041490151715612c7157565b611dde565b90565b612c8d612c88612c9292612c76565b6106ed565b610439565b90565b634e487b7160e01b5f52601260045260245ffd5b612cb5612cbb91610439565b91610439565b908115612cc6570490565b612c95565b612ceb612cfc91612cda612c3d565b50612ce56012611d3c565b90612c41565b612cf6612710612c79565b90612ca9565b90565b91612d209391612d0d612365565b50612d16613e8b565b9390919293614369565b90565b90612d37939291612d32613c33565b612d7f565b565b90565b90612d51612d4c612d58926107d9565b612d39565b82546123f4565b9055565b916020612d7d929493612d7660408201965f830190610725565b0190610725565b565b92919280612d9d612d97612d925f6119d2565b610386565b91610386565b14612e595782612dbd612db7612db25f6119d2565b610386565b91610386565b14612e3d57612dcd81600b612d3c565b612dd882600c611e55565b612de384600d611e55565b612dee83600e612d3c565b9092612e23612e1d7f1107ee7c7b3754e79d9bd0f8b9fcf26fc114196fe80f4c3c7ba7d0efbbae0924936107d9565b936107d9565b93612e38612e2f610322565b92839283612d5c565b0390a3565b5f63e6c4247b60e01b815280612e556004820161033f565b0390fd5b5f63e6c4247b60e01b815280612e716004820161033f565b0390fd5b90612e81939291612d23565b565b5f90565b90612e9f97969594939291612e9a613d9d565b612ea4565b909192565b90612ebc97969594939291612eb7613df3565b612fc9565b909192612ec7613e77565b565b612ed5612eda91611d02565b611850565b90565b612ee79054612ec9565b90565b90505190612ef7826108cf565b565b9190604083820312612f215780612f15612f1e925f8601612eea565b9360200161266a565b90565b61032c565b90602080612f4893612f3e5f8201515f860190611eaf565b0151910190611ebc565b565b606090612f73612f7a9496959396612f6960808401985f850190612f26565b6040830190610fe8565b0190610fe8565b565b90959492612fc794612fb6612fc092612fac608096612fa260a088019c5f890190610725565b6020870190610725565b6040850190610fe8565b6060830190610fe8565b0190610725565b565b9795939796929496505050612fe7612fe1601561237d565b156104c0565b6131f357613008613002612ffd601133906107e5565b61237d565b156104c0565b6131d7576130369261302c876130266130205f611c5c565b91610439565b11611cd9565b91869091926144b9565b61303f83612ccb565b9261304b818590611df2565b9360406130586009611d1b565b613082613065600a611d3c565b613079613070611d49565b935f8501611d56565b60208301611d64565b926130e26130c56130b16130c08a613098610322565b9283916004602084016311675ebd60e31b815201610732565b60208201810382520382610c87565b613feb565b916130d06005612002565b90336130db30611d72565b9192614761565b6130ff6130f8846130f36014611d3c565b611e17565b6014611e55565b61311161310c6008612edd565b611890565b6131355f631f6d510b9693966131408a613129610322565b998a9788968795611e9a565b855260048501612f4a565b03925af180156131d2575f8093909161319f575b509193859190916131948487907fec915cbb614f4e8d4e71c5f18aa49dbb6e41d25ab75f44560c28ea05916168c39561318b610322565b95869586612f7c565b0390a1919291929190565b90506131c391925060403d81116131cb575b6131bb8183610c87565b810190612ef9565b91905f613154565b503d6131b1565b611fde565b5f63aa41dc9f60e01b8152806131ef6004820161033f565b0390fd5b5f63deeb694360e01b81528061320b6004820161033f565b0390fd5b906132359493929161321f612e83565b613227612c3d565b61322f612c3d565b91612e87565b909192565b9061325196959493929161324c613d9d565b613256565b909192565b9061326d969594939291613268613df3565b61327a565b909192613278613e77565b565b96949296959395505050613297613291601561237d565b156104c0565b613475576132cd916132bb866132b56132af5f611c5c565b91610439565b11611cd9565b6132c3613e8b565b91869091926144b9565b6132d683612ccb565b926132e2818590611df2565b9360406132ef6009611d1b565b6133196132fc600a611d3c565b613310613307611d49565b935f8501611d56565b60208301611d64565b9261338061335c6133486133578a61332f610322565b9283916004602084016311675ebd60e31b815201610732565b60208201810382520382610c87565b613feb565b916133676005612002565b90613370613e8b565b61337930611d72565b9192614761565b61339d613396846133916014611d3c565b611e17565b6014611e55565b6133af6133aa6008612edd565b611890565b6133d35f631f6d510b9693966133de8a6133c7610322565b998a9788968795611e9a565b855260048501612f4a565b03925af18015613470575f8093909161343d575b509193859190916134328487907fec915cbb614f4e8d4e71c5f18aa49dbb6e41d25ab75f44560c28ea05916168c395613429610322565b95869586612f7c565b0390a1919291929190565b905061346191925060403d8111613469575b6134598183610c87565b810190612ef9565b91905f6133f2565b503d61344f565b611fde565b5f63deeb694360e01b81528061348d6004820161033f565b0390fd5b906134b69392916134a0612e83565b6134a8612c3d565b6134b0612c3d565b9161323a565b909192565b6134c3612c3d565b506134ce6014611d3c565b90565b906134e9979695949392916134e4613d9d565b6134ee565b909192565b9061350697969594939291613501613df3565b613536565b909192613511613e77565b565b91602061353492949361352d60408201965f830190610fe8565b0190610725565b565b9795929693949750505061355361354d601561237d565b156104c0565b61373c57613589916135778461357161356b5f611c5c565b91610439565b11611cd9565b61357f613e8b565b91849091926144b9565b61359281612ccb565b61359d828290611df2565b9460406135aa6009611d1b565b6135d46135b7600a611d3c565b6135cb6135c2611d49565b935f8501611d56565b60208301611d64565b9361363d613619886136148b916136056135ec610322565b93849260046020850163bc6a9bd360e01b815201613513565b60208201810382520382610c87565b613feb565b916136246005612002565b9061362d613e8b565b61363630611d72565b9192614761565b61365a6136538561364e6014611d3c565b611e17565b6014611e55565b61366c6136676008612edd565b611890565b6136905f631f6d510b97939761369b87613684610322565b9a8b9788968795611e9a565b855260048501612f4a565b03925af18015613737575f80949091613704575b50929490869290926136f98588906136e77f71591b8502d8aa9640fa219fbfb8e23ffcd2a75edbd923826ef3ef77f6da4a8b9661246d565b966136f0610322565b95869586612f7c565b0390a2919291929190565b905061372891935060403d8111613730575b6137208183610c87565b810190612ef9565b92905f6136af565b503d613716565b611fde565b5f63deeb694360e01b8152806137546004820161033f565b0390fd5b9061377e94939291613768612e83565b613770612c3d565b613778612c3d565b916134d1565b909192565b61378b61234b565b506137966003612277565b90565b906137ab916137a6613c33565b6137ad565b565b806137c86137c26137bd5f6119d2565b610386565b91610386565b14613826576137e2826137dd601184906107e5565b611933565b61382161380f7fbee55516e29d3969d3cb8eb01351eb3c52d06f9e2435bd5a8bfe3647e185df92926107d9565b92613818610322565b9182918261084d565b0390a2565b5f63e6c4247b60e01b81528061383e6004820161033f565b0390fd5b9061384c91613799565b565b61385f9061385a613c33565b613861565b565b8061387c6138766138715f6119d2565b610386565b91610386565b146138ce5761388c816013612d3c565b6138b67f7a7b5a0a132f9e0581eb8527f66eae9ee89c2a3e79d4ac7e41a1f1f4d48a7fc2916107d9565b906138bf610322565b806138c98161033f565b0390a2565b5f63e6c4247b60e01b8152806138e66004820161033f565b0390fd5b6138f39061384e565b565b9061390e9897969594939291613909613d9d565b613913565b909192565b9061392c9897969594939291613927613df3565b613939565b909192613937613e77565b565b9896939792949598505050613957613951601561237d565b156104c0565b613b6e5761397861397261396d601133906107e5565b61237d565b156104c0565b613b52576139a69261399c856139966139905f611c5c565b91610439565b11611cd9565b91849091926144b9565b6139af81612ccb565b6139ba828290611df2565b9460406139c76009611d1b565b6139f16139d4600a611d3c565b6139e86139df611d49565b935f8501611d56565b60208301611d64565b93613a53613a3688613a318b91613a22613a09610322565b93849260046020850163bc6a9bd360e01b815201613513565b60208201810382520382610c87565b613feb565b91613a416005612002565b9033613a4c30611d72565b9192614761565b613a70613a6985613a646014611d3c565b611e17565b6014611e55565b613a82613a7d6008612edd565b611890565b613aa65f631f6d510b979397613ab187613a9a610322565b9a8b9788968795611e9a565b855260048501612f4a565b03925af18015613b4d575f80949091613b1a575b5092949086929092613b0f858890613afd7f71591b8502d8aa9640fa219fbfb8e23ffcd2a75edbd923826ef3ef77f6da4a8b9661246d565b96613b06610322565b95869586612f7c565b0390a2919291929190565b9050613b3e91935060403d8111613b46575b613b368183610c87565b810190612ef9565b92905f613ac5565b503d613b2c565b611fde565b5f63aa41dc9f60e01b815280613b6a6004820161033f565b0390fd5b5f63deeb694360e01b815280613b866004820161033f565b0390fd5b90613bb19594939291613b9b612e83565b613ba3612c3d565b613bab612c3d565b916138f5565b909192565b613bc790613bc2613c33565b613bc9565b565b613bd4816003612d3c565b613bdc612b53565b90613c10613c0a7f38d16b8cac22d99fc7c124b9cd0de2d3fa1faef420bfe791d8c362d765e22700936107d9565b916107d9565b91613c19610322565b80613c238161033f565b0390a3565b613c3190613bb6565b565b613c3b612b53565b613c54613c4e613c49613e8b565b610386565b91610386565b03613c5b57565b613c7d613c66613e8b565b5f91829163118cdaa760e01b83526004830161066d565b0390fd5b1b90565b91906008613ca5910291613c9f60018060a01b0384613c81565b92613c81565b9181191691161790565b9190613cc5613cc0613ccd936107d9565b612d39565b908354613c85565b9055565b613ce391613cdd61234b565b91613caf565b565b613cf990613cf45f6003613cd1565b6147b1565b565b63ffffffff1690565b63ffffffff60e01b1690565b613d24613d1f613d2992613cfb565b611e9a565b613d04565b90565b916020613d4d929493613d4660408201965f830190610660565b0190610725565b565b90613d96613d9b93613d8760049493613d6e63a9059cbb919391613d10565b92613d77610322565b9687946020860190815201613d2c565b60208201810382520383610c87565b614812565b565b613da561238a565b613dab57565b5f63d93c066560e01b815280613dc36004820161033f565b0390fd5b90565b613dde613dd9613de392613dc7565b6106ed565b610439565b90565b613df06002613dca565b90565b613dfd6001611d3c565b613e16613e10613e0b613de6565b610439565b91610439565b14613e2f57613e2d613e26613de6565b6001611e55565b565b5f633ee5aeb560e01b815280613e476004820161033f565b0390fd5b90565b613e62613e5d613e6792613e4b565b6106ed565b610439565b90565b613e746001613e4e565b90565b613e89613e82613e6a565b6001611e55565b565b613e9361234b565b503390565b90613eaa613ea583610cc5565b610cb0565b918252565b369037565b90613ed9613ec183613e98565b92602080613ecf8693610cc5565b9201910390613eaf565b565b5190565b905090565b90825f9392825e0152565b613f14613f0b92602092613f0281613edb565b94858093613edf565b93849101613ee4565b0190565b613f2191613eef565b90565b60ff191690565b613f3490613f24565b90565b90565b613f46613f4b91613f24565b613f37565b9052565b613f5f613f6691601f9493613eef565b8092613f3a565b0190565b613f899291613f9591613f7b610322565b948592602084019283613f4f565b90810382520383610c87565b565b60200190565b613fa790516108cc565b90565b613fc4613fbf613fb983613edb565b92613f97565b613f9d565b9060208110613fd2575b5090565b613fe4905f1990602003600802613c81565b165f613fce565b613ff3612e83565b5060205f61401e61400c6140076001613e4e565b613eb4565b93614015610322565b91829182613f18565b039060025afa156140505761404861404d9161404261403d5f51611909565b613f2b565b90613f6a565b613faa565b90565b611fde565b61405d6148c6565b614065614067565b565b6140715f5f611933565b614079613e8b565b6140af7f5db9ee0a495bf2e6ff9c91a7834c1ba4fdd244a5e8aa4e537bd38aeae4b073aa916140a6610322565b9182918261066d565b0390a1565b6140bc614055565b565b6140c6613e8b565b6140ce613783565b6140e06140da83610386565b91610386565b036140f0576140ee90613ce5565b565b61410b905f91829163118cdaa760e01b83526004830161066d565b0390fd5b614117613d9d565b61411f614121565b565b61412c60015f611933565b614134613e8b565b61416a7f62e78cea01bee320cd4e420270b5ea74000d11b0c9f74754ebdbfc544b05a25891614161610322565b9182918261066d565b0390a1565b61417761410f565b565b90565b61418861418d91610439565b614179565b9052565b60601b90565b6141a090614191565b90565b6141ac90614197565b90565b6141bb6141c091610386565b6141a3565b9052565b926141f160206141f9946141e982886141e160149b9a839961417c565b01809261417c565b01809261417c565b0180926141af565b0190565b905090565b5f7f19457468657265756d205369676e6564204d6573736167653a0a333200000000910152565b614235601c80926141fd565b61423e81614202565b0190565b90565b614251614256916108cc565b614242565b9052565b90614270614269602093614229565b8092614245565b0190565b926142b66142dd936142a761430497966142ec95614290612365565b50929461429b610322565b958694602086016141c4565b60208201810382520382610c87565b6142c86142c282613edb565b91613f97565b206142d1610322565b9283916020830161425a565b60208201810382520382610c87565b6142fe6142f882613edb565b91613f97565b206148f9565b61431f614319614314600b612277565b610386565b91610386565b1490565b60206143659461435582809661434d60148761434561435d99839f9e9b6141af565b01809261417c565b01809261417c565b01809261417c565b0180926141af565b0190565b9091939293614376612365565b504261438a61438487610439565b91610439565b1161443e576143d16143f8936143c261441f97614407959294906143ad30611d72565b916143b6610322565b96879560208701614323565b60208201810382520382610c87565b6143e36143dd82613edb565b91613f97565b206143ec610322565b9283916020830161425a565b60208201810382520382610c87565b61441961441382613edb565b91613f97565b206148f9565b61443a61443461442f600e612277565b610386565b91610386565b1490565b50505050505f90565b5f80fd5b5f80fd5b5f80fd5b903590600160200381360303821215614495570180359067ffffffffffffffff82116144905760200191600182023603831361448b57565b61444f565b61444b565b614447565b5090565b356144a88161043c565b90565b6144b6913691610cf3565b90565b915f6144d26144cc836020810190614453565b9061449a565b6144e46144de5f611c5c565b91610439565b11614670575b6144f59150156104c0565b6144ff575b505050565b614516614510846060810190614453565b9061449a565b6145286145225f611c5c565b91610439565b146146545761455661455161453f600f8590610e94565b61454b6020870161449e565b90610ec6565b61237d565b614638576145a86145a28361456c5f870161449e565b6145786020880161449e565b6145846040890161449e565b9161459c6145968a6060810190614453565b906144ab565b93614369565b156104c0565b61461c576145c86145c26145bd5f860161449e565b610439565b91610439565b11614600576145f36145f8926145ed60206145e6600195600f610e94565b920161449e565b90610ec6565b611933565b5f80806144fa565b5f63172bd6a160e31b8152806146186004820161033f565b0390fd5b5f631050484960e01b8152806146346004820161033f565b0390fd5b5f63236dea5560e21b8152806146506004820161033f565b0390fd5b5f6304bc4ab760e31b81528061466c6004820161033f565b0390fd5b5061469961469461468360108690610e94565b61468e5f850161449e565b90610ec6565b61237d565b614713576144f59061470e6146e5856146b35f850161449e565b6146bd600c611d3c565b6146c7600d611d3c565b916146df6146d9886020810190614453565b906144ab565b93614274565b916147096001916147035f6146fc60108b90610e94565b920161449e565b90610ec6565b611933565b6144ea565b5f636356e6ef60e11b81528061472b6004820161033f565b0390fd5b60409061475861475f949695939661474e60608401985f850190610660565b6020830190610660565b0190610725565b565b60049261479b6147af95936147aa93946147826323b872dd92949192613d10565b9361478b610322565b978895602087019081520161472f565b60208201810382520383610c87565b614812565b565b6147bb6002612277565b6147c6826002612d3c565b906147fa6147f47f8be0079c531659141344cd1fd0a4f28419497f9722a3daafe3b4186f6b6457e0936107d9565b916107d9565b91614803610322565b8061480d8161033f565b0390a3565b905f60209161481f612c3d565b50614828612c3d565b50828151910182855af1156148bb573d5f519061484d6148475f611c5c565b91610439565b145f146148a1575061485e816109d3565b3b61487161486b5f611c5c565b91610439565b145b61487a5750565b61488661489d916109d3565b5f918291635274afe760e01b83526004830161066d565b0390fd5b6148b46148ae6001613e4e565b91610439565b1415614873565b6040513d5f823e3d90fd5b6148d76148d161238a565b156104c0565b6148dd57565b5f638dfc202b60e01b8152806148f56004820161033f565b0390fd5b6149189161490f9161490961234b565b5061495e565b90929192614a46565b90565b5f90565b90565b61493661493161493b9261491f565b6106ed565b610439565b90565b61495261494d61495792610439565b611909565b6108cc565b90565b5f90565b91909161496961234b565b5061497261491b565b5061497b612e83565b5061498583613edb565b6149986149926041614922565b91610439565b145f146149df576149d891926149ac612e83565b506149b5612e83565b506149be61495a565b506020810151606060408301519201515f1a909192614b87565b9192909190565b506149e95f6119d2565b906149fd6149f8600294613edb565b61493e565b91929190565b634e487b7160e01b5f52602160045260245ffd5b60041115614a2157565b614a03565b90614a3082614a17565b565b614a3e614a4391611d02565b610eaa565b90565b80614a59614a535f614a26565b91614a26565b145f14614a64575050565b80614a78614a726001614a26565b91614a26565b145f14614a9b575f63f645eedf60e01b815280614a976004820161033f565b0390fd5b80614aaf614aa96002614a26565b91614a26565b145f14614add57614ad9614ac283614a32565b5f91829163fce698f760e01b835260048301610732565b0390fd5b614af0614aea6003614a26565b91614a26565b14614af85750565b614b13905f9182916335e2f38360e21b835260048301610ff5565b0390fd5b90565b614b2e614b29614b3392614b17565b6106ed565b610439565b90565b60ff1690565b614b4590614b36565b9052565b614b7e614b8594614b74606094989795614b6a608086019a5f870190610fe8565b6020850190614b3c565b6040830190610fe8565b0190610fe8565b565b939293614b9261234b565b50614b9b61491b565b50614ba4612e83565b50614bae85614a32565b614be0614bda7f7fffffffffffffffffffffffffffffff5d576e7357a4501ddfe92f46681b20a0614b1a565b91610439565b11614c6d5790614c03602094955f94939293614bfa610322565b94859485614b49565b838052039060015afa15614c6857614c1b5f51611909565b80614c36614c30614c2b5f6119d2565b610386565b91610386565b14614c4c575f91614c465f6123c0565b91929190565b50614c565f6119d2565b600191614c625f6123c0565b91929190565b611fde565b505050614c795f6119d2565b906003929192919056fea2646970667358221220b68223bd6f0783f836f51c464d18cf1279245d5ed77fa7c18b479e8d353ba22664736f6c634300081c0033","linkReferences":{}},"methodIdentifiers":{"MAX_FEE_BASIS_POINTS()":"4befe2ca","acceptOwnership()":"79ba5097","calculateFee(uint256)":"99a5d747","cancelOwnershipTransfer()":"23452b9c","cleanHandsActionId()":"eff3facf","cleanHandsCircuitId()":"d1a79008","cleanHandsNonces(address,uint256)":"f9148fa1","collectedFees()":"9003adfe","depositToAztecPrivate(uint256,bytes32,(uint256,bytes),(uint256,uint256,uint256,bytes))":"cb334616","depositToAztecPrivateFor(address,uint256,bytes32,(uint256,bytes),(uint256,uint256,uint256,bytes))":"c631bfa8","depositToAztecPublic(bytes32,uint256,bytes32,(uint256,bytes),(uint256,uint256,uint256,bytes))":"db1eb374","depositToAztecPublicFor(address,bytes32,uint256,bytes32,(uint256,bytes),(uint256,uint256,uint256,bytes))":"f23e2452","depositsActive()":"f275c0ce","feeBasisPoints()":"b8606eef","feeRecipient()":"46904840","getCollectedFees()":"d54a8d18","getFeeRecipient()":"4ccb20c0","humanIdAttester()":"b0a00e15","inbox()":"fb0e722b","initialize(address,address,bytes32)":"6133f985","l2Bridge()":"ae1f6aaf","outbox()":"ce11e6ab","owner()":"8da5cb5b","passportNonces(address,uint256)":"ab3d25ac","passportSigner()":"eb50136f","pause()":"8456cb59","pauseDeposits()":"02191980","paused()":"5c975abb","pendingOwner()":"e30c3978","proposeOwnershipTransfer(address)":"21040fc3","registry()":"7b103999","renounceOwnership()":"715018a6","rescueToken(address,uint256)":"33f3d628","rollup()":"cb23bcb5","rollupVersion()":"b0893887","setTrustedForwarder(address,bool)":"e691d03b","transferOwnership(address)":"f2fde38b","trustedForwarders(address)":"54776bb9","underlying()":"6f307dc3","unpause()":"3f4ba83a","unpauseDeposits()":"63d8882a","updateAttestationConfig(address,uint256,uint256,address)":"ac1d201b","updateFee(uint256)":"9012c4a8","updateFeeRecipient(address)":"f160d369","verifyCleanHandsSignature(uint256,bytes)":"90f27f80","verifyPassportSignature(uint256,uint256,uint256,bytes)":"a491a4fc","withdraw(address,uint256,bool,uint256,uint256,bytes32[])":"3ba57310","withdrawFees()":"476343ee"},"id":88}