{"abi":[{"type":"constructor","inputs":[{"name":"_initialOwner","type":"address","internalType":"address"},{"name":"_feeRecipient","type":"address","internalType":"address"},{"name":"_feeBasisPoints","type":"uint256","internalType":"uint256"},{"name":"_humanIdAttester","type":"address","internalType":"address"},{"name":"_cleanHandsCircuitId","type":"uint256","internalType":"uint256"},{"name":"_passportSigner","type":"address","internalType":"address"}],"stateMutability":"nonpayable"},{"type":"function","name":"MAX_FEE_BASIS_POINTS","inputs":[],"outputs":[{"name":"","type":"uint256","internalType":"uint256"}],"stateMutability":"view"},{"type":"function","name":"acceptOwnership","inputs":[],"outputs":[],"stateMutability":"nonpayable"},{"type":"function","name":"calculateFee","inputs":[{"name":"_amount","type":"uint256","internalType":"uint256"}],"outputs":[{"name":"","type":"uint256","internalType":"uint256"}],"stateMutability":"view"},{"type":"function","name":"cancelOwnershipTransfer","inputs":[],"outputs":[],"stateMutability":"nonpayable"},{"type":"function","name":"cleanHandsCircuitId","inputs":[],"outputs":[{"name":"","type":"uint256","internalType":"uint256"}],"stateMutability":"view"},{"type":"function","name":"cleanHandsNonces","inputs":[{"name":"","type":"address","internalType":"address"},{"name":"","type":"uint256","internalType":"uint256"}],"outputs":[{"name":"","type":"bool","internalType":"bool"}],"stateMutability":"view"},{"type":"function","name":"collectedFees","inputs":[],"outputs":[{"name":"","type":"uint256","internalType":"uint256"}],"stateMutability":"view"},{"type":"function","name":"depositToAztecPrivate","inputs":[{"name":"_amount","type":"uint256","internalType":"uint256"},{"name":"_secretHashForL2MessageConsumption","type":"bytes32","internalType":"bytes32"},{"name":"_cleanHands","type":"tuple","internalType":"struct TokenPortal.CleanHandsData","components":[{"name":"nonce","type":"uint256","internalType":"uint256"},{"name":"actionId","type":"uint256","internalType":"uint256"},{"name":"signature","type":"bytes","internalType":"bytes"}]},{"name":"_passport","type":"tuple","internalType":"struct TokenPortal.PassportData","components":[{"name":"maxAmount","type":"uint256","internalType":"uint256"},{"name":"nonce","type":"uint256","internalType":"uint256"},{"name":"deadline","type":"uint256","internalType":"uint256"},{"name":"signature","type":"bytes","internalType":"bytes"}]}],"outputs":[{"name":"","type":"bytes32","internalType":"bytes32"},{"name":"","type":"uint256","internalType":"uint256"}],"stateMutability":"nonpayable"},{"type":"function","name":"depositToAztecPrivateFor","inputs":[{"name":"_depositor","type":"address","internalType":"address"},{"name":"_amount","type":"uint256","internalType":"uint256"},{"name":"_secretHashForL2MessageConsumption","type":"bytes32","internalType":"bytes32"},{"name":"_cleanHands","type":"tuple","internalType":"struct TokenPortal.CleanHandsData","components":[{"name":"nonce","type":"uint256","internalType":"uint256"},{"name":"actionId","type":"uint256","internalType":"uint256"},{"name":"signature","type":"bytes","internalType":"bytes"}]},{"name":"_passport","type":"tuple","internalType":"struct TokenPortal.PassportData","components":[{"name":"maxAmount","type":"uint256","internalType":"uint256"},{"name":"nonce","type":"uint256","internalType":"uint256"},{"name":"deadline","type":"uint256","internalType":"uint256"},{"name":"signature","type":"bytes","internalType":"bytes"}]}],"outputs":[{"name":"","type":"bytes32","internalType":"bytes32"},{"name":"","type":"uint256","internalType":"uint256"}],"stateMutability":"nonpayable"},{"type":"function","name":"depositToAztecPublic","inputs":[{"name":"_to","type":"bytes32","internalType":"bytes32"},{"name":"_amount","type":"uint256","internalType":"uint256"},{"name":"_secretHash","type":"bytes32","internalType":"bytes32"}],"outputs":[{"name":"","type":"bytes32","internalType":"bytes32"},{"name":"","type":"uint256","internalType":"uint256"}],"stateMutability":"nonpayable"},{"type":"function","name":"feeBasisPoints","inputs":[],"outputs":[{"name":"","type":"uint256","internalType":"uint256"}],"stateMutability":"view"},{"type":"function","name":"feeRecipient","inputs":[],"outputs":[{"name":"","type":"address","internalType":"address"}],"stateMutability":"view"},{"type":"function","name":"getCollectedFees","inputs":[],"outputs":[{"name":"","type":"uint256","internalType":"uint256"}],"stateMutability":"view"},{"type":"function","name":"getFeeRecipient","inputs":[],"outputs":[{"name":"","type":"address","internalType":"address"}],"stateMutability":"view"},{"type":"function","name":"humanIdAttester","inputs":[],"outputs":[{"name":"","type":"address","internalType":"address"}],"stateMutability":"view"},{"type":"function","name":"inbox","inputs":[],"outputs":[{"name":"","type":"address","internalType":"contract IInbox"}],"stateMutability":"view"},{"type":"function","name":"initialize","inputs":[{"name":"_registry","type":"address","internalType":"address"},{"name":"_underlying","type":"address","internalType":"address"},{"name":"_l2Bridge","type":"bytes32","internalType":"bytes32"}],"outputs":[],"stateMutability":"nonpayable"},{"type":"function","name":"l2Bridge","inputs":[],"outputs":[{"name":"","type":"bytes32","internalType":"bytes32"}],"stateMutability":"view"},{"type":"function","name":"outbox","inputs":[],"outputs":[{"name":"","type":"address","internalType":"contract IOutbox"}],"stateMutability":"view"},{"type":"function","name":"owner","inputs":[],"outputs":[{"name":"","type":"address","internalType":"address"}],"stateMutability":"view"},{"type":"function","name":"passportNonces","inputs":[{"name":"","type":"address","internalType":"address"},{"name":"","type":"uint256","internalType":"uint256"}],"outputs":[{"name":"","type":"bool","internalType":"bool"}],"stateMutability":"view"},{"type":"function","name":"passportSigner","inputs":[],"outputs":[{"name":"","type":"address","internalType":"address"}],"stateMutability":"view"},{"type":"function","name":"pause","inputs":[],"outputs":[],"stateMutability":"nonpayable"},{"type":"function","name":"paused","inputs":[],"outputs":[{"name":"","type":"bool","internalType":"bool"}],"stateMutability":"view"},{"type":"function","name":"pendingOwner","inputs":[],"outputs":[{"name":"","type":"address","internalType":"address"}],"stateMutability":"view"},{"type":"function","name":"proposeOwnershipTransfer","inputs":[{"name":"newOwner","type":"address","internalType":"address"}],"outputs":[],"stateMutability":"nonpayable"},{"type":"function","name":"registry","inputs":[],"outputs":[{"name":"","type":"address","internalType":"contract IRegistry"}],"stateMutability":"view"},{"type":"function","name":"renounceOwnership","inputs":[],"outputs":[],"stateMutability":"nonpayable"},{"type":"function","name":"rescueToken","inputs":[{"name":"_token","type":"address","internalType":"address"},{"name":"_amount","type":"uint256","internalType":"uint256"}],"outputs":[],"stateMutability":"nonpayable"},{"type":"function","name":"rollup","inputs":[],"outputs":[{"name":"","type":"address","internalType":"contract IRollup"}],"stateMutability":"view"},{"type":"function","name":"rollupVersion","inputs":[],"outputs":[{"name":"","type":"uint256","internalType":"uint256"}],"stateMutability":"view"},{"type":"function","name":"setTrustedForwarder","inputs":[{"name":"_forwarder","type":"address","internalType":"address"},{"name":"_trusted","type":"bool","internalType":"bool"}],"outputs":[],"stateMutability":"nonpayable"},{"type":"function","name":"transferOwnership","inputs":[{"name":"newOwner","type":"address","internalType":"address"}],"outputs":[],"stateMutability":"nonpayable"},{"type":"function","name":"trustedForwarders","inputs":[{"name":"","type":"address","internalType":"address"}],"outputs":[{"name":"","type":"bool","internalType":"bool"}],"stateMutability":"view"},{"type":"function","name":"underlying","inputs":[],"outputs":[{"name":"","type":"address","internalType":"contract IERC20"}],"stateMutability":"view"},{"type":"function","name":"unpause","inputs":[],"outputs":[],"stateMutability":"nonpayable"},{"type":"function","name":"updateAttestationConfig","inputs":[{"name":"_attester","type":"address","internalType":"address"},{"name":"_circuitId","type":"uint256","internalType":"uint256"},{"name":"_signer","type":"address","internalType":"address"}],"outputs":[],"stateMutability":"nonpayable"},{"type":"function","name":"updateFee","inputs":[{"name":"_newFeeBasisPoints","type":"uint256","internalType":"uint256"}],"outputs":[],"stateMutability":"nonpayable"},{"type":"function","name":"updateFeeRecipient","inputs":[{"name":"_newFeeRecipient","type":"address","internalType":"address"}],"outputs":[],"stateMutability":"nonpayable"},{"type":"function","name":"verifyCleanHandsSignature","inputs":[{"name":"nonce","type":"uint256","internalType":"uint256"},{"name":"circuitId","type":"uint256","internalType":"uint256"},{"name":"actionId","type":"uint256","internalType":"uint256"},{"name":"userAddress","type":"address","internalType":"address"},{"name":"signature","type":"bytes","internalType":"bytes"}],"outputs":[{"name":"","type":"bool","internalType":"bool"}],"stateMutability":"view"},{"type":"function","name":"verifyPassportSignature","inputs":[{"name":"maxAmount","type":"uint256","internalType":"uint256"},{"name":"nonce","type":"uint256","internalType":"uint256"},{"name":"deadline","type":"uint256","internalType":"uint256"},{"name":"signature","type":"bytes","internalType":"bytes"}],"outputs":[{"name":"","type":"bool","internalType":"bool"}],"stateMutability":"view"},{"type":"function","name":"withdraw","inputs":[{"name":"_recipient","type":"address","internalType":"address"},{"name":"_amount","type":"uint256","internalType":"uint256"},{"name":"_withCaller","type":"bool","internalType":"bool"},{"name":"_l2BlockNumber","type":"uint256","internalType":"uint256"},{"name":"_leafIndex","type":"uint256","internalType":"uint256"},{"name":"_path","type":"bytes32[]","internalType":"bytes32[]"}],"outputs":[],"stateMutability":"nonpayable"},{"type":"function","name":"withdrawFees","inputs":[],"outputs":[],"stateMutability":"nonpayable"},{"type":"event","name":"AttestationConfigUpdated","inputs":[{"name":"attester","type":"address","indexed":true,"internalType":"address"},{"name":"circuitId","type":"uint256","indexed":false,"internalType":"uint256"},{"name":"signer","type":"address","indexed":true,"internalType":"address"}],"anonymous":false},{"type":"event","name":"DepositToAztecPrivate","inputs":[{"name":"amount","type":"uint256","indexed":false,"internalType":"uint256"},{"name":"fee","type":"uint256","indexed":false,"internalType":"uint256"},{"name":"secretHash","type":"bytes32","indexed":false,"internalType":"bytes32"},{"name":"key","type":"bytes32","indexed":false,"internalType":"bytes32"},{"name":"index","type":"uint256","indexed":false,"internalType":"uint256"}],"anonymous":false},{"type":"event","name":"DepositToAztecPublic","inputs":[{"name":"to","type":"bytes32","indexed":true,"internalType":"bytes32"},{"name":"amount","type":"uint256","indexed":false,"internalType":"uint256"},{"name":"fee","type":"uint256","indexed":false,"internalType":"uint256"},{"name":"secretHash","type":"bytes32","indexed":false,"internalType":"bytes32"},{"name":"key","type":"bytes32","indexed":false,"internalType":"bytes32"},{"name":"index","type":"uint256","indexed":false,"internalType":"uint256"}],"anonymous":false},{"type":"event","name":"FeeRecipientUpdated","inputs":[{"name":"newFeeRecipient","type":"address","indexed":true,"internalType":"address"}],"anonymous":false},{"type":"event","name":"FeeUpdated","inputs":[{"name":"newFeeBasisPoints","type":"uint256","indexed":false,"internalType":"uint256"}],"anonymous":false},{"type":"event","name":"FeesWithdrawn","inputs":[{"name":"recipient","type":"address","indexed":true,"internalType":"address"},{"name":"amount","type":"uint256","indexed":false,"internalType":"uint256"}],"anonymous":false},{"type":"event","name":"Initialized","inputs":[{"name":"registry","type":"address","indexed":true,"internalType":"address"},{"name":"underlying","type":"address","indexed":true,"internalType":"address"},{"name":"l2Bridge","type":"bytes32","indexed":false,"internalType":"bytes32"}],"anonymous":false},{"type":"event","name":"OwnershipTransferCancelled","inputs":[{"name":"currentOwner","type":"address","indexed":true,"internalType":"address"}],"anonymous":false},{"type":"event","name":"OwnershipTransferProposed","inputs":[{"name":"previousOwner","type":"address","indexed":true,"internalType":"address"},{"name":"newOwner","type":"address","indexed":true,"internalType":"address"}],"anonymous":false},{"type":"event","name":"OwnershipTransferStarted","inputs":[{"name":"previousOwner","type":"address","indexed":true,"internalType":"address"},{"name":"newOwner","type":"address","indexed":true,"internalType":"address"}],"anonymous":false},{"type":"event","name":"OwnershipTransferred","inputs":[{"name":"previousOwner","type":"address","indexed":true,"internalType":"address"},{"name":"newOwner","type":"address","indexed":true,"internalType":"address"}],"anonymous":false},{"type":"event","name":"Paused","inputs":[{"name":"account","type":"address","indexed":false,"internalType":"address"}],"anonymous":false},{"type":"event","name":"TokensRescued","inputs":[{"name":"token","type":"address","indexed":true,"internalType":"address"},{"name":"to","type":"address","indexed":true,"internalType":"address"},{"name":"amount","type":"uint256","indexed":false,"internalType":"uint256"}],"anonymous":false},{"type":"event","name":"TrustedForwarderUpdated","inputs":[{"name":"forwarder","type":"address","indexed":true,"internalType":"address"},{"name":"trusted","type":"bool","indexed":false,"internalType":"bool"}],"anonymous":false},{"type":"event","name":"Unpaused","inputs":[{"name":"account","type":"address","indexed":false,"internalType":"address"}],"anonymous":false},{"type":"error","name":"AlreadyInitialized","inputs":[]},{"type":"error","name":"AmountExceedsLimit","inputs":[]},{"type":"error","name":"CleanHandsNonceUsed","inputs":[]},{"type":"error","name":"ECDSAInvalidSignature","inputs":[]},{"type":"error","name":"ECDSAInvalidSignatureLength","inputs":[{"name":"length","type":"uint256","internalType":"uint256"}]},{"type":"error","name":"ECDSAInvalidSignatureS","inputs":[{"name":"s","type":"bytes32","internalType":"bytes32"}]},{"type":"error","name":"EnforcedPause","inputs":[]},{"type":"error","name":"ExpectedPause","inputs":[]},{"type":"error","name":"FeeTooHigh","inputs":[]},{"type":"error","name":"InvalidAddress","inputs":[]},{"type":"error","name":"InvalidPassportSignature","inputs":[]},{"type":"error","name":"InvalidVerification","inputs":[]},{"type":"error","name":"NoFeesToWithdraw","inputs":[]},{"type":"error","name":"NoPendingOwner","inputs":[]},{"type":"error","name":"NotTrustedForwarder","inputs":[]},{"type":"error","name":"OwnableInvalidOwner","inputs":[{"name":"owner","type":"address","internalType":"address"}]},{"type":"error","name":"OwnableUnauthorizedAccount","inputs":[{"name":"account","type":"address","internalType":"address"}]},{"type":"error","name":"PassportNonceUsed","inputs":[]},{"type":"error","name":"ReentrancyGuardReentrantCall","inputs":[]},{"type":"error","name":"SafeERC20FailedOperation","inputs":[{"name":"token","type":"address","internalType":"address"}]},{"type":"error","name":"Unauthorized","inputs":[]}],"bytecode":{"object":"0x60a06040523461003f57610020610014610170565b949390939291926102c2565b610028610044565b6145686106458239608051816129c4015261456890f35b61004a565b60405190565b5f80fd5b601f801991011690565b634e487b7160e01b5f52604160045260245ffd5b906100769061004e565b810190811060018060401b0382111761008e57604052565b610058565b906100a661009f610044565b928361006c565b565b5f80fd5b60018060a01b031690565b6100c0906100ac565b90565b6100cc816100b7565b036100d357565b5f80fd5b905051906100e4826100c3565b565b90565b6100f2816100e6565b036100f957565b5f80fd5b9050519061010a826100e9565b565b909160c08284031261016b57610124835f84016100d7565b9261013281602085016100d7565b9261014082604083016100fd565b9261016861015184606085016100d7565b9361015f81608086016100fd565b9360a0016100d7565b90565b6100a8565b61018e614bad8038038061018381610093565b92833981019061010c565b909192939495565b90565b90565b6101b06101ab6101b592610196565b610199565b6100ac565b90565b6101c19061019c565b90565b5f0190565b90565b6101e06101db6101e5926101c9565b610199565b6100e6565b90565b6101f36103e86101cc565b90565b5f1b90565b9061020c60018060a01b03916101f6565b9181191691161790565b61022a61022561022f926100ac565b610199565b6100ac565b90565b61023b90610216565b90565b61024790610232565b90565b90565b9061026261025d6102699261023e565b61024a565b82546101fb565b9055565b906102795f19916101f6565b9181191691161790565b61029761029261029c926100e6565b610199565b6100e6565b90565b90565b906102b76102b26102be92610283565b61029f565b825461026d565b9055565b6102d190959495929192610402565b6102d961052b565b608052816102f76102f16102ec5f6101b8565b6100b7565b916100b7565b146103e6578061031661031061030b6101e8565b6100e6565b916100e6565b116103ca5761032961033092601261024d565b60116102a2565b8061034b6103456103405f6101b8565b6100b7565b916100b7565b146103ae578161036b6103656103605f6101b8565b6100b7565b916100b7565b14610392576103909261038261038992600b61024d565b600c6102a2565b600d61024d565b565b5f63e6c4247b60e01b8152806103aa600482016101c4565b0390fd5b5f63e6c4247b60e01b8152806103c6600482016101c4565b0390fd5b5f63cd4e616760e01b8152806103e2600482016101c4565b0390fd5b5f63e6c4247b60e01b8152806103fe600482016101c4565b0390fd5b61040b9061042f565b565b610416906100b7565b9052565b919061042d905f6020850194019061040d565b565b6104376104b5565b8061045261044c6104475f6101b8565b6100b7565b916100b7565b14610462576104609061059c565b565b61048561046e5f6101b8565b5f918291631e4fbdf760e01b83526004830161041a565b0390fd5b90565b6104a061049b6104a592610489565b610199565b6100e6565b90565b6104b2600161048c565b90565b6104bd61051b565b6104cf6104c86104a8565b60016102a2565b565b906104dd60ff916101f6565b9181191691161790565b151590565b6104f5906104e7565b90565b90565b9061051061050b610517926104ec565b6104f8565b82546104d1565b9055565b6105255f5f6104fb565b565b5f90565b610533610527565b503390565b1b90565b9190600861055c91029161055660018060a01b0384610538565b92610538565b9181191691161790565b919061057c6105776105849361023e565b61024a565b90835461053c565b9055565b61059a91610594610527565b91610566565b565b6105b0906105ab5f6003610588565b6105e3565b565b5f1c90565b60018060a01b031690565b6105ce6105d3916105b2565b6105b7565b90565b6105e090546105c2565b90565b6105ed60026105d6565b6105f882600261024d565b9061062c6106267f8be0079c531659141344cd1fd0a4f28419497f9722a3daafe3b4186f6b6457e09361023e565b9161023e565b91610635610044565b8061063f816101c4565b0390a356fe60806040526004361015610013575b61169c565b61001d5f356102cc565b80631945e308146102c7578063202db826146102c257806321040fc3146102bd57806323452b9c146102b8578063284b5dc6146102b357806333f3d628146102ae5780633ba57310146102a95780633f4ba83a146102a4578063469048401461029f578063476343ee1461029a5780634befe2ca146102955780634ccb20c01461029057806354776bb91461028b5780635c975abb146102865780636133f985146102815780636f307dc31461027c578063715018a61461027757806379ba5097146102725780637b1039991461026d5780638456cb59146102685780638da5cb5b146102635780639003adfe1461025e5780639012c4a81461025957806399a5d74714610254578063a491a4fc1461024f578063a9b6e9481461024a578063ab3d25ac14610245578063ae1f6aaf14610240578063b08938871461023b578063b0a00e1514610236578063b8606eef14610231578063cb23bcb51461022c578063ce11e6ab14610227578063d1a7900814610222578063d54a8d181461021d578063dcb1154d14610218578063e30c397814610213578063e691d03b1461020e578063eb50136f14610209578063f160d36914610204578063f2fde38b146101ff578063f9148fa1146101fa5763fb0e722b0361000e57611667565b6115c3565b61156f565b61153c565b611507565b6114c4565b611462565b611428565b61137c565b611347565b611303565b611260565b6111bd565b611179565b611135565b6110f1565b61106e565b610fcb565b610ee1565b610e4d565b610e1a565b610dc7565b610d5a565b610d27565b610cf2565b610c51565b610c1e565b610be9565b610b47565b610ad8565b610aa3565b6109df565b6109aa565b610927565b6108f2565b610859565b61081f565b610705565b6106a1565b6105d1565b61058f565b61053d565b6104c5565b60e01c90565b60405190565b5f80fd5b5f80fd5b5f80fd5b90565b6102f0816102e4565b036102f757565b5f80fd5b90503590610308826102e7565b565b60018060a01b031690565b61031e9061030a565b90565b61032a81610315565b0361033157565b5f80fd5b9050359061034282610321565b565b5f80fd5b5f80fd5b601f801991011690565b634e487b7160e01b5f52604160045260245ffd5b906103749061034c565b810190811067ffffffffffffffff82111761038e57604052565b610356565b906103a661039f6102d2565b928361036a565b565b67ffffffffffffffff81116103c6576103c260209161034c565b0190565b610356565b90825f939282370152565b909291926103eb6103e6826103a8565b610393565b9381855260208501908284011161040757610405926103cb565b565b610348565b9080601f8301121561042a57816020610427933591016103d6565b90565b610344565b91909160a08184031261049957610448835f83016102fb565b9261045681602084016102fb565b9261046482604085016102fb565b926104728360608301610335565b92608082013567ffffffffffffffff811161049457610491920161040c565b90565b6102e0565b6102dc565b151590565b6104ac9061049e565b9052565b91906104c3905f602085019401906104a3565b565b346104f9576104f56104e46104db36600461042f565b939290926117cf565b6104ec6102d2565b918291826104b0565b0390f35b6102d8565b909160608284031261053357610530610519845f8501610335565b9361052781602086016102fb565b93604001610335565b90565b6102dc565b5f0190565b3461056c576105566105503660046104fe565b91611a23565b61055e6102d2565b8061056881610538565b0390f35b6102d8565b9060208282031261058a57610587915f01610335565b90565b6102dc565b346105bd576105a76105a2366004610571565b611adc565b6105af6102d2565b806105b981610538565b0390f35b6102d8565b5f9103126105cc57565b6102dc565b346105ff576105e13660046105c2565b6105e9611b96565b6105f16102d2565b806105fb81610538565b0390f35b6102d8565b90565b61061081610604565b0361061757565b5f80fd5b9050359061062882610607565b565b909160608284031261065f5761065c610645845f850161061b565b9361065381602086016102fb565b9360400161061b565b90565b6102dc565b61066d90610604565b9052565b61067a906102e4565b9052565b91602061069f92949361069860408201965f830190610664565b0190610671565b565b346106d3576106ba6106b436600461062a565b9161209e565b906106cf6106c66102d2565b9283928361067e565b0390f35b6102d8565b919060408382031261070057806106f46106fd925f8601610335565b936020016102fb565b90565b6102dc565b346107345761071e6107183660046106d8565b90612199565b6107266102d2565b8061073081610538565b0390f35b6102d8565b6107428161049e565b0361074957565b5f80fd5b9050359061075a82610739565b565b5f80fd5b5f80fd5b909182601f8301121561079e5781359167ffffffffffffffff831161079957602001926020830284011161079457565b610760565b61075c565b610344565b9160c08383031261081a576107ba825f8501610335565b926107c883602083016102fb565b926107d6816040840161074d565b926107e482606085016102fb565b926107f283608083016102fb565b9260a082013567ffffffffffffffff8111610815576108119201610764565b9091565b6102e0565b6102dc565b346108545761083e6108323660046107a3565b95949094939193612575565b6108466102d2565b8061085081610538565b0390f35b6102d8565b34610887576108693660046105c2565b6108716125a2565b6108796102d2565b8061088381610538565b0390f35b6102d8565b1c90565b60018060a01b031690565b6108ab9060086108b0930261088c565b610890565b90565b906108be915461089b565b90565b6108cd60125f906108b3565b90565b6108d990610315565b9052565b91906108f0905f602085019401906108d0565b565b34610922576109023660046105c2565b61091e61090d6108c1565b6109156102d2565b918291826108dd565b0390f35b6102d8565b34610955576109373660046105c2565b61093f612695565b6109476102d2565b8061095181610538565b0390f35b6102d8565b90565b90565b61097461096f6109799261095a565b61095d565b6102e4565b90565b6109876103e8610960565b90565b61099261097c565b90565b91906109a8905f60208501940190610671565b565b346109da576109ba3660046105c2565b6109d66109c561098a565b6109cd6102d2565b91829182610995565b0390f35b6102d8565b34610a0f576109ef3660046105c2565b610a0b6109fa6126a3565b610a026102d2565b918291826108dd565b0390f35b6102d8565b610a28610a23610a2d9261030a565b61095d565b61030a565b90565b610a3990610a14565b90565b610a4590610a30565b90565b90610a5290610a3c565b5f5260205260405f2090565b60ff1690565b610a74906008610a79930261088c565b610a5e565b90565b90610a879154610a64565b90565b610aa090610a9b6010915f92610a48565b610a7c565b90565b34610ad357610acf610abe610ab9366004610571565b610a8a565b610ac66102d2565b918291826104b0565b0390f35b6102d8565b34610b0857610ae83660046105c2565b610b04610af36126da565b610afb6102d2565b918291826104b0565b0390f35b6102d8565b9091606082840312610b4257610b3f610b28845f8501610335565b93610b368160208601610335565b9360400161061b565b90565b6102dc565b34610b7657610b60610b5a366004610b0d565b916129b1565b610b686102d2565b80610b7281610538565b0390f35b6102d8565b60018060a01b031690565b610b96906008610b9b930261088c565b610b7b565b90565b90610ba99154610b86565b90565b610bb860055f90610b9e565b90565b610bc490610a30565b90565b610bd090610bbb565b9052565b9190610be7905f60208501940190610bc7565b565b34610c1957610bf93660046105c2565b610c15610c04610bac565b610c0c6102d2565b91829182610bd4565b0390f35b6102d8565b34610c4c57610c2e3660046105c2565b610c36612dd3565b610c3e6102d2565b80610c4881610538565b0390f35b6102d8565b34610c7f57610c613660046105c2565b610c69612ddd565b610c716102d2565b80610c7b81610538565b0390f35b6102d8565b60018060a01b031690565b610c9f906008610ca4930261088c565b610c84565b90565b90610cb29154610c8f565b90565b610cc160045f90610ca7565b90565b610ccd90610a30565b90565b610cd990610cc4565b9052565b9190610cf0905f60208501940190610cd0565b565b34610d2257610d023660046105c2565b610d1e610d0d610cb5565b610d156102d2565b91829182610cdd565b0390f35b6102d8565b34610d5557610d373660046105c2565b610d3f612e03565b610d476102d2565b80610d5181610538565b0390f35b6102d8565b34610d8a57610d6a3660046105c2565b610d86610d75612e0d565b610d7d6102d2565b918291826108dd565b0390f35b6102d8565b90565b610da2906008610da7930261088c565b610d8f565b90565b90610db59154610d92565b90565b610dc460135f90610daa565b90565b34610df757610dd73660046105c2565b610df3610de2610db8565b610dea6102d2565b91829182610995565b0390f35b6102d8565b90602082820312610e1557610e12915f016102fb565b90565b6102dc565b34610e4857610e32610e2d366004610dfc565b612eb7565b610e3a6102d2565b80610e4481610538565b0390f35b6102d8565b34610e7d57610e79610e68610e63366004610dfc565b612f4c565b610e706102d2565b91829182610995565b0390f35b6102d8565b90608082820312610edc57610e99815f84016102fb565b92610ea782602085016102fb565b92610eb583604083016102fb565b92606082013567ffffffffffffffff8111610ed757610ed4920161040c565b90565b6102e0565b6102dc565b34610f1557610f11610f00610ef7366004610e82565b92919091612f80565b610f086102d2565b918291826104b0565b0390f35b6102d8565b5f80fd5b90816060910312610f2c5790565b610f1a565b90816080910312610f3f5790565b610f1a565b91909160a081840312610fc657610f5d835f8301610335565b92610f6b81602084016102fb565b92610f79826040850161061b565b92606081013567ffffffffffffffff8111610fc15783610f9a918301610f1e565b92608082013567ffffffffffffffff8111610fbc57610fb99201610f31565b90565b6102e0565b6102e0565b6102dc565b3461100057610fe7610fde366004610f44565b939290926131ee565b90610ffc610ff36102d2565b9283928361067e565b0390f35b6102d8565b9061100f90610a3c565b5f5260205260405f2090565b61102f61102a611034926102e4565b61095d565b6102e4565b90565b906110419061101b565b5f5260205260405f2090565b61106661106b92611061600e935f94611005565b611037565b610a7c565b90565b3461109f5761109b61108a6110843660046106d8565b9061104d565b6110926102d2565b918291826104b0565b0390f35b6102d8565b90565b6110b79060086110bc930261088c565b6110a4565b90565b906110ca91546110a7565b90565b6110d960095f906110bf565b90565b91906110ef905f60208501940190610664565b565b34611121576111013660046105c2565b61111d61110c6110cd565b6111146102d2565b918291826110dc565b0390f35b6102d8565b611132600a5f90610daa565b90565b34611165576111453660046105c2565b611161611150611126565b6111586102d2565b91829182610995565b0390f35b6102d8565b611176600b5f906108b3565b90565b346111a9576111893660046105c2565b6111a561119461116a565b61119c6102d2565b918291826108dd565b0390f35b6102d8565b6111ba60115f90610daa565b90565b346111ed576111cd3660046105c2565b6111e96111d86111ae565b6111e06102d2565b91829182610995565b0390f35b6102d8565b60018060a01b031690565b61120d906008611212930261088c565b6111f2565b90565b9061122091546111fd565b90565b61122f60065f90611215565b90565b61123b90610a30565b90565b61124790611232565b9052565b919061125e905f6020850194019061123e565b565b34611290576112703660046105c2565b61128c61127b611223565b6112836102d2565b9182918261124b565b0390f35b6102d8565b60018060a01b031690565b6112b09060086112b5930261088c565b611295565b90565b906112c391546112a0565b90565b6112d260075f906112b8565b90565b6112de90610a30565b90565b6112ea906112d5565b9052565b9190611301905f602085019401906112e1565b565b34611333576113133660046105c2565b61132f61131e6112c6565b6113266102d2565b918291826112ee565b0390f35b6102d8565b611344600c5f90610daa565b90565b34611377576113573660046105c2565b611373611362611338565b61136a6102d2565b91829182610995565b0390f35b6102d8565b346113ac5761138c3660046105c2565b6113a8611397613210565b61139f6102d2565b91829182610995565b0390f35b6102d8565b90608082820312611423576113c8815f84016102fb565b926113d6826020850161061b565b92604081013567ffffffffffffffff811161141e57836113f7918301610f1e565b92606082013567ffffffffffffffff8111611419576114169201610f31565b90565b6102e0565b6102e0565b6102dc565b3461145d5761144461143b3660046113b1565b9291909161343f565b906114596114506102d2565b9283928361067e565b0390f35b6102d8565b34611492576114723660046105c2565b61148e61147d613460565b6114856102d2565b918291826108dd565b0390f35b6102d8565b91906040838203126114bf57806114b36114bc925f8601610335565b9360200161074d565b90565b6102dc565b346114f3576114dd6114d7366004611497565b90613564565b6114e56102d2565b806114ef81610538565b0390f35b6102d8565b611504600d5f906108b3565b90565b34611537576115173660046105c2565b6115336115226114f8565b61152a6102d2565b918291826108dd565b0390f35b6102d8565b3461156a5761155461154f366004610571565b61360c565b61155c6102d2565b8061156681610538565b0390f35b6102d8565b3461159d57611587611582366004610571565b613689565b61158f6102d2565b8061159981610538565b0390f35b6102d8565b6115bb6115c0926115b6600f935f94611005565b611037565b610a7c565b90565b346115f4576115f06115df6115d93660046106d8565b906115a2565b6115e76102d2565b918291826104b0565b0390f35b6102d8565b60018060a01b031690565b611614906008611619930261088c565b6115f9565b90565b906116279154611604565b90565b61163660085f9061161c565b90565b61164290610a30565b90565b61164e90611639565b9052565b9190611665905f60208501940190611645565b565b34611697576116773660046105c2565b61169361168261162a565b61168a6102d2565b91829182611652565b0390f35b6102d8565b5f80fd5b5f90565b90565b6116b36116b8916102e4565b6116a4565b9052565b60601b90565b6116cb906116bc565b90565b6116d7906116c2565b90565b6116e66116eb91610315565b6116ce565b9052565b9261171c602061172494611714828861170c60149b9a83996116a7565b0180926116a7565b0180926116a7565b0180926116da565b0190565b60200190565b5190565b905090565b5f7f19457468657265756d205369676e6564204d6573736167653a0a333200000000910152565b61176a601c8092611732565b61177381611737565b0190565b90565b61178661178b91610604565b611777565b9052565b906117a561179e60209361175e565b809261177a565b0190565b5f1c90565b6117ba6117bf916117a9565b610890565b90565b6117cc90546117ae565b90565b916118116118479261180261185f9796611838966117eb6116a0565b5092946117f66102d2565b958694602086016116ef565b6020820181038252038261036a565b61182361181d8261172e565b91611728565b2061182c6102d2565b9283916020830161178f565b6020820181038252038261036a565b6118596118538261172e565b91611728565b20613694565b61187a61187461186f600b6117c2565b610315565b91610315565b1490565b90611891929161188c6136b6565b61193a565b565b90565b6118aa6118a56118af92611893565b61095d565b61030a565b90565b6118bb90611896565b90565b5f1b90565b906118d460018060a01b03916118be565b9181191691161790565b90565b906118f66118f16118fd92610a3c565b6118de565b82546118c3565b9055565b9061190d5f19916118be565b9181191691161790565b90565b9061192f61192a6119369261101b565b611917565b8254611901565b9055565b8061195561194f61194a5f6118b2565b610315565b91610315565b14611a07578261197561196f61196a5f6118b2565b610315565b91610315565b146119eb5761198581600b6118e1565b61199082600c61191a565b61199b83600d6118e1565b9091906119e66119d46119ce7f6d32598dc0f68571384420cdd4e5c4d44706577bd1da4d45aacac8c0e98f23d193610a3c565b93610a3c565b936119dd6102d2565b91829182610995565b0390a3565b5f63e6c4247b60e01b815280611a0360048201610538565b0390fd5b5f63e6c4247b60e01b815280611a1f60048201610538565b0390fd5b90611a2e929161187e565b565b611a4190611a3c6136b6565b611a43565b565b80611a5e611a58611a535f6118b2565b610315565b91610315565b14611ac057611a6b612e0d565b611a7482613689565b90611aa8611aa27ff4e75b79500ab730f8a026ed3cba6d55331bcb64c9e9f60c548e371356e5e3c093610a3c565b91610a3c565b91611ab16102d2565b80611abb81610538565b0390a3565b5f63e6c4247b60e01b815280611ad860048201610538565b0390fd5b611ae590611a30565b565b611aef6136b6565b611af7611af9565b565b611b01613460565b611b1b611b15611b105f6118b2565b610315565b91610315565b14611b7a57611b30611b2b612e0d565b613768565b611b38612e0d565b611b627f48a87225523c5fd46bf3b7da3223e5525f77b8136a962695d701a24699bef8f391610a3c565b90611b6b6102d2565b80611b7581610538565b0390a2565b5f633e31d61b60e11b815280611b9260048201610538565b0390fd5b611b9e611ae7565b565b5f90565b5f90565b90611bbd94939291611bb861377e565b611bc1565b9091565b90611bd694939291611bd16137d4565b611ecd565b9091611be0613858565b565b611bf6611bf1611bfb92611893565b61095d565b6102e4565b90565b60209181520190565b5f7f416d6f756e74206d7573742062652067726561746572207468616e207a65726f910152565b611c3a60208092611bfe565b611c4381611c07565b0190565b611c5c9060208101905f818303910152611c2e565b90565b15611c6657565b611c6e6102d2565b62461bcd60e51b815280611c8460048201611c47565b0390fd5b634e487b7160e01b5f52601160045260245ffd5b611cab611cb1919392936102e4565b926102e4565b8203918211611cbc57565b611c88565b611ccd611cd2916117a9565b6110a4565b90565b611cdf9054611cc1565b90565b611cee611cf3916117a9565b610d8f565b90565b611d009054611ce2565b90565b611d0d6040610393565b90565b90611d1a90610604565b9052565b90611d28906102e4565b9052565b611d38611d3d916117a9565b610b7b565b90565b611d4a9054611d2c565b90565b611d5690610a30565b90565b611d68611d6e919392936102e4565b926102e4565b8201809211611d7957565b611c88565b611d8a611d8f916117a9565b6115f9565b90565b611d9c9054611d7e565b90565b5f80fd5b60e01b90565b90505190611db682610607565b565b90505190611dc5826102e7565b565b9190604083820312611def5780611de3611dec925f8601611da9565b93602001611db8565b90565b6102dc565b611dfd90610604565b9052565b611e0a906102e4565b9052565b90602080611e3093611e265f8201515f860190611df4565b0151910190611e01565b565b606090611e5b611e629496959396611e5160808401985f850190611e0e565b6040830190610664565b0190610664565b565b611e6c6102d2565b3d5f823e3d90fd5b611e7d90610604565b90565b90959492611ecb94611eba611ec492611eb0608096611ea660a088019c5f890190610671565b6020870190610671565b6040850190610664565b6060830190610664565b0190610671565b565b949391945050611eef82611ee9611ee35f611be2565b916102e4565b11611c5f565b611ef882612f4c565b90611f04838390611c9c565b906040611f116009611cd5565b611f3b611f1e600a611cf6565b611f32611f29611d03565b935f8501611d10565b60208301611d1e565b94611fa4611f8089611f7b8791611f6c611f536102d2565b93849260046020850163bc6a9bd360e01b81520161067e565b6020820181038252038261036a565b6139b5565b91611f8b6005611d40565b90611f94613a1f565b611f9d30611d4d565b9192613a8f565b611fc1611fba86611fb56013611cf6565b611d59565b601361191a565b611fd3611fce6008611d92565b611639565b611ff75f631f6d510b98939861200287611feb6102d2565b9b8c9788968795611da3565b855260048501611e32565b03925af18015612099575f80959091612066575b5093959192909261205f85889061204d7f71591b8502d8aa9640fa219fbfb8e23ffcd2a75edbd923826ef3ef77f6da4a8b96611e74565b966120566102d2565b95869586611e80565b0390a29190565b905061208a91945060403d8111612092575b612082818361036a565b810190611dc7565b93905f612016565b503d612078565b611e64565b906120ba92916120ac611ba0565b6120b4611ba4565b90611ba8565b9091565b906120d0916120cb6136b6565b6120ea565b565b6120db90610a14565b90565b6120e7906120d2565b90565b806121056120ff6120fa5f6118b2565b610315565b91610315565b1461217d57612125612116826120de565b61211e612e0d565b8491613b02565b9061212e612e0d565b90916121786121666121607f77023e19c7343ad491fd706c36335ca0e738340a91f29b1fd81e2673d44896c493610a3c565b93610a3c565b9361216f6102d2565b91829182610995565b0390a3565b5f63e6c4247b60e01b81528061219560048201610538565b0390fd5b906121a3916120be565b565b906121bc9695949392916121b761377e565b6121be565b565b906121d59695949392916121d06137d4565b612384565b6121dd613858565b565b6121e96040610393565b90565b906121f690610315565b9052565b60409061222361222a949695939661221960608401985f8501906108d0565b6020830190610671565b01906108d0565b565b6122366060610393565b90565b52565b52565b61224b612250916117a9565b611295565b90565b61225d905461223f565b90565b5f91031261226a57565b6102dc565b90602080612291936122875f8201515f860190611df4565b0151910190611e01565b565b61229c90610315565b9052565b906020806122c2936122b85f8201515f860190612293565b0151910190611e01565b565b90608060406122f8936122dd5f8201515f86019061226f565b6122ee6020820151838601906122a0565b0151910190611df4565b565b60209181520190565b5f80fd5b9037565b909182612317916122fa565b9160018060fb1b03811161233a57829160206123369202938491612307565b0190565b612303565b909391612381959361236a612374926123606101008601985f8701906122c4565b60a0850190610671565b60c0830190610671565b60e081850391015261230b565b90565b949291959093956123a7856123a161239b5f611be2565b916102e4565b11611c5f565b6124846123b46009611cd5565b916123df6123c2600a611cf6565b6123d66123cd611d03565b955f8701611d10565b60208501611d1e565b61247b61245d6123ee30611d4d565b92612410466124076123fe6121df565b965f88016121ec565b60208601611d1e565b6124588b8b925f1461256457612449612427613a1f565b5b6124306102d2565b948593600460208601631a4ca37b60e21b8152016121fa565b6020820181038252038261036a565b6139b5565b9161247261246961222c565b955f8701612239565b6020850161223c565b60408301611d10565b6124b56124ae61249e61249688612f4c565b978890611c9c565b966124a96013611cf6565b611d59565b601361191a565b6124c76124c26007612253565b6112d5565b91637fb34967919397949091833b1561255f576125056124fa935f979388946124ee6102d2565b9c8d998a988997611da3565b87526004870161233f565b03925af192831561255a5761252c9361252e575b506125246005611d40565b919091613b02565b565b61254d905f3d8111612553575b612545818361036a565b810190612260565b5f612519565b503d61253b565b611e64565b611d9f565b6124496125705f6118b2565b612428565b906125849695949392916121a5565b565b61258e6136b6565b612596612598565b565b6125a0613baf565b565b6125aa612586565b565b6125b46136b6565b6125bc6125be565b565b6125c66137d4565b6125ce6125d8565b6125d6613858565b565b6125e26013611cf6565b806125f56125ef5f611be2565b916102e4565b146126795761260d6126065f611be2565b601361191a565b61262b61261a6005611d40565b61262460126117c2565b8391613b02565b61263560126117c2565b6126746126627fc0819c13be868895eb93e40eaceb96de976442fa1d404e5c55f14bb65a8c489a92610a3c565b9261266b6102d2565b91829182610995565b0390a2565b5f630d00db4d60e31b81528061269160048201610538565b0390fd5b61269d6125ac565b565b5f90565b6126ab61269f565b506126b660126117c2565b90565b6126c56126ca916117a9565b610a5e565b90565b6126d790546126b9565b90565b6126e26116a0565b506126ec5f6126cd565b90565b6126fb612700916117a9565b610c84565b90565b61270d90546126ef565b90565b61272461271f61272992611893565b6118be565b610604565b90565b61273590610a14565b90565b6127419061272c565b90565b61274d9061272c565b90565b90565b9061276861276361276f92612744565b612750565b82546118c3565b9055565b61277c906120d2565b90565b90565b9061279761279261279e92612773565b61277f565b82546118c3565b9055565b6127ab906117a9565b90565b906127c36127be6127ca92611e74565b6127a2565b8254611901565b9055565b6127d790610315565b90565b6127e3816127ce565b036127ea57565b5f80fd5b905051906127fb826127da565b565b9060208282031261281657612813915f016127ee565b90565b6102dc565b61282490610a14565b90565b6128309061281b565b90565b61283c9061281b565b90565b90565b9061285761285261285e92612833565b61283f565b82546118c3565b9055565b61286e612873916117a9565b6111f2565b90565b6128809054612862565b90565b61288c90610315565b90565b61289881612883565b0361289f57565b5f80fd5b905051906128b08261288f565b565b906020828203126128cb576128c8915f016128a3565b90565b6102dc565b6128d990610a14565b90565b6128e5906128d0565b90565b90565b906129006128fb612907926128dc565b6128e8565b82546118c3565b9055565b61291490610315565b90565b6129208161290b565b0361292757565b5f80fd5b9050519061293882612917565b565b9060208282031261295357612950915f0161292b565b90565b6102dc565b61296190610a14565b90565b61296d90612958565b90565b90565b9061298861298361298f92612964565b612970565b82546118c3565b9055565b906020828203126129ac576129a9915f01611db8565b90565b6102dc565b9190916129bc613a1f565b6129ee6129e87f0000000000000000000000000000000000000000000000000000000000000000610315565b91610315565b03612d9357612a05612a006004612703565b610cc4565b612a1f612a19612a145f6118b2565b610315565b91610315565b03612d785780612a3f612a39612a345f6118b2565b610315565b91610315565b148015612d56575b8015612d34575b612d1857612a65612a5e82612738565b6004612753565b612a78612a71846120de565b6005612782565b612a838260096127ae565b612ab06020612a9a612a956004612703565b610cc4565b63971b0e6b90612aa86102d2565b938492611da3565b82528180612ac060048201610538565b03915afa8015612d1357612ae2612ae791612aee935f91612ce5575b50611232565b612827565b6006612842565b612b1b6020612b05612b006006612876565b611232565b63a32fbb7b90612b136102d2565b938492611da3565b82528180612b2b60048201610538565b03915afa8015612ce057612b48915f91612cb2575b5060076128eb565b612b756020612b5f612b5a6006612876565b611232565b63368c093c90612b6d6102d2565b938492611da3565b82528180612b8560048201610538565b03915afa8015612cad57612ba2915f91612c7f575b506008612973565b612bcf6020612bb9612bb46006612876565b611232565b630d8e6e2c90612bc76102d2565b938492611da3565b82528180612bdf60048201610538565b03915afa8015612c7a57612bfc915f91612c4c575b50600a61191a565b919091612c47612c35612c2f7fce8c93fecc87ea28c5a92dea4f94ba0a51087dc17a2f11782aa2117dbd19b68693610a3c565b93610a3c565b93612c3e6102d2565b918291826110dc565b0390a3565b612c6d915060203d8111612c73575b612c65818361036a565b810190612993565b5f612bf4565b503d612c5b565b611e64565b612ca0915060203d8111612ca6575b612c98818361036a565b81019061293a565b5f612b9a565b503d612c8e565b611e64565b612cd3915060203d8111612cd9575b612ccb818361036a565b8101906128b2565b5f612b40565b503d612cc1565b611e64565b612d06915060203d8111612d0c575b612cfe818361036a565b8101906127fd565b5f612adc565b503d612cf4565b611e64565b5f63e6c4247b60e01b815280612d3060048201610538565b0390fd5b5081612d50612d4a612d455f612710565b610604565b91610604565b14612a4e565b5082612d72612d6c612d675f6118b2565b610315565b91610315565b14612a47565b5f62dc149f60e41b815280612d8f60048201610538565b0390fd5b5f6282b42960e81b815280612daa60048201610538565b0390fd5b612db66136b6565b612dbe612dc0565b565b612dd1612dcc5f6118b2565b613768565b565b612ddb612dae565b565b612de5613bb9565b565b612def6136b6565b612df7612df9565b565b612e01613c6a565b565b612e0b612de7565b565b612e1561269f565b50612e2060026117c2565b90565b612e3490612e2f6136b6565b612e36565b565b80612e50612e4a612e4561097c565b6102e4565b916102e4565b11612e9b57612e6081601161191a565b612e967f8c4d35e54a3f2ef1134138fd8ea3daee6a3c89e10d2665996babdf70261e2c7691612e8d6102d2565b91829182610995565b0390a1565b5f63cd4e616760e01b815280612eb360048201610538565b0390fd5b612ec090612e23565b565b612ed1612ed7919392936102e4565b926102e4565b91612ee38382026102e4565b928184041490151715612ef257565b611c88565b90565b612f0e612f09612f1392612ef7565b61095d565b6102e4565b90565b634e487b7160e01b5f52601260045260245ffd5b612f36612f3c916102e4565b916102e4565b908115612f47570490565b612f16565b612f6c612f7d91612f5b611ba4565b50612f666011611cf6565b90612ec2565b612f77612710612efa565b90612f2a565b90565b91612fa19391612f8e6116a0565b50612f97613a1f565b9390919293613cba565b90565b90612fbb969594939291612fb661377e565b612fbf565b9091565b90612fd6969594939291612fd16137d4565b612fe2565b9091612fe0613858565b565b96959193969492945050613009613003612ffe60103390610a48565b6126cd565b1561049e565b6131d2576130379261302d856130276130215f611be2565b916102e4565b11611c5f565b9184909192613e0a565b61304081612f4c565b61304b828290611c9c565b9360406130586009611cd5565b613082613065600a611cf6565b613079613070611d03565b935f8501611d10565b60208301611d1e565b936130e26130c56130b16130c08a6130986102d2565b9283916004602084016311675ebd60e31b815201610995565b6020820181038252038261036a565b6139b5565b916130d06005611d40565b90336130db30611d4d565b9192613a8f565b6130ff6130f8856130f36013611cf6565b611d59565b601361191a565b61311161310c6008611d92565b611639565b6131355f631f6d510b979397613140876131296102d2565b9a8b9788968795611da3565b855260048501611e32565b03925af180156131cd575f8094909161319a575b5092949190916131938487907fec915cbb614f4e8d4e71c5f18aa49dbb6e41d25ab75f44560c28ea05916168c39561318a6102d2565b95869586611e80565b0390a19190565b90506131be91935060403d81116131c6575b6131b6818361036a565b810190611dc7565b92905f613154565b503d6131ac565b611e64565b5f63aa41dc9f60e01b8152806131ea60048201610538565b0390fd5b9061320c949392916131fe611ba0565b613206611ba4565b90612fa4565b9091565b613218611ba4565b506132236013611cf6565b90565b9061323c959493929161323761377e565b613240565b9091565b9061325695949392916132516137d4565b613262565b9091613260613858565b565b9061329d93969591949294505061328b8461328561327f5f611be2565b916102e4565b11611c5f565b613293613a1f565b9184909192613e0a565b6132a681612f4c565b6132b1828290611c9c565b9360406132be6009611cd5565b6132e86132cb600a611cf6565b6132df6132d6611d03565b935f8501611d10565b60208301611d1e565b9361334f61332b6133176133268a6132fe6102d2565b9283916004602084016311675ebd60e31b815201610995565b6020820181038252038261036a565b6139b5565b916133366005611d40565b9061333f613a1f565b61334830611d4d565b9192613a8f565b61336c613365856133606013611cf6565b611d59565b601361191a565b61337e6133796008611d92565b611639565b6133a25f631f6d510b9793976133ad876133966102d2565b9a8b9788968795611da3565b855260048501611e32565b03925af1801561343a575f80949091613407575b5092949190916134008487907fec915cbb614f4e8d4e71c5f18aa49dbb6e41d25ab75f44560c28ea05916168c3956133f76102d2565b95869586611e80565b0390a19190565b905061342b91935060403d8111613433575b613423818361036a565b810190611dc7565b92905f6133c1565b503d613419565b611e64565b9061345c93929161344e611ba0565b613456611ba4565b90613226565b9091565b61346861269f565b5061347360036117c2565b90565b90613488916134836136b6565b6134cf565b565b9061349660ff916118be565b9181191691161790565b6134a99061049e565b90565b90565b906134c46134bf6134cb926134a0565b6134ac565b825461348a565b9055565b806134ea6134e46134df5f6118b2565b610315565b91610315565b1461354857613504826134ff60108490610a48565b6134af565b6135436135317fbee55516e29d3969d3cb8eb01351eb3c52d06f9e2435bd5a8bfe3647e185df9292610a3c565b9261353a6102d2565b918291826104b0565b0390a2565b5f63e6c4247b60e01b81528061356060048201610538565b0390fd5b9061356e91613476565b565b6135819061357c6136b6565b613583565b565b8061359e6135986135935f6118b2565b610315565b91610315565b146135f0576135ae8160126118e1565b6135d87f7a7b5a0a132f9e0581eb8527f66eae9ee89c2a3e79d4ac7e41a1f1f4d48a7fc291610a3c565b906135e16102d2565b806135eb81610538565b0390a2565b5f63e6c4247b60e01b81528061360860048201610538565b0390fd5b61361590613570565b565b613628906136236136b6565b61362a565b565b6136358160036118e1565b61363d612e0d565b9061367161366b7f38d16b8cac22d99fc7c124b9cd0de2d3fa1faef420bfe791d8c362d765e2270093610a3c565b91610a3c565b9161367a6102d2565b8061368481610538565b0390a3565b61369290613617565b565b6136b3916136aa916136a461269f565b506140c5565b909291926141ad565b90565b6136be612e0d565b6136d76136d16136cc613a1f565b610315565b91610315565b036136de57565b6137006136e9613a1f565b5f91829163118cdaa760e01b8352600483016108dd565b0390fd5b1b90565b9190600861372891029161372260018060a01b0384613704565b92613704565b9181191691161790565b919061374861374361375093610a3c565b6118de565b908354613708565b9055565b6137669161376061269f565b91613732565b565b61377c906137775f6003613754565b61427e565b565b6137866126da565b61378c57565b5f63d93c066560e01b8152806137a460048201610538565b0390fd5b90565b6137bf6137ba6137c4926137a8565b61095d565b6102e4565b90565b6137d160026137ab565b90565b6137de6001611cf6565b6137f76137f16137ec6137c7565b6102e4565b916102e4565b146138105761380e6138076137c7565b600161191a565b565b5f633ee5aeb560e01b81528061382860048201610538565b0390fd5b90565b61384361383e6138489261382c565b61095d565b6102e4565b90565b613855600161382f565b90565b61386a61386361384b565b600161191a565b565b9061387e613879836103a8565b610393565b918252565b369037565b906138ad6138958361386c565b926020806138a386936103a8565b9201910390613883565b565b905090565b90825f9392825e0152565b6138e46138db926020926138d28161172e565b948580936138af565b938491016138b4565b0190565b6138f1916138bf565b90565b60ff191690565b613904906138f4565b90565b90565b61391661391b916138f4565b613907565b9052565b61392f61393691601f94936138bf565b809261390a565b0190565b61395992916139659161394b6102d2565b94859260208401928361391f565b9081038252038361036a565b565b6139719051610604565b90565b61398e6139896139838361172e565b92611728565b613967565b906020811061399c575b5090565b6139ae905f1990602003600802613704565b165f613998565b6139bd611ba0565b5060205f6139e86139d66139d1600161382f565b613888565b936139df6102d2565b918291826138e8565b039060025afa15613a1a57613a12613a1791613a0c613a075f516118be565b6138fb565b9061393a565b613974565b90565b611e64565b613a2761269f565b503390565b63ffffffff1690565b63ffffffff60e01b1690565b613a55613a50613a5a92613a2c565b611da3565b613a35565b90565b604090613a86613a8d9496959396613a7c60608401985f8501906108d0565b60208301906108d0565b0190610671565b565b600492613ac9613add9593613ad89394613ab06323b872dd92949192613a41565b93613ab96102d2565b9788956020870190815201613a5d565b6020820181038252038361036a565b6142df565b565b916020613b00929493613af960408201965f8301906108d0565b0190610671565b565b90613b49613b4e93613b3a60049493613b2163a9059cbb919391613a41565b92613b2a6102d2565b9687946020860190815201613adf565b6020820181038252038361036a565b6142df565b565b613b58614393565b613b60613b62565b565b613b6c5f5f6134af565b613b74613a1f565b613baa7f5db9ee0a495bf2e6ff9c91a7834c1ba4fdd244a5e8aa4e537bd38aeae4b073aa91613ba16102d2565b918291826108dd565b0390a1565b613bb7613b50565b565b613bc1613a1f565b613bc9613460565b613bdb613bd583610315565b91610315565b03613beb57613be990613768565b565b613c06905f91829163118cdaa760e01b8352600483016108dd565b0390fd5b613c1261377e565b613c1a613c1c565b565b613c2760015f6134af565b613c2f613a1f565b613c657f62e78cea01bee320cd4e420270b5ea74000d11b0c9f74754ebdbfc544b05a25891613c5c6102d2565b918291826108dd565b0390a1565b613c72613c0a565b565b6020613cb694613ca6828096613c9e601487613c96613cae99839f9e9b6116da565b0180926116a7565b0180926116a7565b0180926116a7565b0180926116da565b0190565b9091939293613cc76116a0565b5042613cdb613cd5876102e4565b916102e4565b11613d8f57613d22613d4993613d13613d7097613d5895929490613cfe30611d4d565b91613d076102d2565b96879560208701613c74565b6020820181038252038261036a565b613d34613d2e8261172e565b91611728565b20613d3d6102d2565b9283916020830161178f565b6020820181038252038261036a565b613d6a613d648261172e565b91611728565b20613694565b613d8b613d85613d80600d6117c2565b610315565b91610315565b1490565b50505050505f90565b5f80fd5b5f80fd5b5f80fd5b903590600160200381360303821215613de6570180359067ffffffffffffffff8211613de157602001916001820236038313613ddc57565b613da0565b613d9c565b613d98565b5090565b35613df9816102e7565b90565b613e079136916103d6565b90565b915f613e23613e1d836040810190613da4565b90613deb565b613e35613e2f5f611be2565b916102e4565b11613fc1575b613e4691501561049e565b613e50575b505050565b613e67613e61846060810190613da4565b90613deb565b613e79613e735f611be2565b916102e4565b14613fa557613ea7613ea2613e90600e8590611005565b613e9c60208701613def565b90611037565b6126cd565b613f8957613ef9613ef383613ebd5f8701613def565b613ec960208801613def565b613ed560408901613def565b91613eed613ee78a6060810190613da4565b90613dfc565b93613cba565b1561049e565b613f6d57613f19613f13613f0e5f8601613def565b6102e4565b916102e4565b11613f5157613f44613f4992613f3e6020613f37600195600e611005565b9201613def565b90611037565b6134af565b5f8080613e4b565b5f63172bd6a160e31b815280613f6960048201610538565b0390fd5b5f631050484960e01b815280613f8560048201610538565b0390fd5b5f63236dea5560e21b815280613fa160048201610538565b0390fd5b5f6304bc4ab760e31b815280613fbd60048201610538565b0390fd5b50613fea613fe5613fd4600f8690611005565b613fdf5f8501613def565b90611037565b6126cd565b61406657806140616140386140035f613e469501613def565b61400d600c611cf6565b61401960208601613def565b889161403261402c886040810190613da4565b90613dfc565b936117cf565b9161405c6001916140565f61404f600f8b90611005565b9201613def565b90611037565b6134af565b613e3b565b5f636356e6ef60e11b81528061407e60048201610538565b0390fd5b5f90565b90565b61409d6140986140a292614086565b61095d565b6102e4565b90565b6140b96140b46140be926102e4565b6118be565b610604565b90565b5f90565b9190916140d061269f565b506140d9614082565b506140e2611ba0565b506140ec8361172e565b6140ff6140f96041614089565b916102e4565b145f146141465761413f9192614113611ba0565b5061411c611ba0565b506141256140c1565b506020810151606060408301519201515f1a909192614436565b9192909190565b506141505f6118b2565b9061416461415f60029461172e565b6140a5565b91929190565b634e487b7160e01b5f52602160045260245ffd5b6004111561418857565b61416a565b906141978261417e565b565b6141a56141aa916117a9565b61101b565b90565b806141c06141ba5f61418d565b9161418d565b145f146141cb575050565b806141df6141d9600161418d565b9161418d565b145f14614202575f63f645eedf60e01b8152806141fe60048201610538565b0390fd5b80614216614210600261418d565b9161418d565b145f146142445761424061422983614199565b5f91829163fce698f760e01b835260048301610995565b0390fd5b614257614251600361418d565b9161418d565b1461425f5750565b61427a905f9182916335e2f38360e21b8352600483016110dc565b0390fd5b61428860026117c2565b6142938260026118e1565b906142c76142c17f8be0079c531659141344cd1fd0a4f28419497f9722a3daafe3b4186f6b6457e093610a3c565b91610a3c565b916142d06102d2565b806142da81610538565b0390a3565b905f6020916142ec611ba4565b506142f5611ba4565b50828151910182855af115614388573d5f519061431a6143145f611be2565b916102e4565b145f1461436e575061432b81610bbb565b3b61433e6143385f611be2565b916102e4565b145b6143475750565b61435361436a91610bbb565b5f918291635274afe760e01b8352600483016108dd565b0390fd5b61438161437b600161382f565b916102e4565b1415614340565b6040513d5f823e3d90fd5b6143a461439e6126da565b1561049e565b6143aa57565b5f638dfc202b60e01b8152806143c260048201610538565b0390fd5b90565b6143dd6143d86143e2926143c6565b61095d565b6102e4565b90565b60ff1690565b6143f4906143e5565b9052565b61442d61443494614423606094989795614419608086019a5f870190610664565b60208501906143eb565b6040830190610664565b0190610664565b565b93929361444161269f565b5061444a614082565b50614453611ba0565b5061445d85614199565b61448f6144897f7fffffffffffffffffffffffffffffff5d576e7357a4501ddfe92f46681b20a06143c9565b916102e4565b1161451c57906144b2602094955f949392936144a96102d2565b948594856143f8565b838052039060015afa15614517576144ca5f516118be565b806144e56144df6144da5f6118b2565b610315565b91610315565b146144fb575f916144f55f612710565b91929190565b506145055f6118b2565b6001916145115f612710565b91929190565b611e64565b5050506145285f6118b2565b906003929192919056fea2646970667358221220400e3d534d22e05ffb19bb031b03e123ebeaa3ae4a87872f7cb9b1f80678869d64736f6c634300081c0033","linkReferences":{}},"methodIdentifiers":{"MAX_FEE_BASIS_POINTS()":"4befe2ca","acceptOwnership()":"79ba5097","calculateFee(uint256)":"99a5d747","cancelOwnershipTransfer()":"23452b9c","cleanHandsCircuitId()":"d1a79008","cleanHandsNonces(address,uint256)":"f9148fa1","collectedFees()":"9003adfe","depositToAztecPrivate(uint256,bytes32,(uint256,uint256,bytes),(uint256,uint256,uint256,bytes))":"dcb1154d","depositToAztecPrivateFor(address,uint256,bytes32,(uint256,uint256,bytes),(uint256,uint256,uint256,bytes))":"a9b6e948","depositToAztecPublic(bytes32,uint256,bytes32)":"284b5dc6","feeBasisPoints()":"b8606eef","feeRecipient()":"46904840","getCollectedFees()":"d54a8d18","getFeeRecipient()":"4ccb20c0","humanIdAttester()":"b0a00e15","inbox()":"fb0e722b","initialize(address,address,bytes32)":"6133f985","l2Bridge()":"ae1f6aaf","outbox()":"ce11e6ab","owner()":"8da5cb5b","passportNonces(address,uint256)":"ab3d25ac","passportSigner()":"eb50136f","pause()":"8456cb59","paused()":"5c975abb","pendingOwner()":"e30c3978","proposeOwnershipTransfer(address)":"21040fc3","registry()":"7b103999","renounceOwnership()":"715018a6","rescueToken(address,uint256)":"33f3d628","rollup()":"cb23bcb5","rollupVersion()":"b0893887","setTrustedForwarder(address,bool)":"e691d03b","transferOwnership(address)":"f2fde38b","trustedForwarders(address)":"54776bb9","underlying()":"6f307dc3","unpause()":"3f4ba83a","updateAttestationConfig(address,uint256,address)":"202db826","updateFee(uint256)":"9012c4a8","updateFeeRecipient(address)":"f160d369","verifyCleanHandsSignature(uint256,uint256,uint256,address,bytes)":"1945e308","verifyPassportSignature(uint256,uint256,uint256,bytes)":"a491a4fc","withdraw(address,uint256,bool,uint256,uint256,bytes32[])":"3ba57310","withdrawFees()":"476343ee"},"id":68}