{"abi":[{"type":"constructor","inputs":[{"name":"_initialOwner","type":"address","internalType":"address"},{"name":"_feeRecipient","type":"address","internalType":"address"},{"name":"_feeBasisPoints","type":"uint256","internalType":"uint256"},{"name":"_humanIdAttester","type":"address","internalType":"address"},{"name":"_cleanHandsCircuitId","type":"uint256","internalType":"uint256"},{"name":"_cleanHandsActionId","type":"uint256","internalType":"uint256"},{"name":"_passportSigner","type":"address","internalType":"address"}],"stateMutability":"nonpayable"},{"type":"function","name":"MAX_FEE_BASIS_POINTS","inputs":[],"outputs":[{"name":"","type":"uint256","internalType":"uint256"}],"stateMutability":"view"},{"type":"function","name":"acceptOwnership","inputs":[],"outputs":[],"stateMutability":"nonpayable"},{"type":"function","name":"calculateFee","inputs":[{"name":"_amount","type":"uint256","internalType":"uint256"}],"outputs":[{"name":"","type":"uint256","internalType":"uint256"}],"stateMutability":"view"},{"type":"function","name":"cancelOwnershipTransfer","inputs":[],"outputs":[],"stateMutability":"nonpayable"},{"type":"function","name":"cleanHandsActionId","inputs":[],"outputs":[{"name":"","type":"uint256","internalType":"uint256"}],"stateMutability":"view"},{"type":"function","name":"cleanHandsCircuitId","inputs":[],"outputs":[{"name":"","type":"uint256","internalType":"uint256"}],"stateMutability":"view"},{"type":"function","name":"cleanHandsNonces","inputs":[{"name":"","type":"address","internalType":"address"},{"name":"","type":"uint256","internalType":"uint256"}],"outputs":[{"name":"","type":"bool","internalType":"bool"}],"stateMutability":"view"},{"type":"function","name":"collectedFees","inputs":[],"outputs":[{"name":"","type":"uint256","internalType":"uint256"}],"stateMutability":"view"},{"type":"function","name":"depositToAztecPrivate","inputs":[{"name":"_amount","type":"uint256","internalType":"uint256"},{"name":"_secretHashForL2MessageConsumption","type":"bytes32","internalType":"bytes32"},{"name":"_cleanHands","type":"tuple","internalType":"struct TokenPortal.CleanHandsData","components":[{"name":"nonce","type":"uint256","internalType":"uint256"},{"name":"signature","type":"bytes","internalType":"bytes"}]},{"name":"_passport","type":"tuple","internalType":"struct TokenPortal.PassportData","components":[{"name":"maxAmount","type":"uint256","internalType":"uint256"},{"name":"nonce","type":"uint256","internalType":"uint256"},{"name":"deadline","type":"uint256","internalType":"uint256"},{"name":"signature","type":"bytes","internalType":"bytes"}]}],"outputs":[{"name":"","type":"bytes32","internalType":"bytes32"},{"name":"","type":"uint256","internalType":"uint256"},{"name":"","type":"uint256","internalType":"uint256"}],"stateMutability":"nonpayable"},{"type":"function","name":"depositToAztecPrivateFor","inputs":[{"name":"_depositor","type":"address","internalType":"address"},{"name":"_amount","type":"uint256","internalType":"uint256"},{"name":"_secretHashForL2MessageConsumption","type":"bytes32","internalType":"bytes32"},{"name":"_cleanHands","type":"tuple","internalType":"struct TokenPortal.CleanHandsData","components":[{"name":"nonce","type":"uint256","internalType":"uint256"},{"name":"signature","type":"bytes","internalType":"bytes"}]},{"name":"_passport","type":"tuple","internalType":"struct TokenPortal.PassportData","components":[{"name":"maxAmount","type":"uint256","internalType":"uint256"},{"name":"nonce","type":"uint256","internalType":"uint256"},{"name":"deadline","type":"uint256","internalType":"uint256"},{"name":"signature","type":"bytes","internalType":"bytes"}]}],"outputs":[{"name":"","type":"bytes32","internalType":"bytes32"},{"name":"","type":"uint256","internalType":"uint256"},{"name":"","type":"uint256","internalType":"uint256"}],"stateMutability":"nonpayable"},{"type":"function","name":"depositToAztecPublic","inputs":[{"name":"_to","type":"bytes32","internalType":"bytes32"},{"name":"_amount","type":"uint256","internalType":"uint256"},{"name":"_secretHash","type":"bytes32","internalType":"bytes32"}],"outputs":[{"name":"","type":"bytes32","internalType":"bytes32"},{"name":"","type":"uint256","internalType":"uint256"},{"name":"","type":"uint256","internalType":"uint256"}],"stateMutability":"nonpayable"},{"type":"function","name":"depositsActive","inputs":[],"outputs":[{"name":"","type":"bool","internalType":"bool"}],"stateMutability":"view"},{"type":"function","name":"feeBasisPoints","inputs":[],"outputs":[{"name":"","type":"uint256","internalType":"uint256"}],"stateMutability":"view"},{"type":"function","name":"feeRecipient","inputs":[],"outputs":[{"name":"","type":"address","internalType":"address"}],"stateMutability":"view"},{"type":"function","name":"getCollectedFees","inputs":[],"outputs":[{"name":"","type":"uint256","internalType":"uint256"}],"stateMutability":"view"},{"type":"function","name":"getFeeRecipient","inputs":[],"outputs":[{"name":"","type":"address","internalType":"address"}],"stateMutability":"view"},{"type":"function","name":"humanIdAttester","inputs":[],"outputs":[{"name":"","type":"address","internalType":"address"}],"stateMutability":"view"},{"type":"function","name":"inbox","inputs":[],"outputs":[{"name":"","type":"address","internalType":"contract IInbox"}],"stateMutability":"view"},{"type":"function","name":"initialize","inputs":[{"name":"_registry","type":"address","internalType":"address"},{"name":"_underlying","type":"address","internalType":"address"},{"name":"_l2Bridge","type":"bytes32","internalType":"bytes32"}],"outputs":[],"stateMutability":"nonpayable"},{"type":"function","name":"l2Bridge","inputs":[],"outputs":[{"name":"","type":"bytes32","internalType":"bytes32"}],"stateMutability":"view"},{"type":"function","name":"outbox","inputs":[],"outputs":[{"name":"","type":"address","internalType":"contract IOutbox"}],"stateMutability":"view"},{"type":"function","name":"owner","inputs":[],"outputs":[{"name":"","type":"address","internalType":"address"}],"stateMutability":"view"},{"type":"function","name":"passportNonces","inputs":[{"name":"","type":"address","internalType":"address"},{"name":"","type":"uint256","internalType":"uint256"}],"outputs":[{"name":"","type":"bool","internalType":"bool"}],"stateMutability":"view"},{"type":"function","name":"passportSigner","inputs":[],"outputs":[{"name":"","type":"address","internalType":"address"}],"stateMutability":"view"},{"type":"function","name":"pause","inputs":[],"outputs":[],"stateMutability":"nonpayable"},{"type":"function","name":"pauseDeposits","inputs":[],"outputs":[],"stateMutability":"nonpayable"},{"type":"function","name":"paused","inputs":[],"outputs":[{"name":"","type":"bool","internalType":"bool"}],"stateMutability":"view"},{"type":"function","name":"pendingOwner","inputs":[],"outputs":[{"name":"","type":"address","internalType":"address"}],"stateMutability":"view"},{"type":"function","name":"proposeOwnershipTransfer","inputs":[{"name":"newOwner","type":"address","internalType":"address"}],"outputs":[],"stateMutability":"nonpayable"},{"type":"function","name":"registry","inputs":[],"outputs":[{"name":"","type":"address","internalType":"contract IRegistry"}],"stateMutability":"view"},{"type":"function","name":"renounceOwnership","inputs":[],"outputs":[],"stateMutability":"nonpayable"},{"type":"function","name":"rescueToken","inputs":[{"name":"_token","type":"address","internalType":"address"},{"name":"_amount","type":"uint256","internalType":"uint256"}],"outputs":[],"stateMutability":"nonpayable"},{"type":"function","name":"rollup","inputs":[],"outputs":[{"name":"","type":"address","internalType":"contract IRollup"}],"stateMutability":"view"},{"type":"function","name":"rollupVersion","inputs":[],"outputs":[{"name":"","type":"uint256","internalType":"uint256"}],"stateMutability":"view"},{"type":"function","name":"setTrustedForwarder","inputs":[{"name":"_forwarder","type":"address","internalType":"address"},{"name":"_trusted","type":"bool","internalType":"bool"}],"outputs":[],"stateMutability":"nonpayable"},{"type":"function","name":"transferOwnership","inputs":[{"name":"newOwner","type":"address","internalType":"address"}],"outputs":[],"stateMutability":"nonpayable"},{"type":"function","name":"trustedForwarders","inputs":[{"name":"","type":"address","internalType":"address"}],"outputs":[{"name":"","type":"bool","internalType":"bool"}],"stateMutability":"view"},{"type":"function","name":"underlying","inputs":[],"outputs":[{"name":"","type":"address","internalType":"contract IERC20"}],"stateMutability":"view"},{"type":"function","name":"unpause","inputs":[],"outputs":[],"stateMutability":"nonpayable"},{"type":"function","name":"unpauseDeposits","inputs":[],"outputs":[],"stateMutability":"nonpayable"},{"type":"function","name":"updateAttestationConfig","inputs":[{"name":"_attester","type":"address","internalType":"address"},{"name":"_circuitId","type":"uint256","internalType":"uint256"},{"name":"_actionId","type":"uint256","internalType":"uint256"},{"name":"_signer","type":"address","internalType":"address"}],"outputs":[],"stateMutability":"nonpayable"},{"type":"function","name":"updateFee","inputs":[{"name":"_newFeeBasisPoints","type":"uint256","internalType":"uint256"}],"outputs":[],"stateMutability":"nonpayable"},{"type":"function","name":"updateFeeRecipient","inputs":[{"name":"_newFeeRecipient","type":"address","internalType":"address"}],"outputs":[],"stateMutability":"nonpayable"},{"type":"function","name":"verifyCleanHandsSignature","inputs":[{"name":"nonce","type":"uint256","internalType":"uint256"},{"name":"signature","type":"bytes","internalType":"bytes"}],"outputs":[{"name":"","type":"bool","internalType":"bool"}],"stateMutability":"view"},{"type":"function","name":"verifyPassportSignature","inputs":[{"name":"maxAmount","type":"uint256","internalType":"uint256"},{"name":"nonce","type":"uint256","internalType":"uint256"},{"name":"deadline","type":"uint256","internalType":"uint256"},{"name":"signature","type":"bytes","internalType":"bytes"}],"outputs":[{"name":"","type":"bool","internalType":"bool"}],"stateMutability":"view"},{"type":"function","name":"withdraw","inputs":[{"name":"_recipient","type":"address","internalType":"address"},{"name":"_amount","type":"uint256","internalType":"uint256"},{"name":"_withCaller","type":"bool","internalType":"bool"},{"name":"_l2BlockNumber","type":"uint256","internalType":"uint256"},{"name":"_leafIndex","type":"uint256","internalType":"uint256"},{"name":"_path","type":"bytes32[]","internalType":"bytes32[]"}],"outputs":[],"stateMutability":"nonpayable"},{"type":"function","name":"withdrawFees","inputs":[],"outputs":[],"stateMutability":"nonpayable"},{"type":"event","name":"AttestationConfigUpdated","inputs":[{"name":"attester","type":"address","indexed":true,"internalType":"address"},{"name":"circuitId","type":"uint256","indexed":false,"internalType":"uint256"},{"name":"actionId","type":"uint256","indexed":false,"internalType":"uint256"},{"name":"signer","type":"address","indexed":true,"internalType":"address"}],"anonymous":false},{"type":"event","name":"DepositToAztecPrivate","inputs":[{"name":"amount","type":"uint256","indexed":false,"internalType":"uint256"},{"name":"fee","type":"uint256","indexed":false,"internalType":"uint256"},{"name":"secretHash","type":"bytes32","indexed":false,"internalType":"bytes32"},{"name":"key","type":"bytes32","indexed":false,"internalType":"bytes32"},{"name":"index","type":"uint256","indexed":false,"internalType":"uint256"}],"anonymous":false},{"type":"event","name":"DepositToAztecPublic","inputs":[{"name":"to","type":"bytes32","indexed":true,"internalType":"bytes32"},{"name":"amount","type":"uint256","indexed":false,"internalType":"uint256"},{"name":"fee","type":"uint256","indexed":false,"internalType":"uint256"},{"name":"secretHash","type":"bytes32","indexed":false,"internalType":"bytes32"},{"name":"key","type":"bytes32","indexed":false,"internalType":"bytes32"},{"name":"index","type":"uint256","indexed":false,"internalType":"uint256"}],"anonymous":false},{"type":"event","name":"DepositsBlocked","inputs":[],"anonymous":false},{"type":"event","name":"DepositsUnblocked","inputs":[],"anonymous":false},{"type":"event","name":"FeeRecipientUpdated","inputs":[{"name":"newFeeRecipient","type":"address","indexed":true,"internalType":"address"}],"anonymous":false},{"type":"event","name":"FeeUpdated","inputs":[{"name":"newFeeBasisPoints","type":"uint256","indexed":false,"internalType":"uint256"}],"anonymous":false},{"type":"event","name":"FeesWithdrawn","inputs":[{"name":"recipient","type":"address","indexed":true,"internalType":"address"},{"name":"amount","type":"uint256","indexed":false,"internalType":"uint256"}],"anonymous":false},{"type":"event","name":"Initialized","inputs":[{"name":"registry","type":"address","indexed":true,"internalType":"address"},{"name":"underlying","type":"address","indexed":true,"internalType":"address"},{"name":"l2Bridge","type":"bytes32","indexed":false,"internalType":"bytes32"}],"anonymous":false},{"type":"event","name":"OwnershipTransferCancelled","inputs":[{"name":"currentOwner","type":"address","indexed":true,"internalType":"address"}],"anonymous":false},{"type":"event","name":"OwnershipTransferProposed","inputs":[{"name":"previousOwner","type":"address","indexed":true,"internalType":"address"},{"name":"newOwner","type":"address","indexed":true,"internalType":"address"}],"anonymous":false},{"type":"event","name":"OwnershipTransferStarted","inputs":[{"name":"previousOwner","type":"address","indexed":true,"internalType":"address"},{"name":"newOwner","type":"address","indexed":true,"internalType":"address"}],"anonymous":false},{"type":"event","name":"OwnershipTransferred","inputs":[{"name":"previousOwner","type":"address","indexed":true,"internalType":"address"},{"name":"newOwner","type":"address","indexed":true,"internalType":"address"}],"anonymous":false},{"type":"event","name":"Paused","inputs":[{"name":"account","type":"address","indexed":false,"internalType":"address"}],"anonymous":false},{"type":"event","name":"TokensRescued","inputs":[{"name":"token","type":"address","indexed":true,"internalType":"address"},{"name":"to","type":"address","indexed":true,"internalType":"address"},{"name":"amount","type":"uint256","indexed":false,"internalType":"uint256"}],"anonymous":false},{"type":"event","name":"TrustedForwarderUpdated","inputs":[{"name":"forwarder","type":"address","indexed":true,"internalType":"address"},{"name":"trusted","type":"bool","indexed":false,"internalType":"bool"}],"anonymous":false},{"type":"event","name":"Unpaused","inputs":[{"name":"account","type":"address","indexed":false,"internalType":"address"}],"anonymous":false},{"type":"error","name":"AlreadyInitialized","inputs":[]},{"type":"error","name":"AmountExceedsLimit","inputs":[]},{"type":"error","name":"CleanHandsNonceUsed","inputs":[]},{"type":"error","name":"DepositsPaused","inputs":[]},{"type":"error","name":"ECDSAInvalidSignature","inputs":[]},{"type":"error","name":"ECDSAInvalidSignatureLength","inputs":[{"name":"length","type":"uint256","internalType":"uint256"}]},{"type":"error","name":"ECDSAInvalidSignatureS","inputs":[{"name":"s","type":"bytes32","internalType":"bytes32"}]},{"type":"error","name":"EnforcedPause","inputs":[]},{"type":"error","name":"ExpectedPause","inputs":[]},{"type":"error","name":"FeeTooHigh","inputs":[]},{"type":"error","name":"InvalidAddress","inputs":[]},{"type":"error","name":"InvalidPassportSignature","inputs":[]},{"type":"error","name":"InvalidVerification","inputs":[]},{"type":"error","name":"NoFeesToWithdraw","inputs":[]},{"type":"error","name":"NoPendingOwner","inputs":[]},{"type":"error","name":"NotTrustedForwarder","inputs":[]},{"type":"error","name":"OwnableInvalidOwner","inputs":[{"name":"owner","type":"address","internalType":"address"}]},{"type":"error","name":"OwnableUnauthorizedAccount","inputs":[{"name":"account","type":"address","internalType":"address"}]},{"type":"error","name":"PassportNonceUsed","inputs":[]},{"type":"error","name":"ReentrancyGuardReentrantCall","inputs":[]},{"type":"error","name":"SafeERC20FailedOperation","inputs":[{"name":"token","type":"address","internalType":"address"}]},{"type":"error","name":"Unauthorized","inputs":[]}],"bytecode":{"object":"0x60a06040523461003f5761002061001461017c565b95949094939193610319565b610028610044565b6148a861066982396080518161291401526148a890f35b61004a565b60405190565b5f80fd5b601f801991011690565b634e487b7160e01b5f52604160045260245ffd5b906100769061004e565b810190811060018060401b0382111761008e57604052565b610058565b906100a661009f610044565b928361006c565b565b5f80fd5b60018060a01b031690565b6100c0906100ac565b90565b6100cc816100b7565b036100d357565b5f80fd5b905051906100e4826100c3565b565b90565b6100f2816100e6565b036100f957565b5f80fd5b9050519061010a826100e9565b565b60e08183031261017757610122825f83016100d7565b9261013083602084016100d7565b9261013e81604085016100fd565b9261014c82606083016100d7565b9261017461015d84608085016100fd565b9361016b8160a086016100fd565b9360c0016100d7565b90565b6100a8565b61019a614f118038038061018f81610093565b92833981019061010c565b90919293949596565b5f1b90565b906101b460ff916101a3565b9181191691161790565b151590565b6101cc906101be565b90565b90565b906101e76101e26101ee926101c3565b6101cf565b82546101a8565b9055565b90565b90565b61020c610207610211926101f2565b6101f5565b6100ac565b90565b61021d906101f8565b90565b5f0190565b90565b61023c61023761024192610225565b6101f5565b6100e6565b90565b61024f6103e8610228565b90565b9061026360018060a01b03916101a3565b9181191691161790565b61028161027c610286926100ac565b6101f5565b6100ac565b90565b6102929061026d565b90565b61029e90610289565b90565b90565b906102b96102b46102c092610295565b6102a1565b8254610252565b9055565b906102d05f19916101a3565b9181191691161790565b6102ee6102e96102f3926100e6565b6101f5565b6100e6565b90565b90565b9061030e610309610315926102da565b6102f6565b82546102c4565b9055565b6103299096959396929192610470565b610335600160156101d2565b61033d61054f565b6080528161035b6103556103505f610214565b6100b7565b916100b7565b14610454578061037a61037461036f610244565b6100e6565b916100e6565b116104385761038d6103949260136102a4565b60126102f9565b836103af6103a96103a45f610214565b6100b7565b916100b7565b1461041c57826103cf6103c96103c45f610214565b6100b7565b916100b7565b14610400576103f06103f7926103e96103fe96600b6102a4565b600c6102f9565b600d6102f9565b600e6102a4565b565b5f63e6c4247b60e01b81528061041860048201610220565b0390fd5b5f63e6c4247b60e01b81528061043460048201610220565b0390fd5b5f63cd4e616760e01b81528061045060048201610220565b0390fd5b5f63e6c4247b60e01b81528061046c60048201610220565b0390fd5b6104799061049d565b565b610484906100b7565b9052565b919061049b905f6020850194019061047b565b565b6104a5610523565b806104c06104ba6104b55f610214565b6100b7565b916100b7565b146104d0576104ce906105c0565b565b6104f36104dc5f610214565b5f918291631e4fbdf760e01b835260048301610488565b0390fd5b90565b61050e610509610513926104f7565b6101f5565b6100e6565b90565b61052060016104fa565b90565b61052b61053f565b61053d610536610516565b60016102f9565b565b6105495f5f6101d2565b565b5f90565b61055761054b565b503390565b1b90565b9190600861058091029161057a60018060a01b038461055c565b9261055c565b9181191691161790565b91906105a061059b6105a893610295565b6102a1565b908354610560565b9055565b6105be916105b861054b565b9161058a565b565b6105d4906105cf5f60036105ac565b610607565b565b5f1c90565b60018060a01b031690565b6105f26105f7916105d6565b6105db565b90565b61060490546105e6565b90565b61061160026105fa565b61061c8260026102a4565b9061065061064a7f8be0079c531659141344cd1fd0a4f28419497f9722a3daafe3b4186f6b6457e093610295565b91610295565b91610659610044565b8061066381610220565b0390a356fe60806040526004361015610013575b6117c1565b61001d5f3561030c565b8063021919801461030757806321040fc31461030257806323452b9c146102fd578063284b5dc6146102f857806333f3d628146102f35780633ba57310146102ee5780633f4ba83a146102e957806346904840146102e4578063476343ee146102df5780634befe2ca146102da5780634ccb20c0146102d557806354776bb9146102d05780635c975abb146102cb5780636133f985146102c657806363d8882a146102c15780636f307dc3146102bc578063715018a6146102b757806379ba5097146102b25780637b103999146102ad5780638456cb59146102a85780638da5cb5b146102a35780639003adfe1461029e5780639012c4a81461029957806390f27f801461029457806399a5d7471461028f578063a491a4fc1461028a578063ab3d25ac14610285578063ac1d201b14610280578063ae1f6aaf1461027b578063b089388714610276578063b0a00e1514610271578063b8606eef1461026c578063c631bfa814610267578063cb23bcb514610262578063cb3346161461025d578063ce11e6ab14610258578063d1a7900814610253578063d54a8d181461024e578063e30c397814610249578063e691d03b14610244578063eb50136f1461023f578063eff3facf1461023a578063f160d36914610235578063f275c0ce14610230578063f2fde38b1461022b578063f9148fa1146102265763fb0e722b0361000e5761178c565b6116e8565b611694565b61165f565b61161d565b6115e8565b6115a4565b611561565b6114ff565b6114ca565b611495565b611451565b6113a7565b6112fb565b611251565b61116b565b611127565b6110e3565b61109f565b61101b565b610f9f565b610efd565b610e69565b610e33565b610cd4565b610c81565b610c14565b610be1565b610bac565b610b0b565b610ad8565b610aa3565b610a02565b6109ce565b61095f565b61092a565b610844565b61080f565b61078c565b610757565b6106be565b610684565b610561565b6104fb565b6103f6565b6103c3565b610334565b60e01c90565b60405190565b5f80fd5b5f80fd5b5f91031261032a57565b61031c565b5f0190565b3461036257610344366004610320565b61034c611864565b610354610312565b8061035e8161032f565b0390f35b610318565b5f80fd5b60018060a01b031690565b61037f9061036b565b90565b61038b81610376565b0361039257565b5f80fd5b905035906103a382610382565b565b906020828203126103be576103bb915f01610396565b90565b61031c565b346103f1576103db6103d63660046103a5565b611945565b6103e3610312565b806103ed8161032f565b0390f35b610318565b3461042457610406366004610320565b61040e6119ff565b610416610312565b806104208161032f565b0390f35b610318565b90565b61043581610429565b0361043c57565b5f80fd5b9050359061044d8261042c565b565b90565b61045b8161044f565b0361046257565b5f80fd5b9050359061047382610452565b565b90916060828403126104aa576104a7610490845f8501610440565b9361049e8160208601610466565b93604001610440565b90565b61031c565b6104b890610429565b9052565b6104c59061044f565b9052565b6040906104f26104f994969593966104e860608401985f8501906104af565b60208301906104bc565b01906104bc565b565b3461052f5761052b610517610511366004610475565b91611fc6565b610522939193610312565b938493846104c9565b0390f35b610318565b919060408382031261055c5780610550610559925f8601610396565b93602001610466565b90565b61031c565b346105905761057a610574366004610534565b906120ca565b610582610312565b8061058c8161032f565b0390f35b610318565b151590565b6105a381610595565b036105aa57565b5f80fd5b905035906105bb8261059a565b565b5f80fd5b5f80fd5b5f80fd5b909182601f830112156106035781359167ffffffffffffffff83116105fe5760200192602083028401116105f957565b6105c5565b6105c1565b6105bd565b9160c08383031261067f5761061f825f8501610396565b9261062d8360208301610466565b9261063b81604084016105ae565b926106498260608501610466565b926106578360808301610466565b9260a082013567ffffffffffffffff811161067a5761067692016105c9565b9091565b610367565b61031c565b346106b9576106a3610697366004610608565b959490949391936124a6565b6106ab610312565b806106b58161032f565b0390f35b610318565b346106ec576106ce366004610320565b6106d66124d3565b6106de610312565b806106e88161032f565b0390f35b610318565b1c90565b60018060a01b031690565b61071090600861071593026106f1565b6106f5565b90565b906107239154610700565b90565b61073260135f90610718565b90565b61073e90610376565b9052565b9190610755905f60208501940190610735565b565b3461078757610767366004610320565b610783610772610726565b61077a610312565b91829182610742565b0390f35b610318565b346107ba5761079c366004610320565b6107a46125e7565b6107ac610312565b806107b68161032f565b0390f35b610318565b90565b90565b6107d96107d46107de926107bf565b6107c2565b61044f565b90565b6107ec6103e86107c5565b90565b6107f76107e1565b90565b919061080d905f602085019401906104bc565b565b3461083f5761081f366004610320565b61083b61082a6107ef565b610832610312565b918291826107fa565b0390f35b610318565b3461087457610854366004610320565b61087061085f6125f5565b610867610312565b91829182610742565b0390f35b610318565b61088d6108886108929261036b565b6107c2565b61036b565b90565b61089e90610879565b90565b6108aa90610895565b90565b906108b7906108a1565b5f5260205260405f2090565b60ff1690565b6108d99060086108de93026106f1565b6108c3565b90565b906108ec91546108c9565b90565b610905906109006011915f926108ad565b6108e1565b90565b61091190610595565b9052565b9190610928905f60208501940190610908565b565b3461095a576109566109456109403660046103a5565b6108ef565b61094d610312565b91829182610915565b0390f35b610318565b3461098f5761096f366004610320565b61098b61097a61260f565b610982610312565b91829182610915565b0390f35b610318565b90916060828403126109c9576109c66109af845f8501610396565b936109bd8160208601610396565b93604001610440565b90565b61031c565b346109fd576109e76109e1366004610994565b91612901565b6109ef610312565b806109f98161032f565b0390f35b610318565b34610a3057610a12366004610320565b610a1a612d54565b610a22610312565b80610a2c8161032f565b0390f35b610318565b60018060a01b031690565b610a50906008610a5593026106f1565b610a35565b90565b90610a639154610a40565b90565b610a7260055f90610a58565b90565b610a7e90610895565b90565b610a8a90610a75565b9052565b9190610aa1905f60208501940190610a81565b565b34610ad357610ab3366004610320565b610acf610abe610a66565b610ac6610312565b91829182610a8e565b0390f35b610318565b34610b0657610ae8366004610320565b610af0612d83565b610af8610312565b80610b028161032f565b0390f35b610318565b34610b3957610b1b366004610320565b610b23612d8d565b610b2b610312565b80610b358161032f565b0390f35b610318565b60018060a01b031690565b610b59906008610b5e93026106f1565b610b3e565b90565b90610b6c9154610b49565b90565b610b7b60045f90610b61565b90565b610b8790610895565b90565b610b9390610b7e565b9052565b9190610baa905f60208501940190610b8a565b565b34610bdc57610bbc366004610320565b610bd8610bc7610b6f565b610bcf610312565b91829182610b97565b0390f35b610318565b34610c0f57610bf1366004610320565b610bf9612db3565b610c01610312565b80610c0b8161032f565b0390f35b610318565b34610c4457610c24366004610320565b610c40610c2f612dbd565b610c37610312565b91829182610742565b0390f35b610318565b90565b610c5c906008610c6193026106f1565b610c49565b90565b90610c6f9154610c4c565b90565b610c7e60145f90610c64565b90565b34610cb157610c91366004610320565b610cad610c9c610c72565b610ca4610312565b918291826107fa565b0390f35b610318565b90602082820312610ccf57610ccc915f01610466565b90565b61031c565b34610d0257610cec610ce7366004610cb6565b612e67565b610cf4610312565b80610cfe8161032f565b0390f35b610318565b5f80fd5b601f801991011690565b634e487b7160e01b5f52604160045260245ffd5b90610d3390610d0b565b810190811067ffffffffffffffff821117610d4d57604052565b610d15565b90610d65610d5e610312565b9283610d29565b565b67ffffffffffffffff8111610d8557610d81602091610d0b565b0190565b610d15565b90825f939282370152565b90929192610daa610da582610d67565b610d52565b93818552602085019082840111610dc657610dc492610d8a565b565b610d07565b9080601f83011215610de957816020610de693359101610d95565b90565b6105bd565b919091604081840312610e2e57610e07835f8301610466565b92602082013567ffffffffffffffff8111610e2957610e269201610dcb565b90565b610367565b61031c565b34610e6457610e60610e4f610e49366004610dee565b90612e72565b610e57610312565b91829182610915565b0390f35b610318565b34610e9957610e95610e84610e7f366004610cb6565b612f31565b610e8c610312565b918291826107fa565b0390f35b610318565b90608082820312610ef857610eb5815f8401610466565b92610ec38260208501610466565b92610ed18360408301610466565b92606082013567ffffffffffffffff8111610ef357610ef09201610dcb565b90565b610367565b61031c565b34610f3157610f2d610f1c610f13366004610e9e565b92919091612f65565b610f24610312565b91829182610915565b0390f35b610318565b90610f40906108a1565b5f5260205260405f2090565b610f60610f5b610f659261044f565b6107c2565b61044f565b90565b90610f7290610f4c565b5f5260205260405f2090565b610f97610f9c92610f92600f935f94610f36565b610f68565b6108e1565b90565b34610fd057610fcc610fbb610fb5366004610534565b90610f7e565b610fc3610312565b91829182610915565b0390f35b610318565b60808183031261101657610feb825f8301610396565b92611013610ffc8460208501610466565b9361100a8160408601610466565b93606001610396565b90565b61031c565b3461104d5761103761102e366004610fd5565b929190916130db565b61103f610312565b806110498161032f565b0390f35b610318565b90565b61106590600861106a93026106f1565b611052565b90565b906110789154611055565b90565b61108760095f9061106d565b90565b919061109d905f602085019401906104af565b565b346110cf576110af366004610320565b6110cb6110ba61107b565b6110c2610312565b9182918261108a565b0390f35b610318565b6110e0600a5f90610c64565b90565b34611113576110f3366004610320565b61110f6110fe6110d4565b611106610312565b918291826107fa565b0390f35b610318565b611124600b5f90610718565b90565b3461115757611137366004610320565b611153611142611118565b61114a610312565b91829182610742565b0390f35b610318565b61116860125f90610c64565b90565b3461119b5761117b366004610320565b61119761118661115c565b61118e610312565b918291826107fa565b0390f35b610318565b5f80fd5b908160409103126111b25790565b6111a0565b908160809103126111c55790565b6111a0565b91909160a08184031261124c576111e3835f8301610396565b926111f18160208401610466565b926111ff8260408501610440565b92606081013567ffffffffffffffff811161124757836112209183016111a4565b92608082013567ffffffffffffffff81116112425761123f92016111b7565b90565b610367565b610367565b61031c565b34611288576112846112706112673660046111ca565b93929092613371565b61127b939193610312565b938493846104c9565b0390f35b610318565b60018060a01b031690565b6112a89060086112ad93026106f1565b61128d565b90565b906112bb9154611298565b90565b6112ca60065f906112b0565b90565b6112d690610895565b90565b6112e2906112cd565b9052565b91906112f9905f602085019401906112d9565b565b3461132b5761130b366004610320565b6113276113166112be565b61131e610312565b918291826112e6565b0390f35b610318565b906080828203126113a257611347815f8401610466565b926113558260208501610440565b92604081013567ffffffffffffffff811161139d57836113769183016111a4565b92606082013567ffffffffffffffff81116113985761139592016111b7565b90565b610367565b610367565b61031c565b346113de576113da6113c66113bd366004611330565b929190916135f3565b6113d1939193610312565b938493846104c9565b0390f35b610318565b60018060a01b031690565b6113fe90600861140393026106f1565b6113e3565b90565b9061141191546113ee565b90565b61142060075f90611406565b90565b61142c90610895565b90565b61143890611423565b9052565b919061144f905f6020850194019061142f565b565b3461148157611461366004610320565b61147d61146c611414565b611474610312565b9182918261143c565b0390f35b610318565b611492600c5f90610c64565b90565b346114c5576114a5366004610320565b6114c16114b0611486565b6114b8610312565b918291826107fa565b0390f35b610318565b346114fa576114da366004610320565b6114f66114e561361d565b6114ed610312565b918291826107fa565b0390f35b610318565b3461152f5761150f366004610320565b61152b61151a613633565b611522610312565b91829182610742565b0390f35b610318565b919060408382031261155c5780611550611559925f8601610396565b936020016105ae565b90565b61031c565b346115905761157a611574366004611534565b906136f2565b611582610312565b8061158c8161032f565b0390f35b610318565b6115a1600e5f90610718565b90565b346115d4576115b4366004610320565b6115d06115bf611595565b6115c7610312565b91829182610742565b0390f35b610318565b6115e5600d5f90610c64565b90565b34611618576115f8366004610320565b6116146116036115d9565b61160b610312565b918291826107fa565b0390f35b610318565b3461164b576116356116303660046103a5565b61379a565b61163d610312565b806116478161032f565b0390f35b610318565b61165c60155f906108e1565b90565b3461168f5761166f366004610320565b61168b61167a611650565b611682610312565b91829182610915565b0390f35b610318565b346116c2576116ac6116a73660046103a5565b613817565b6116b4610312565b806116be8161032f565b0390f35b610318565b6116e06116e5926116db6010935f94610f36565b610f68565b6108e1565b90565b34611719576117156117046116fe366004610534565b906116c7565b61170c610312565b91829182610915565b0390f35b610318565b60018060a01b031690565b61173990600861173e93026106f1565b61171e565b90565b9061174c9154611729565b90565b61175b60085f90611741565b90565b61176790610895565b90565b6117739061175e565b9052565b919061178a905f6020850194019061176a565b565b346117bc5761179c366004610320565b6117b86117a761174f565b6117af610312565b91829182611777565b0390f35b610318565b5f80fd5b6117cd613822565b6117d5611821565b565b5f1b90565b906117e860ff916117d7565b9181191691161790565b6117fb90610595565b90565b90565b9061181661181161181d926117f2565b6117fe565b82546117dc565b9055565b61182c5f6015611801565b7fa42716464c1db5dcbde8f45245f86811504bf01f15d4a375a9bd025fdbafe860611855610312565b8061185f8161032f565b0390a1565b61186c6117c5565b565b61187f9061187a613822565b6118ac565b565b90565b61189861189361189d92611881565b6107c2565b61036b565b90565b6118a990611884565b90565b806118c76118c16118bc5f6118a0565b610376565b91610376565b14611929576118d4612dbd565b6118dd82613817565b9061191161190b7ff4e75b79500ab730f8a026ed3cba6d55331bcb64c9e9f60c548e371356e5e3c0936108a1565b916108a1565b9161191a610312565b806119248161032f565b0390a3565b5f63e6c4247b60e01b8152806119416004820161032f565b0390fd5b61194e9061186e565b565b611958613822565b611960611962565b565b61196a613633565b61198461197e6119795f6118a0565b610376565b91610376565b146119e357611999611994612dbd565b6138d4565b6119a1612dbd565b6119cb7f48a87225523c5fd46bf3b7da3223e5525f77b8136a962695d701a24699bef8f3916108a1565b906119d4610312565b806119de8161032f565b0390a2565b5f633e31d61b60e11b8152806119fb6004820161032f565b0390fd5b611a07611950565b565b5f90565b5f90565b90611a279594939291611a226138ea565b611a2c565b909192565b90611a429594939291611a3d613940565b611dbc565b909192611a4d6139c4565b565b5f1c90565b611a60611a6591611a4f565b6108c3565b90565b611a729054611a54565b90565b611a89611a84611a8e92611881565b6107c2565b61044f565b90565b60209181520190565b5f7f416d6f756e74206d7573742062652067726561746572207468616e207a65726f910152565b611acd60208092611a91565b611ad681611a9a565b0190565b611aef9060208101905f818303910152611ac1565b90565b15611af957565b611b01610312565b62461bcd60e51b815280611b1760048201611ada565b0390fd5b634e487b7160e01b5f52601160045260245ffd5b611b3e611b449193929361044f565b9261044f565b8203918211611b4f57565b611b1b565b611b60611b6591611a4f565b611052565b90565b611b729054611b54565b90565b611b81611b8691611a4f565b610c49565b90565b611b939054611b75565b90565b611ba06040610d52565b90565b90611bad90610429565b9052565b90611bbb9061044f565b9052565b916020611be0929493611bd960408201965f8301906104af565b01906104bc565b565b611bee611bf391611a4f565b610a35565b90565b611c009054611be2565b90565b611c0c90610895565b90565b611c1e611c249193929361044f565b9261044f565b8201809211611c2f57565b611b1b565b90611c405f19916117d7565b9181191691161790565b90565b90611c62611c5d611c6992610f4c565b611c4a565b8254611c34565b9055565b611c79611c7e91611a4f565b61171e565b90565b611c8b9054611c6d565b90565b5f80fd5b60e01b90565b90505190611ca58261042c565b565b90505190611cb482610452565b565b9190604083820312611cde5780611cd2611cdb925f8601611c98565b93602001611ca7565b90565b61031c565b611cec90610429565b9052565b611cf99061044f565b9052565b90602080611d1f93611d155f8201515f860190611ce3565b0151910190611cf0565b565b606090611d4a611d519496959396611d4060808401985f850190611cfd565b60408301906104af565b01906104af565b565b611d5b610312565b3d5f823e3d90fd5b611d6c90610429565b90565b90959492611dba94611da9611db392611d9f608096611d9560a088019c5f8901906104bc565b60208701906104bc565b60408501906104af565b60608301906104af565b01906104bc565b565b9593929495505050611dd7611dd16015611a68565b15610595565b611faa57611df781611df1611deb5f611a75565b9161044f565b11611af2565b611e0081612f31565b611e0b828290611b2f565b946040611e186009611b68565b611e42611e25600a611b89565b611e39611e30611b96565b935f8501611ba3565b60208301611bb1565b93611eab611e8788611e828b91611e73611e5a610312565b93849260046020850163bc6a9bd360e01b815201611bbf565b60208201810382520382610d29565b613b2b565b91611e926005611bf6565b90611e9b613b95565b611ea430611c03565b9192613c05565b611ec8611ec185611ebc6014611b89565b611c0f565b6014611c4d565b611eda611ed56008611c81565b61175e565b611efe5f631f6d510b979397611f0987611ef2610312565b9a8b9788968795611c92565b855260048501611d21565b03925af18015611fa5575f80949091611f72575b5092949086929092611f67858890611f557f71591b8502d8aa9640fa219fbfb8e23ffcd2a75edbd923826ef3ef77f6da4a8b96611d63565b96611f5e610312565b95869586611d6f565b0390a2919291929190565b9050611f9691935060403d8111611f9e575b611f8e8183610d29565b810190611cb6565b92905f611f1d565b503d611f84565b611d53565b5f63deeb694360e01b815280611fc26004820161032f565b0390fd5b90611fea9291611fd4611a09565b611fdc611a0d565b611fe4611a0d565b91611a11565b909192565b9061200191611ffc613822565b61201b565b565b61200c90610879565b90565b61201890612003565b90565b8061203661203061202b5f6118a0565b610376565b91610376565b146120ae576120566120478261200f565b61204f612dbd565b8491613c78565b9061205f612dbd565b90916120a96120976120917f77023e19c7343ad491fd706c36335ca0e738340a91f29b1fd81e2673d44896c4936108a1565b936108a1565b936120a0610312565b918291826107fa565b0390a3565b5f63e6c4247b60e01b8152806120c66004820161032f565b0390fd5b906120d491611fef565b565b906120ed9695949392916120e86138ea565b6120ef565b565b90612106969594939291612101613940565b6122b5565b61210e6139c4565b565b61211a6040610d52565b90565b9061212790610376565b9052565b60409061215461215b949695939661214a60608401985f850190610735565b60208301906104bc565b0190610735565b565b6121676060610d52565b90565b52565b52565b61217c61218191611a4f565b6113e3565b90565b61218e9054612170565b90565b5f91031261219b57565b61031c565b906020806121c2936121b85f8201515f860190611ce3565b0151910190611cf0565b565b6121cd90610376565b9052565b906020806121f3936121e95f8201515f8601906121c4565b0151910190611cf0565b565b90608060406122299361220e5f8201515f8601906121a0565b61221f6020820151838601906121d1565b0151910190611ce3565b565b60209181520190565b5f80fd5b9037565b9091826122489161222b565b9160018060fb1b03811161226b57829160206122679202938491612238565b0190565b612234565b9093916122b2959361229b6122a5926122916101008601985f8701906121f5565b60a08501906104bc565b60c08301906104bc565b60e081850391015261223c565b90565b949291959093956122d8856122d26122cc5f611a75565b9161044f565b11611af2565b6123b56122e56009611b68565b916123106122f3600a611b89565b6123076122fe611b96565b955f8701611ba3565b60208501611bb1565b6123ac61238e61231f30611c03565b926123414661233861232f612110565b965f880161211d565b60208601611bb1565b6123898b8b925f146124955761237a612358613b95565b5b612361610312565b948593600460208601631a4ca37b60e21b81520161212b565b60208201810382520382610d29565b613b2b565b916123a361239a61215d565b955f870161216a565b6020850161216d565b60408301611ba3565b6123e66123df6123cf6123c788612f31565b978890611b2f565b966123da6014611b89565b611c0f565b6014611c4d565b6123f86123f36007612184565b611423565b91637fb34967919397949091833b156124905761243661242b935f9793889461241f610312565b9c8d998a988997611c92565b875260048701612270565b03925af192831561248b5761245d9361245f575b506124556005611bf6565b919091613c78565b565b61247e905f3d8111612484575b6124768183610d29565b810190612191565b5f61244a565b503d61246c565b611d53565b611c8e565b61237a6124a15f6118a0565b612359565b906124b59695949392916120d6565b565b6124bf613822565b6124c76124c9565b565b6124d1613d25565b565b6124db6124b7565b565b6124e5613822565b6124ed6124ef565b565b6124f7613940565b6124ff61252a565b6125076139c4565b565b61251561251a91611a4f565b6106f5565b90565b6125279054612509565b90565b6125346014611b89565b806125476125415f611a75565b9161044f565b146125cb5761255f6125585f611a75565b6014611c4d565b61257d61256c6005611bf6565b612576601361251d565b8391613c78565b612587601361251d565b6125c66125b47fc0819c13be868895eb93e40eaceb96de976442fa1d404e5c55f14bb65a8c489a926108a1565b926125bd610312565b918291826107fa565b0390a2565b5f630d00db4d60e31b8152806125e36004820161032f565b0390fd5b6125ef6124dd565b565b5f90565b6125fd6125f1565b50612608601361251d565b90565b5f90565b61261761260b565b506126215f611a68565b90565b61263061263591611a4f565b610b3e565b90565b6126429054612624565b90565b61265961265461265e92611881565b6117d7565b610429565b90565b61266a90610879565b90565b61267690612661565b90565b9061268a60018060a01b03916117d7565b9181191691161790565b61269d90612661565b90565b90565b906126b86126b36126bf92612694565b6126a0565b8254612679565b9055565b6126cc90612003565b90565b90565b906126e76126e26126ee926126c3565b6126cf565b8254612679565b9055565b6126fb90611a4f565b90565b9061271361270e61271a92611d63565b6126f2565b8254611c34565b9055565b61272790610376565b90565b6127338161271e565b0361273a57565b5f80fd5b9050519061274b8261272a565b565b9060208282031261276657612763915f0161273e565b90565b61031c565b61277490610879565b90565b6127809061276b565b90565b61278c9061276b565b90565b90565b906127a76127a26127ae92612783565b61278f565b8254612679565b9055565b6127be6127c391611a4f565b61128d565b90565b6127d090546127b2565b90565b6127dc90610376565b90565b6127e8816127d3565b036127ef57565b5f80fd5b90505190612800826127df565b565b9060208282031261281b57612818915f016127f3565b90565b61031c565b61282990610879565b90565b61283590612820565b90565b90565b9061285061284b6128579261282c565b612838565b8254612679565b9055565b61286490610376565b90565b6128708161285b565b0361287757565b5f80fd5b9050519061288882612867565b565b906020828203126128a3576128a0915f0161287b565b90565b61031c565b6128b190610879565b90565b6128bd906128a8565b90565b90565b906128d86128d36128df926128b4565b6128c0565b8254612679565b9055565b906020828203126128fc576128f9915f01611ca7565b90565b61031c565b91909161290c613b95565b61293e6129387f0000000000000000000000000000000000000000000000000000000000000000610376565b91610376565b03612ce3576129556129506004612638565b610b7e565b61296f6129696129645f6118a0565b610376565b91610376565b03612cc8578061298f6129896129845f6118a0565b610376565b91610376565b148015612ca6575b8015612c84575b612c68576129b56129ae8261266d565b60046126a3565b6129c86129c18461200f565b60056126d2565b6129d38260096126fe565b612a0060206129ea6129e56004612638565b610b7e565b63971b0e6b906129f8610312565b938492611c92565b82528180612a106004820161032f565b03915afa8015612c6357612a32612a3791612a3e935f91612c35575b506112cd565b612777565b6006612792565b612a6b6020612a55612a5060066127c6565b6112cd565b63a32fbb7b90612a63610312565b938492611c92565b82528180612a7b6004820161032f565b03915afa8015612c3057612a98915f91612c02575b50600761283b565b612ac56020612aaf612aaa60066127c6565b6112cd565b63368c093c90612abd610312565b938492611c92565b82528180612ad56004820161032f565b03915afa8015612bfd57612af2915f91612bcf575b5060086128c3565b612b1f6020612b09612b0460066127c6565b6112cd565b630d8e6e2c90612b17610312565b938492611c92565b82528180612b2f6004820161032f565b03915afa8015612bca57612b4c915f91612b9c575b50600a611c4d565b919091612b97612b85612b7f7fce8c93fecc87ea28c5a92dea4f94ba0a51087dc17a2f11782aa2117dbd19b686936108a1565b936108a1565b93612b8e610312565b9182918261108a565b0390a3565b612bbd915060203d8111612bc3575b612bb58183610d29565b8101906128e3565b5f612b44565b503d612bab565b611d53565b612bf0915060203d8111612bf6575b612be88183610d29565b81019061288a565b5f612aea565b503d612bde565b611d53565b612c23915060203d8111612c29575b612c1b8183610d29565b810190612802565b5f612a90565b503d612c11565b611d53565b612c56915060203d8111612c5c575b612c4e8183610d29565b81019061274d565b5f612a2c565b503d612c44565b611d53565b5f63e6c4247b60e01b815280612c806004820161032f565b0390fd5b5081612ca0612c9a612c955f612645565b610429565b91610429565b1461299e565b5082612cc2612cbc612cb75f6118a0565b610376565b91610376565b14612997565b5f62dc149f60e41b815280612cdf6004820161032f565b0390fd5b5f6282b42960e81b815280612cfa6004820161032f565b0390fd5b612d06613822565b612d0e612d10565b565b612d1c60016015611801565b7f92157b8195c8c3ac00efedfa7044da4ff96d1ce98df0c0a14f62f0ae09caaaf6612d45610312565b80612d4f8161032f565b0390a1565b612d5c612cfe565b565b612d66613822565b612d6e612d70565b565b612d81612d7c5f6118a0565b6138d4565b565b612d8b612d5e565b565b612d95613d2f565b565b612d9f613822565b612da7612da9565b565b612db1613de0565b565b612dbb612d97565b565b612dc56125f1565b50612dd0600261251d565b90565b612de490612ddf613822565b612de6565b565b80612e00612dfa612df56107e1565b61044f565b9161044f565b11612e4b57612e10816012611c4d565b612e467f8c4d35e54a3f2ef1134138fd8ea3daee6a3c89e10d2665996babdf70261e2c7691612e3d610312565b918291826107fa565b0390a1565b5f63cd4e616760e01b815280612e636004820161032f565b0390fd5b612e7090612dd3565b565b612ea491612e7e61260b565b50612e87613b95565b91612e92600c611b89565b90612e9d600d611b89565b9293613ee5565b90565b612eb6612ebc9193929361044f565b9261044f565b91612ec883820261044f565b928184041490151715612ed757565b611b1b565b90565b612ef3612eee612ef892612edc565b6107c2565b61044f565b90565b634e487b7160e01b5f52601260045260245ffd5b612f1b612f219161044f565b9161044f565b908115612f2c570490565b612efb565b612f51612f6291612f40611a0d565b50612f4b6012611b89565b90612ea7565b612f5c612710612edf565b90612f0f565b90565b91612f869391612f7361260b565b50612f7c613b95565b9390919293613fda565b90565b90612f9d939291612f98613822565b612fe5565b565b90565b90612fb7612fb2612fbe926108a1565b612f9f565b8254612679565b9055565b916020612fe3929493612fdc60408201965f8301906104bc565b01906104bc565b565b92919280613003612ffd612ff85f6118a0565b610376565b91610376565b146130bf578261302361301d6130185f6118a0565b610376565b91610376565b146130a35761303381600b612fa2565b61303e82600c611c4d565b61304984600d611c4d565b61305483600e612fa2565b90926130896130837f1107ee7c7b3754e79d9bd0f8b9fcf26fc114196fe80f4c3c7ba7d0efbbae0924936108a1565b936108a1565b9361309e613095610312565b92839283612fc2565b0390a3565b5f63e6c4247b60e01b8152806130bb6004820161032f565b0390fd5b5f63e6c4247b60e01b8152806130d76004820161032f565b0390fd5b906130e7939291612f89565b565b90613101979695949392916130fc6138ea565b613106565b909192565b9061311e97969594939291613119613940565b61312b565b9091926131296139c4565b565b97959397969294965050506131496131436015611a68565b15610595565b6133555761316a61316461315f601133906108ad565b611a68565b15610595565b613339576131989261318e876131886131825f611a75565b9161044f565b11611af2565b918690919261412a565b6131a183612f31565b926131ad818590611b2f565b9360406131ba6009611b68565b6131e46131c7600a611b89565b6131db6131d2611b96565b935f8501611ba3565b60208301611bb1565b926132446132276132136132228a6131fa610312565b9283916004602084016311675ebd60e31b8152016107fa565b60208201810382520382610d29565b613b2b565b916132326005611bf6565b903361323d30611c03565b9192613c05565b61326161325a846132556014611b89565b611c0f565b6014611c4d565b61327361326e6008611c81565b61175e565b6132975f631f6d510b9693966132a28a61328b610312565b998a9788968795611c92565b855260048501611d21565b03925af18015613334575f80939091613301575b509193859190916132f68487907fec915cbb614f4e8d4e71c5f18aa49dbb6e41d25ab75f44560c28ea05916168c3956132ed610312565b95869586611d6f565b0390a1919291929190565b905061332591925060403d811161332d575b61331d8183610d29565b810190611cb6565b91905f6132b6565b503d613313565b611d53565b5f63aa41dc9f60e01b8152806133516004820161032f565b0390fd5b5f63deeb694360e01b81528061336d6004820161032f565b0390fd5b9061339794939291613381611a09565b613389611a0d565b613391611a0d565b916130e9565b909192565b906133b39695949392916133ae6138ea565b6133b8565b909192565b906133cf9695949392916133ca613940565b6133dc565b9091926133da6139c4565b565b969492969593955050506133f96133f36015611a68565b15610595565b6135d75761342f9161341d866134176134115f611a75565b9161044f565b11611af2565b613425613b95565b918690919261412a565b61343883612f31565b92613444818590611b2f565b9360406134516009611b68565b61347b61345e600a611b89565b613472613469611b96565b935f8501611ba3565b60208301611bb1565b926134e26134be6134aa6134b98a613491610312565b9283916004602084016311675ebd60e31b8152016107fa565b60208201810382520382610d29565b613b2b565b916134c96005611bf6565b906134d2613b95565b6134db30611c03565b9192613c05565b6134ff6134f8846134f36014611b89565b611c0f565b6014611c4d565b61351161350c6008611c81565b61175e565b6135355f631f6d510b9693966135408a613529610312565b998a9788968795611c92565b855260048501611d21565b03925af180156135d2575f8093909161359f575b509193859190916135948487907fec915cbb614f4e8d4e71c5f18aa49dbb6e41d25ab75f44560c28ea05916168c39561358b610312565b95869586611d6f565b0390a1919291929190565b90506135c391925060403d81116135cb575b6135bb8183610d29565b810190611cb6565b91905f613554565b503d6135b1565b611d53565b5f63deeb694360e01b8152806135ef6004820161032f565b0390fd5b90613618939291613602611a09565b61360a611a0d565b613612611a0d565b9161339c565b909192565b613625611a0d565b506136306014611b89565b90565b61363b6125f1565b50613646600361251d565b90565b9061365b91613656613822565b61365d565b565b8061367861367261366d5f6118a0565b610376565b91610376565b146136d6576136928261368d601184906108ad565b611801565b6136d16136bf7fbee55516e29d3969d3cb8eb01351eb3c52d06f9e2435bd5a8bfe3647e185df92926108a1565b926136c8610312565b91829182610915565b0390a2565b5f63e6c4247b60e01b8152806136ee6004820161032f565b0390fd5b906136fc91613649565b565b61370f9061370a613822565b613711565b565b8061372c6137266137215f6118a0565b610376565b91610376565b1461377e5761373c816013612fa2565b6137667f7a7b5a0a132f9e0581eb8527f66eae9ee89c2a3e79d4ac7e41a1f1f4d48a7fc2916108a1565b9061376f610312565b806137798161032f565b0390a2565b5f63e6c4247b60e01b8152806137966004820161032f565b0390fd5b6137a3906136fe565b565b6137b6906137b1613822565b6137b8565b565b6137c3816003612fa2565b6137cb612dbd565b906137ff6137f97f38d16b8cac22d99fc7c124b9cd0de2d3fa1faef420bfe791d8c362d765e22700936108a1565b916108a1565b91613808610312565b806138128161032f565b0390a3565b613820906137a5565b565b61382a612dbd565b61384361383d613838613b95565b610376565b91610376565b0361384a57565b61386c613855613b95565b5f91829163118cdaa760e01b835260048301610742565b0390fd5b1b90565b9190600861389491029161388e60018060a01b0384613870565b92613870565b9181191691161790565b91906138b46138af6138bc936108a1565b612f9f565b908354613874565b9055565b6138d2916138cc6125f1565b9161389e565b565b6138e8906138e35f60036138c0565b6143a0565b565b6138f261260f565b6138f857565b5f63d93c066560e01b8152806139106004820161032f565b0390fd5b90565b61392b61392661393092613914565b6107c2565b61044f565b90565b61393d6002613917565b90565b61394a6001611b89565b61396361395d613958613933565b61044f565b9161044f565b1461397c5761397a613973613933565b6001611c4d565b565b5f633ee5aeb560e01b8152806139946004820161032f565b0390fd5b90565b6139af6139aa6139b492613998565b6107c2565b61044f565b90565b6139c1600161399b565b90565b6139d66139cf6139b7565b6001611c4d565b565b906139ea6139e583610d67565b610d52565b918252565b369037565b90613a19613a01836139d8565b92602080613a0f8693610d67565b92019103906139ef565b565b5190565b905090565b90825f9392825e0152565b613a54613a4b92602092613a4281613a1b565b94858093613a1f565b93849101613a24565b0190565b613a6191613a2f565b90565b60ff191690565b613a7490613a64565b90565b90565b613a86613a8b91613a64565b613a77565b9052565b613a9f613aa691601f9493613a2f565b8092613a7a565b0190565b613ac99291613ad591613abb610312565b948592602084019283613a8f565b90810382520383610d29565b565b60200190565b613ae79051610429565b90565b613b04613aff613af983613a1b565b92613ad7565b613add565b9060208110613b12575b5090565b613b24905f1990602003600802613870565b165f613b0e565b613b33611a09565b5060205f613b5e613b4c613b47600161399b565b6139f4565b93613b55610312565b91829182613a58565b039060025afa15613b9057613b88613b8d91613b82613b7d5f516117d7565b613a6b565b90613aaa565b613aea565b90565b611d53565b613b9d6125f1565b503390565b63ffffffff1690565b63ffffffff60e01b1690565b613bcb613bc6613bd092613ba2565b611c92565b613bab565b90565b604090613bfc613c039496959396613bf260608401985f850190610735565b6020830190610735565b01906104bc565b565b600492613c3f613c539593613c4e9394613c266323b872dd92949192613bb7565b93613c2f610312565b9788956020870190815201613bd3565b60208201810382520383610d29565b614401565b565b916020613c76929493613c6f60408201965f830190610735565b01906104bc565b565b90613cbf613cc493613cb060049493613c9763a9059cbb919391613bb7565b92613ca0610312565b9687946020860190815201613c55565b60208201810382520383610d29565b614401565b565b613cce6144b5565b613cd6613cd8565b565b613ce25f5f611801565b613cea613b95565b613d207f5db9ee0a495bf2e6ff9c91a7834c1ba4fdd244a5e8aa4e537bd38aeae4b073aa91613d17610312565b91829182610742565b0390a1565b613d2d613cc6565b565b613d37613b95565b613d3f613633565b613d51613d4b83610376565b91610376565b03613d6157613d5f906138d4565b565b613d7c905f91829163118cdaa760e01b835260048301610742565b0390fd5b613d886138ea565b613d90613d92565b565b613d9d60015f611801565b613da5613b95565b613ddb7f62e78cea01bee320cd4e420270b5ea74000d11b0c9f74754ebdbfc544b05a25891613dd2610312565b91829182610742565b0390a1565b613de8613d80565b565b90565b613df9613dfe9161044f565b613dea565b9052565b60601b90565b613e1190613e02565b90565b613e1d90613e08565b90565b613e2c613e3191610376565b613e14565b9052565b92613e626020613e6a94613e5a8288613e5260149b9a8399613ded565b018092613ded565b018092613ded565b018092613e20565b0190565b905090565b5f7f19457468657265756d205369676e6564204d6573736167653a0a333200000000910152565b613ea6601c8092613e6e565b613eaf81613e73565b0190565b90565b613ec2613ec791610429565b613eb3565b9052565b90613ee1613eda602093613e9a565b8092613eb6565b0190565b92613f27613f4e93613f18613f759796613f5d95613f0161260b565b509294613f0c610312565b95869460208601613e35565b60208201810382520382610d29565b613f39613f3382613a1b565b91613ad7565b20613f42610312565b92839160208301613ecb565b60208201810382520382610d29565b613f6f613f6982613a1b565b91613ad7565b206144e8565b613f90613f8a613f85600b61251d565b610376565b91610376565b1490565b6020613fd694613fc6828096613fbe601487613fb6613fce99839f9e9b613e20565b018092613ded565b018092613ded565b018092613ded565b018092613e20565b0190565b9091939293613fe761260b565b5042613ffb613ff58761044f565b9161044f565b116140af5761404261406993614033614090976140789592949061401e30611c03565b91614027610312565b96879560208701613f94565b60208201810382520382610d29565b61405461404e82613a1b565b91613ad7565b2061405d610312565b92839160208301613ecb565b60208201810382520382610d29565b61408a61408482613a1b565b91613ad7565b206144e8565b6140ab6140a56140a0600e61251d565b610376565b91610376565b1490565b50505050505f90565b5f80fd5b5f80fd5b5f80fd5b903590600160200381360303821215614106570180359067ffffffffffffffff8211614101576020019160018202360383136140fc57565b6140c0565b6140bc565b6140b8565b5090565b3561411981610452565b90565b614127913691610d95565b90565b915f61414361413d8360208101906140c4565b9061410b565b61415561414f5f611a75565b9161044f565b116142e1575b614166915015610595565b614170575b505050565b6141876141818460608101906140c4565b9061410b565b6141996141935f611a75565b9161044f565b146142c5576141c76141c26141b0600f8590610f36565b6141bc6020870161410f565b90610f68565b611a68565b6142a957614219614213836141dd5f870161410f565b6141e96020880161410f565b6141f56040890161410f565b9161420d6142078a60608101906140c4565b9061411c565b93613fda565b15610595565b61428d5761423961423361422e5f860161410f565b61044f565b9161044f565b11614271576142646142699261425e6020614257600195600f610f36565b920161410f565b90610f68565b611801565b5f808061416b565b5f63172bd6a160e31b8152806142896004820161032f565b0390fd5b5f631050484960e01b8152806142a56004820161032f565b0390fd5b5f63236dea5560e21b8152806142c16004820161032f565b0390fd5b5f6304bc4ab760e31b8152806142dd6004820161032f565b0390fd5b5061430a6143056142f460108690610f36565b6142ff5f850161410f565b90610f68565b611a68565b614384576141669061437f614356856143245f850161410f565b61432e600c611b89565b614338600d611b89565b9161435061434a8860208101906140c4565b9061411c565b93613ee5565b9161437a6001916143745f61436d60108b90610f36565b920161410f565b90610f68565b611801565b61415b565b5f636356e6ef60e11b81528061439c6004820161032f565b0390fd5b6143aa600261251d565b6143b5826002612fa2565b906143e96143e37f8be0079c531659141344cd1fd0a4f28419497f9722a3daafe3b4186f6b6457e0936108a1565b916108a1565b916143f2610312565b806143fc8161032f565b0390a3565b905f60209161440e611a0d565b50614417611a0d565b50828151910182855af1156144aa573d5f519061443c6144365f611a75565b9161044f565b145f14614490575061444d81610a75565b3b61446061445a5f611a75565b9161044f565b145b6144695750565b61447561448c91610a75565b5f918291635274afe760e01b835260048301610742565b0390fd5b6144a361449d600161399b565b9161044f565b1415614462565b6040513d5f823e3d90fd5b6144c66144c061260f565b15610595565b6144cc57565b5f638dfc202b60e01b8152806144e46004820161032f565b0390fd5b614507916144fe916144f86125f1565b5061454d565b90929192614635565b90565b5f90565b90565b61452561452061452a9261450e565b6107c2565b61044f565b90565b61454161453c6145469261044f565b6117d7565b610429565b90565b5f90565b9190916145586125f1565b5061456161450a565b5061456a611a09565b5061457483613a1b565b6145876145816041614511565b9161044f565b145f146145ce576145c7919261459b611a09565b506145a4611a09565b506145ad614549565b506020810151606060408301519201515f1a909192614776565b9192909190565b506145d85f6118a0565b906145ec6145e7600294613a1b565b61452d565b91929190565b634e487b7160e01b5f52602160045260245ffd5b6004111561461057565b6145f2565b9061461f82614606565b565b61462d61463291611a4f565b610f4c565b90565b806146486146425f614615565b91614615565b145f14614653575050565b806146676146616001614615565b91614615565b145f1461468a575f63f645eedf60e01b8152806146866004820161032f565b0390fd5b8061469e6146986002614615565b91614615565b145f146146cc576146c86146b183614621565b5f91829163fce698f760e01b8352600483016107fa565b0390fd5b6146df6146d96003614615565b91614615565b146146e75750565b614702905f9182916335e2f38360e21b83526004830161108a565b0390fd5b90565b61471d61471861472292614706565b6107c2565b61044f565b90565b60ff1690565b61473490614725565b9052565b61476d61477494614763606094989795614759608086019a5f8701906104af565b602085019061472b565b60408301906104af565b01906104af565b565b9392936147816125f1565b5061478a61450a565b50614793611a09565b5061479d85614621565b6147cf6147c97f7fffffffffffffffffffffffffffffff5d576e7357a4501ddfe92f46681b20a0614709565b9161044f565b1161485c57906147f2602094955f949392936147e9610312565b94859485614738565b838052039060015afa156148575761480a5f516117d7565b8061482561481f61481a5f6118a0565b610376565b91610376565b1461483b575f916148355f612645565b91929190565b506148455f6118a0565b6001916148515f612645565b91929190565b611d53565b5050506148685f6118a0565b906003929192919056fea26469706673582212203f8b39b6b213f7fae95855cfa467c6163a1a07465b5338195986ce4d8e37ca4d64736f6c634300081c0033","linkReferences":{}},"methodIdentifiers":{"MAX_FEE_BASIS_POINTS()":"4befe2ca","acceptOwnership()":"79ba5097","calculateFee(uint256)":"99a5d747","cancelOwnershipTransfer()":"23452b9c","cleanHandsActionId()":"eff3facf","cleanHandsCircuitId()":"d1a79008","cleanHandsNonces(address,uint256)":"f9148fa1","collectedFees()":"9003adfe","depositToAztecPrivate(uint256,bytes32,(uint256,bytes),(uint256,uint256,uint256,bytes))":"cb334616","depositToAztecPrivateFor(address,uint256,bytes32,(uint256,bytes),(uint256,uint256,uint256,bytes))":"c631bfa8","depositToAztecPublic(bytes32,uint256,bytes32)":"284b5dc6","depositsActive()":"f275c0ce","feeBasisPoints()":"b8606eef","feeRecipient()":"46904840","getCollectedFees()":"d54a8d18","getFeeRecipient()":"4ccb20c0","humanIdAttester()":"b0a00e15","inbox()":"fb0e722b","initialize(address,address,bytes32)":"6133f985","l2Bridge()":"ae1f6aaf","outbox()":"ce11e6ab","owner()":"8da5cb5b","passportNonces(address,uint256)":"ab3d25ac","passportSigner()":"eb50136f","pause()":"8456cb59","pauseDeposits()":"02191980","paused()":"5c975abb","pendingOwner()":"e30c3978","proposeOwnershipTransfer(address)":"21040fc3","registry()":"7b103999","renounceOwnership()":"715018a6","rescueToken(address,uint256)":"33f3d628","rollup()":"cb23bcb5","rollupVersion()":"b0893887","setTrustedForwarder(address,bool)":"e691d03b","transferOwnership(address)":"f2fde38b","trustedForwarders(address)":"54776bb9","underlying()":"6f307dc3","unpause()":"3f4ba83a","unpauseDeposits()":"63d8882a","updateAttestationConfig(address,uint256,uint256,address)":"ac1d201b","updateFee(uint256)":"9012c4a8","updateFeeRecipient(address)":"f160d369","verifyCleanHandsSignature(uint256,bytes)":"90f27f80","verifyPassportSignature(uint256,uint256,uint256,bytes)":"a491a4fc","withdraw(address,uint256,bool,uint256,uint256,bytes32[])":"3ba57310","withdrawFees()":"476343ee"},"id":92}