{"abi":[{"type":"constructor","inputs":[{"name":"_initialOwner","type":"address","internalType":"address"},{"name":"_feeRecipient","type":"address","internalType":"address"},{"name":"_feeBasisPoints","type":"uint256","internalType":"uint256"},{"name":"_humanIdAttester","type":"address","internalType":"address"},{"name":"_cleanHandsCircuitId","type":"uint256","internalType":"uint256"},{"name":"_passportSigner","type":"address","internalType":"address"}],"stateMutability":"nonpayable"},{"type":"function","name":"MAX_FEE_BASIS_POINTS","inputs":[],"outputs":[{"name":"","type":"uint256","internalType":"uint256"}],"stateMutability":"view"},{"type":"function","name":"acceptOwnership","inputs":[],"outputs":[],"stateMutability":"nonpayable"},{"type":"function","name":"calculateFee","inputs":[{"name":"_amount","type":"uint256","internalType":"uint256"}],"outputs":[{"name":"","type":"uint256","internalType":"uint256"}],"stateMutability":"view"},{"type":"function","name":"cancelOwnershipTransfer","inputs":[],"outputs":[],"stateMutability":"nonpayable"},{"type":"function","name":"cleanHandsCircuitId","inputs":[],"outputs":[{"name":"","type":"uint256","internalType":"uint256"}],"stateMutability":"view"},{"type":"function","name":"cleanHandsNonces","inputs":[{"name":"","type":"address","internalType":"address"},{"name":"","type":"uint256","internalType":"uint256"}],"outputs":[{"name":"","type":"bool","internalType":"bool"}],"stateMutability":"view"},{"type":"function","name":"collectedFees","inputs":[],"outputs":[{"name":"","type":"uint256","internalType":"uint256"}],"stateMutability":"view"},{"type":"function","name":"depositToAztecPrivate","inputs":[{"name":"_amount","type":"uint256","internalType":"uint256"},{"name":"_secretHashForL2MessageConsumption","type":"bytes32","internalType":"bytes32"},{"name":"_cleanHands","type":"tuple","internalType":"struct TokenPortal.CleanHandsData","components":[{"name":"nonce","type":"uint256","internalType":"uint256"},{"name":"actionId","type":"uint256","internalType":"uint256"},{"name":"signature","type":"bytes","internalType":"bytes"}]},{"name":"_passport","type":"tuple","internalType":"struct TokenPortal.PassportData","components":[{"name":"maxAmount","type":"uint256","internalType":"uint256"},{"name":"nonce","type":"uint256","internalType":"uint256"},{"name":"deadline","type":"uint256","internalType":"uint256"},{"name":"signature","type":"bytes","internalType":"bytes"}]}],"outputs":[{"name":"","type":"bytes32","internalType":"bytes32"},{"name":"","type":"uint256","internalType":"uint256"},{"name":"","type":"uint256","internalType":"uint256"}],"stateMutability":"nonpayable"},{"type":"function","name":"depositToAztecPrivateFor","inputs":[{"name":"_depositor","type":"address","internalType":"address"},{"name":"_amount","type":"uint256","internalType":"uint256"},{"name":"_secretHashForL2MessageConsumption","type":"bytes32","internalType":"bytes32"},{"name":"_cleanHands","type":"tuple","internalType":"struct TokenPortal.CleanHandsData","components":[{"name":"nonce","type":"uint256","internalType":"uint256"},{"name":"actionId","type":"uint256","internalType":"uint256"},{"name":"signature","type":"bytes","internalType":"bytes"}]},{"name":"_passport","type":"tuple","internalType":"struct TokenPortal.PassportData","components":[{"name":"maxAmount","type":"uint256","internalType":"uint256"},{"name":"nonce","type":"uint256","internalType":"uint256"},{"name":"deadline","type":"uint256","internalType":"uint256"},{"name":"signature","type":"bytes","internalType":"bytes"}]}],"outputs":[{"name":"","type":"bytes32","internalType":"bytes32"},{"name":"","type":"uint256","internalType":"uint256"},{"name":"","type":"uint256","internalType":"uint256"}],"stateMutability":"nonpayable"},{"type":"function","name":"depositToAztecPublic","inputs":[{"name":"_to","type":"bytes32","internalType":"bytes32"},{"name":"_amount","type":"uint256","internalType":"uint256"},{"name":"_secretHash","type":"bytes32","internalType":"bytes32"}],"outputs":[{"name":"","type":"bytes32","internalType":"bytes32"},{"name":"","type":"uint256","internalType":"uint256"},{"name":"","type":"uint256","internalType":"uint256"}],"stateMutability":"nonpayable"},{"type":"function","name":"feeBasisPoints","inputs":[],"outputs":[{"name":"","type":"uint256","internalType":"uint256"}],"stateMutability":"view"},{"type":"function","name":"feeRecipient","inputs":[],"outputs":[{"name":"","type":"address","internalType":"address"}],"stateMutability":"view"},{"type":"function","name":"getCollectedFees","inputs":[],"outputs":[{"name":"","type":"uint256","internalType":"uint256"}],"stateMutability":"view"},{"type":"function","name":"getFeeRecipient","inputs":[],"outputs":[{"name":"","type":"address","internalType":"address"}],"stateMutability":"view"},{"type":"function","name":"humanIdAttester","inputs":[],"outputs":[{"name":"","type":"address","internalType":"address"}],"stateMutability":"view"},{"type":"function","name":"inbox","inputs":[],"outputs":[{"name":"","type":"address","internalType":"contract IInbox"}],"stateMutability":"view"},{"type":"function","name":"initialize","inputs":[{"name":"_registry","type":"address","internalType":"address"},{"name":"_underlying","type":"address","internalType":"address"},{"name":"_l2Bridge","type":"bytes32","internalType":"bytes32"}],"outputs":[],"stateMutability":"nonpayable"},{"type":"function","name":"l2Bridge","inputs":[],"outputs":[{"name":"","type":"bytes32","internalType":"bytes32"}],"stateMutability":"view"},{"type":"function","name":"outbox","inputs":[],"outputs":[{"name":"","type":"address","internalType":"contract IOutbox"}],"stateMutability":"view"},{"type":"function","name":"owner","inputs":[],"outputs":[{"name":"","type":"address","internalType":"address"}],"stateMutability":"view"},{"type":"function","name":"passportNonces","inputs":[{"name":"","type":"address","internalType":"address"},{"name":"","type":"uint256","internalType":"uint256"}],"outputs":[{"name":"","type":"bool","internalType":"bool"}],"stateMutability":"view"},{"type":"function","name":"passportSigner","inputs":[],"outputs":[{"name":"","type":"address","internalType":"address"}],"stateMutability":"view"},{"type":"function","name":"pause","inputs":[],"outputs":[],"stateMutability":"nonpayable"},{"type":"function","name":"paused","inputs":[],"outputs":[{"name":"","type":"bool","internalType":"bool"}],"stateMutability":"view"},{"type":"function","name":"pendingOwner","inputs":[],"outputs":[{"name":"","type":"address","internalType":"address"}],"stateMutability":"view"},{"type":"function","name":"proposeOwnershipTransfer","inputs":[{"name":"newOwner","type":"address","internalType":"address"}],"outputs":[],"stateMutability":"nonpayable"},{"type":"function","name":"registry","inputs":[],"outputs":[{"name":"","type":"address","internalType":"contract IRegistry"}],"stateMutability":"view"},{"type":"function","name":"renounceOwnership","inputs":[],"outputs":[],"stateMutability":"nonpayable"},{"type":"function","name":"rescueToken","inputs":[{"name":"_token","type":"address","internalType":"address"},{"name":"_amount","type":"uint256","internalType":"uint256"}],"outputs":[],"stateMutability":"nonpayable"},{"type":"function","name":"rollup","inputs":[],"outputs":[{"name":"","type":"address","internalType":"contract IRollup"}],"stateMutability":"view"},{"type":"function","name":"rollupVersion","inputs":[],"outputs":[{"name":"","type":"uint256","internalType":"uint256"}],"stateMutability":"view"},{"type":"function","name":"setTrustedForwarder","inputs":[{"name":"_forwarder","type":"address","internalType":"address"},{"name":"_trusted","type":"bool","internalType":"bool"}],"outputs":[],"stateMutability":"nonpayable"},{"type":"function","name":"transferOwnership","inputs":[{"name":"newOwner","type":"address","internalType":"address"}],"outputs":[],"stateMutability":"nonpayable"},{"type":"function","name":"trustedForwarders","inputs":[{"name":"","type":"address","internalType":"address"}],"outputs":[{"name":"","type":"bool","internalType":"bool"}],"stateMutability":"view"},{"type":"function","name":"underlying","inputs":[],"outputs":[{"name":"","type":"address","internalType":"contract IERC20"}],"stateMutability":"view"},{"type":"function","name":"unpause","inputs":[],"outputs":[],"stateMutability":"nonpayable"},{"type":"function","name":"updateAttestationConfig","inputs":[{"name":"_attester","type":"address","internalType":"address"},{"name":"_circuitId","type":"uint256","internalType":"uint256"},{"name":"_signer","type":"address","internalType":"address"}],"outputs":[],"stateMutability":"nonpayable"},{"type":"function","name":"updateFee","inputs":[{"name":"_newFeeBasisPoints","type":"uint256","internalType":"uint256"}],"outputs":[],"stateMutability":"nonpayable"},{"type":"function","name":"updateFeeRecipient","inputs":[{"name":"_newFeeRecipient","type":"address","internalType":"address"}],"outputs":[],"stateMutability":"nonpayable"},{"type":"function","name":"verifyCleanHandsSignature","inputs":[{"name":"nonce","type":"uint256","internalType":"uint256"},{"name":"circuitId","type":"uint256","internalType":"uint256"},{"name":"actionId","type":"uint256","internalType":"uint256"},{"name":"signature","type":"bytes","internalType":"bytes"}],"outputs":[{"name":"","type":"bool","internalType":"bool"}],"stateMutability":"view"},{"type":"function","name":"verifyPassportSignature","inputs":[{"name":"maxAmount","type":"uint256","internalType":"uint256"},{"name":"nonce","type":"uint256","internalType":"uint256"},{"name":"deadline","type":"uint256","internalType":"uint256"},{"name":"signature","type":"bytes","internalType":"bytes"}],"outputs":[{"name":"","type":"bool","internalType":"bool"}],"stateMutability":"view"},{"type":"function","name":"withdraw","inputs":[{"name":"_recipient","type":"address","internalType":"address"},{"name":"_amount","type":"uint256","internalType":"uint256"},{"name":"_withCaller","type":"bool","internalType":"bool"},{"name":"_l2BlockNumber","type":"uint256","internalType":"uint256"},{"name":"_leafIndex","type":"uint256","internalType":"uint256"},{"name":"_path","type":"bytes32[]","internalType":"bytes32[]"}],"outputs":[],"stateMutability":"nonpayable"},{"type":"function","name":"withdrawFees","inputs":[],"outputs":[],"stateMutability":"nonpayable"},{"type":"event","name":"AttestationConfigUpdated","inputs":[{"name":"attester","type":"address","indexed":true,"internalType":"address"},{"name":"circuitId","type":"uint256","indexed":false,"internalType":"uint256"},{"name":"signer","type":"address","indexed":true,"internalType":"address"}],"anonymous":false},{"type":"event","name":"DepositToAztecPrivate","inputs":[{"name":"amount","type":"uint256","indexed":false,"internalType":"uint256"},{"name":"fee","type":"uint256","indexed":false,"internalType":"uint256"},{"name":"secretHash","type":"bytes32","indexed":false,"internalType":"bytes32"},{"name":"key","type":"bytes32","indexed":false,"internalType":"bytes32"},{"name":"index","type":"uint256","indexed":false,"internalType":"uint256"}],"anonymous":false},{"type":"event","name":"DepositToAztecPublic","inputs":[{"name":"to","type":"bytes32","indexed":true,"internalType":"bytes32"},{"name":"amount","type":"uint256","indexed":false,"internalType":"uint256"},{"name":"fee","type":"uint256","indexed":false,"internalType":"uint256"},{"name":"secretHash","type":"bytes32","indexed":false,"internalType":"bytes32"},{"name":"key","type":"bytes32","indexed":false,"internalType":"bytes32"},{"name":"index","type":"uint256","indexed":false,"internalType":"uint256"}],"anonymous":false},{"type":"event","name":"FeeRecipientUpdated","inputs":[{"name":"newFeeRecipient","type":"address","indexed":true,"internalType":"address"}],"anonymous":false},{"type":"event","name":"FeeUpdated","inputs":[{"name":"newFeeBasisPoints","type":"uint256","indexed":false,"internalType":"uint256"}],"anonymous":false},{"type":"event","name":"FeesWithdrawn","inputs":[{"name":"recipient","type":"address","indexed":true,"internalType":"address"},{"name":"amount","type":"uint256","indexed":false,"internalType":"uint256"}],"anonymous":false},{"type":"event","name":"Initialized","inputs":[{"name":"registry","type":"address","indexed":true,"internalType":"address"},{"name":"underlying","type":"address","indexed":true,"internalType":"address"},{"name":"l2Bridge","type":"bytes32","indexed":false,"internalType":"bytes32"}],"anonymous":false},{"type":"event","name":"OwnershipTransferCancelled","inputs":[{"name":"currentOwner","type":"address","indexed":true,"internalType":"address"}],"anonymous":false},{"type":"event","name":"OwnershipTransferProposed","inputs":[{"name":"previousOwner","type":"address","indexed":true,"internalType":"address"},{"name":"newOwner","type":"address","indexed":true,"internalType":"address"}],"anonymous":false},{"type":"event","name":"OwnershipTransferStarted","inputs":[{"name":"previousOwner","type":"address","indexed":true,"internalType":"address"},{"name":"newOwner","type":"address","indexed":true,"internalType":"address"}],"anonymous":false},{"type":"event","name":"OwnershipTransferred","inputs":[{"name":"previousOwner","type":"address","indexed":true,"internalType":"address"},{"name":"newOwner","type":"address","indexed":true,"internalType":"address"}],"anonymous":false},{"type":"event","name":"Paused","inputs":[{"name":"account","type":"address","indexed":false,"internalType":"address"}],"anonymous":false},{"type":"event","name":"TokensRescued","inputs":[{"name":"token","type":"address","indexed":true,"internalType":"address"},{"name":"to","type":"address","indexed":true,"internalType":"address"},{"name":"amount","type":"uint256","indexed":false,"internalType":"uint256"}],"anonymous":false},{"type":"event","name":"TrustedForwarderUpdated","inputs":[{"name":"forwarder","type":"address","indexed":true,"internalType":"address"},{"name":"trusted","type":"bool","indexed":false,"internalType":"bool"}],"anonymous":false},{"type":"event","name":"Unpaused","inputs":[{"name":"account","type":"address","indexed":false,"internalType":"address"}],"anonymous":false},{"type":"error","name":"AlreadyInitialized","inputs":[]},{"type":"error","name":"AmountExceedsLimit","inputs":[]},{"type":"error","name":"CleanHandsNonceUsed","inputs":[]},{"type":"error","name":"ECDSAInvalidSignature","inputs":[]},{"type":"error","name":"ECDSAInvalidSignatureLength","inputs":[{"name":"length","type":"uint256","internalType":"uint256"}]},{"type":"error","name":"ECDSAInvalidSignatureS","inputs":[{"name":"s","type":"bytes32","internalType":"bytes32"}]},{"type":"error","name":"EnforcedPause","inputs":[]},{"type":"error","name":"ExpectedPause","inputs":[]},{"type":"error","name":"FeeTooHigh","inputs":[]},{"type":"error","name":"InvalidAddress","inputs":[]},{"type":"error","name":"InvalidPassportSignature","inputs":[]},{"type":"error","name":"InvalidVerification","inputs":[]},{"type":"error","name":"NoFeesToWithdraw","inputs":[]},{"type":"error","name":"NoPendingOwner","inputs":[]},{"type":"error","name":"NotTrustedForwarder","inputs":[]},{"type":"error","name":"OwnableInvalidOwner","inputs":[{"name":"owner","type":"address","internalType":"address"}]},{"type":"error","name":"OwnableUnauthorizedAccount","inputs":[{"name":"account","type":"address","internalType":"address"}]},{"type":"error","name":"PassportNonceUsed","inputs":[]},{"type":"error","name":"ReentrancyGuardReentrantCall","inputs":[]},{"type":"error","name":"SafeERC20FailedOperation","inputs":[{"name":"token","type":"address","internalType":"address"}]},{"type":"error","name":"Unauthorized","inputs":[]}],"bytecode":{"object":"0x60a06040523461003f57610020610014610170565b949390939291926102c2565b610028610044565b6145916106458239608051816127ec015261459190f35b61004a565b60405190565b5f80fd5b601f801991011690565b634e487b7160e01b5f52604160045260245ffd5b906100769061004e565b810190811060018060401b0382111761008e57604052565b610058565b906100a661009f610044565b928361006c565b565b5f80fd5b60018060a01b031690565b6100c0906100ac565b90565b6100cc816100b7565b036100d357565b5f80fd5b905051906100e4826100c3565b565b90565b6100f2816100e6565b036100f957565b5f80fd5b9050519061010a826100e9565b565b909160c08284031261016b57610124835f84016100d7565b9261013281602085016100d7565b9261014082604083016100fd565b9261016861015184606085016100d7565b9361015f81608086016100fd565b9360a0016100d7565b90565b6100a8565b61018e614bd68038038061018381610093565b92833981019061010c565b909192939495565b90565b90565b6101b06101ab6101b592610196565b610199565b6100ac565b90565b6101c19061019c565b90565b5f0190565b90565b6101e06101db6101e5926101c9565b610199565b6100e6565b90565b6101f36103e86101cc565b90565b5f1b90565b9061020c60018060a01b03916101f6565b9181191691161790565b61022a61022561022f926100ac565b610199565b6100ac565b90565b61023b90610216565b90565b61024790610232565b90565b90565b9061026261025d6102699261023e565b61024a565b82546101fb565b9055565b906102795f19916101f6565b9181191691161790565b61029761029261029c926100e6565b610199565b6100e6565b90565b90565b906102b76102b26102be92610283565b61029f565b825461026d565b9055565b6102d190959495929192610402565b6102d961052b565b608052816102f76102f16102ec5f6101b8565b6100b7565b916100b7565b146103e6578061031661031061030b6101e8565b6100e6565b916100e6565b116103ca5761032961033092601261024d565b60116102a2565b8061034b6103456103405f6101b8565b6100b7565b916100b7565b146103ae578161036b6103656103605f6101b8565b6100b7565b916100b7565b14610392576103909261038261038992600b61024d565b600c6102a2565b600d61024d565b565b5f63e6c4247b60e01b8152806103aa600482016101c4565b0390fd5b5f63e6c4247b60e01b8152806103c6600482016101c4565b0390fd5b5f63cd4e616760e01b8152806103e2600482016101c4565b0390fd5b5f63e6c4247b60e01b8152806103fe600482016101c4565b0390fd5b61040b9061042f565b565b610416906100b7565b9052565b919061042d905f6020850194019061040d565b565b6104376104b5565b8061045261044c6104475f6101b8565b6100b7565b916100b7565b14610462576104609061059c565b565b61048561046e5f6101b8565b5f918291631e4fbdf760e01b83526004830161041a565b0390fd5b90565b6104a061049b6104a592610489565b610199565b6100e6565b90565b6104b2600161048c565b90565b6104bd61051b565b6104cf6104c86104a8565b60016102a2565b565b906104dd60ff916101f6565b9181191691161790565b151590565b6104f5906104e7565b90565b90565b9061051061050b610517926104ec565b6104f8565b82546104d1565b9055565b6105255f5f6104fb565b565b5f90565b610533610527565b503390565b1b90565b9190600861055c91029161055660018060a01b0384610538565b92610538565b9181191691161790565b919061057c6105776105849361023e565b61024a565b90835461053c565b9055565b61059a91610594610527565b91610566565b565b6105b0906105ab5f6003610588565b6105e3565b565b5f1c90565b60018060a01b031690565b6105ce6105d3916105b2565b6105b7565b90565b6105e090546105c2565b90565b6105ed60026105d6565b6105f882600261024d565b9061062c6106267f8be0079c531659141344cd1fd0a4f28419497f9722a3daafe3b4186f6b6457e09361023e565b9161023e565b91610635610044565b8061063f816101c4565b0390a356fe60806040526004361015610013575b611642565b61001d5f356102cc565b8063202db826146102c757806321040fc3146102c257806323452b9c146102bd578063284b5dc6146102b857806333f3d628146102b35780633ba57310146102ae5780633f4ba83a146102a957806346904840146102a4578063476343ee1461029f5780634befe2ca1461029a5780634ccb20c01461029557806354776bb9146102905780635c975abb1461028b5780636133f985146102865780636f307dc314610281578063715018a61461027c57806379ba5097146102775780637b103999146102725780638456cb591461026d578063857132c4146102685780638da5cb5b146102635780639003adfe1461025e5780639012c4a81461025957806399a5d74714610254578063a491a4fc1461024f578063a9b6e9481461024a578063ab3d25ac14610245578063ae1f6aaf14610240578063b08938871461023b578063b0a00e1514610236578063b8606eef14610231578063cb23bcb51461022c578063ce11e6ab14610227578063d1a7900814610222578063d54a8d181461021d578063dcb1154d14610218578063e30c397814610213578063e691d03b1461020e578063eb50136f14610209578063f160d36914610204578063f2fde38b146101ff578063f9148fa1146101fa5763fb0e722b0361000e5761160d565b611569565b611515565b6114e2565b6114ad565b61146a565b611408565b6113cc565b611320565b6112eb565b6112a7565b611204565b611161565b61111d565b6110d9565b611095565b611012565b610f6d565b610e83565b610e4e565b610e1b565b610dc8565b610d5b565b610d22565b610ba9565b610b74565b610ad3565b610aa0565b610a6b565b6109c9565b61095a565b610925565b61083f565b61080a565b610787565b610752565b6106b9565b61067f565b61055c565b6104f6565b610417565b6103d5565b610383565b60e01c90565b60405190565b5f80fd5b5f80fd5b5f80fd5b60018060a01b031690565b6102f8906102e4565b90565b610304816102ef565b0361030b57565b5f80fd5b9050359061031c826102fb565b565b90565b61032a8161031e565b0361033157565b5f80fd5b9050359061034282610321565b565b90916060828403126103795761037661035f845f850161030f565b9361036d8160208601610335565b9360400161030f565b90565b6102dc565b5f0190565b346103b25761039c610396366004610344565b916117eb565b6103a46102d2565b806103ae8161037e565b0390f35b6102d8565b906020828203126103d0576103cd915f0161030f565b90565b6102dc565b34610403576103ed6103e83660046103b7565b6118a4565b6103f56102d2565b806103ff8161037e565b0390f35b6102d8565b5f91031261041257565b6102dc565b3461044557610427366004610408565b61042f61195e565b6104376102d2565b806104418161037e565b0390f35b6102d8565b90565b6104568161044a565b0361045d57565b5f80fd5b9050359061046e8261044d565b565b90916060828403126104a5576104a261048b845f8501610461565b936104998160208601610335565b93604001610461565b90565b6102dc565b6104b39061044a565b9052565b6104c09061031e565b9052565b6040906104ed6104f494969593966104e360608401985f8501906104aa565b60208301906104b7565b01906104b7565b565b3461052a5761052661051261050c366004610470565b91611e98565b61051d9391936102d2565b938493846104c4565b0390f35b6102d8565b9190604083820312610557578061054b610554925f860161030f565b93602001610335565b90565b6102dc565b3461058b5761057561056f36600461052f565b90611f9c565b61057d6102d2565b806105878161037e565b0390f35b6102d8565b151590565b61059e81610590565b036105a557565b5f80fd5b905035906105b682610595565b565b5f80fd5b5f80fd5b5f80fd5b909182601f830112156105fe5781359167ffffffffffffffff83116105f95760200192602083028401116105f457565b6105c0565b6105bc565b6105b8565b9160c08383031261067a5761061a825f850161030f565b926106288360208301610335565b9261063681604084016105a9565b926106448260608501610335565b926106528360808301610335565b9260a082013567ffffffffffffffff81116106755761067192016105c4565b9091565b6102e0565b6102dc565b346106b45761069e610692366004610603565b95949094939193612378565b6106a66102d2565b806106b08161037e565b0390f35b6102d8565b346106e7576106c9366004610408565b6106d16123a5565b6106d96102d2565b806106e38161037e565b0390f35b6102d8565b1c90565b60018060a01b031690565b61070b90600861071093026106ec565b6106f0565b90565b9061071e91546106fb565b90565b61072d60125f90610713565b90565b610739906102ef565b9052565b9190610750905f60208501940190610730565b565b3461078257610762366004610408565b61077e61076d610721565b6107756102d2565b9182918261073d565b0390f35b6102d8565b346107b557610797366004610408565b61079f6124b9565b6107a76102d2565b806107b18161037e565b0390f35b6102d8565b90565b90565b6107d46107cf6107d9926107ba565b6107bd565b61031e565b90565b6107e76103e86107c0565b90565b6107f26107dc565b90565b9190610808905f602085019401906104b7565b565b3461083a5761081a366004610408565b6108366108256107ea565b61082d6102d2565b918291826107f5565b0390f35b6102d8565b3461086f5761084f366004610408565b61086b61085a6124c7565b6108626102d2565b9182918261073d565b0390f35b6102d8565b61088861088361088d926102e4565b6107bd565b6102e4565b90565b61089990610874565b90565b6108a590610890565b90565b906108b29061089c565b5f5260205260405f2090565b60ff1690565b6108d49060086108d993026106ec565b6108be565b90565b906108e791546108c4565b90565b610900906108fb6010915f926108a8565b6108dc565b90565b61090c90610590565b9052565b9190610923905f60208501940190610903565b565b346109555761095161094061093b3660046103b7565b6108ea565b6109486102d2565b91829182610910565b0390f35b6102d8565b3461098a5761096a366004610408565b610986610975612502565b61097d6102d2565b91829182610910565b0390f35b6102d8565b90916060828403126109c4576109c16109aa845f850161030f565b936109b8816020860161030f565b93604001610461565b90565b6102dc565b346109f8576109e26109dc36600461098f565b916127d9565b6109ea6102d2565b806109f48161037e565b0390f35b6102d8565b60018060a01b031690565b610a18906008610a1d93026106ec565b6109fd565b90565b90610a2b9154610a08565b90565b610a3a60055f90610a20565b90565b610a4690610890565b90565b610a5290610a3d565b9052565b9190610a69905f60208501940190610a49565b565b34610a9b57610a7b366004610408565b610a97610a86610a2e565b610a8e6102d2565b91829182610a56565b0390f35b6102d8565b34610ace57610ab0366004610408565b610ab8612bfb565b610ac06102d2565b80610aca8161037e565b0390f35b6102d8565b34610b0157610ae3366004610408565b610aeb612c05565b610af36102d2565b80610afd8161037e565b0390f35b6102d8565b60018060a01b031690565b610b21906008610b2693026106ec565b610b06565b90565b90610b349154610b11565b90565b610b4360045f90610b29565b90565b610b4f90610890565b90565b610b5b90610b46565b9052565b9190610b72905f60208501940190610b52565b565b34610ba457610b84366004610408565b610ba0610b8f610b37565b610b976102d2565b91829182610b5f565b0390f35b6102d8565b34610bd757610bb9366004610408565b610bc1612c2b565b610bc96102d2565b80610bd38161037e565b0390f35b6102d8565b5f80fd5b601f801991011690565b634e487b7160e01b5f52604160045260245ffd5b90610c0890610be0565b810190811067ffffffffffffffff821117610c2257604052565b610bea565b90610c3a610c336102d2565b9283610bfe565b565b67ffffffffffffffff8111610c5a57610c56602091610be0565b0190565b610bea565b90825f939282370152565b90929192610c7f610c7a82610c3c565b610c27565b93818552602085019082840111610c9b57610c9992610c5f565b565b610bdc565b9080601f83011215610cbe57816020610cbb93359101610c6a565b90565b6105b8565b90608082820312610d1d57610cda815f8401610335565b92610ce88260208501610335565b92610cf68360408301610335565b92606082013567ffffffffffffffff8111610d1857610d159201610ca0565b90565b6102e0565b6102dc565b34610d5657610d52610d41610d38366004610cc3565b92919091612c35565b610d496102d2565b91829182610910565b0390f35b6102d8565b34610d8b57610d6b366004610408565b610d87610d76612c59565b610d7e6102d2565b9182918261073d565b0390f35b6102d8565b90565b610da3906008610da893026106ec565b610d90565b90565b90610db69154610d93565b90565b610dc560135f90610dab565b90565b34610df857610dd8366004610408565b610df4610de3610db9565b610deb6102d2565b918291826107f5565b0390f35b6102d8565b90602082820312610e1657610e13915f01610335565b90565b6102dc565b34610e4957610e33610e2e366004610dfd565b612d03565b610e3b6102d2565b80610e458161037e565b0390f35b6102d8565b34610e7e57610e7a610e69610e64366004610dfd565b612d98565b610e716102d2565b918291826107f5565b0390f35b6102d8565b34610eb757610eb3610ea2610e99366004610cc3565b92919091612dcc565b610eaa6102d2565b91829182610910565b0390f35b6102d8565b5f80fd5b90816060910312610ece5790565b610ebc565b90816080910312610ee15790565b610ebc565b91909160a081840312610f6857610eff835f830161030f565b92610f0d8160208401610335565b92610f1b8260408501610461565b92606081013567ffffffffffffffff8111610f635783610f3c918301610ec0565b92608082013567ffffffffffffffff8111610f5e57610f5b9201610ed3565b90565b6102e0565b6102e0565b6102dc565b34610fa457610fa0610f8c610f83366004610ee6565b93929092613045565b610f979391936102d2565b938493846104c4565b0390f35b6102d8565b90610fb39061089c565b5f5260205260405f2090565b610fd3610fce610fd89261031e565b6107bd565b61031e565b90565b90610fe590610fbf565b5f5260205260405f2090565b61100a61100f92611005600e935f94610fa9565b610fdb565b6108dc565b90565b346110435761103f61102e61102836600461052f565b90610ff1565b6110366102d2565b91829182610910565b0390f35b6102d8565b90565b61105b90600861106093026106ec565b611048565b90565b9061106e915461104b565b90565b61107d60095f90611063565b90565b9190611093905f602085019401906104aa565b565b346110c5576110a5366004610408565b6110c16110b0611071565b6110b86102d2565b91829182611080565b0390f35b6102d8565b6110d6600a5f90610dab565b90565b34611109576110e9366004610408565b6111056110f46110ca565b6110fc6102d2565b918291826107f5565b0390f35b6102d8565b61111a600b5f90610713565b90565b3461114d5761112d366004610408565b61114961113861110e565b6111406102d2565b9182918261073d565b0390f35b6102d8565b61115e60115f90610dab565b90565b3461119157611171366004610408565b61118d61117c611152565b6111846102d2565b918291826107f5565b0390f35b6102d8565b60018060a01b031690565b6111b19060086111b693026106ec565b611196565b90565b906111c491546111a1565b90565b6111d360065f906111b9565b90565b6111df90610890565b90565b6111eb906111d6565b9052565b9190611202905f602085019401906111e2565b565b3461123457611214366004610408565b61123061121f6111c7565b6112276102d2565b918291826111ef565b0390f35b6102d8565b60018060a01b031690565b61125490600861125993026106ec565b611239565b90565b906112679154611244565b90565b61127660075f9061125c565b90565b61128290610890565b90565b61128e90611279565b9052565b91906112a5905f60208501940190611285565b565b346112d7576112b7366004610408565b6112d36112c261126a565b6112ca6102d2565b91829182611292565b0390f35b6102d8565b6112e8600c5f90610dab565b90565b3461131b576112fb366004610408565b6113176113066112dc565b61130e6102d2565b918291826107f5565b0390f35b6102d8565b3461135057611330366004610408565b61134c61133b613070565b6113436102d2565b918291826107f5565b0390f35b6102d8565b906080828203126113c75761136c815f8401610335565b9261137a8260208501610461565b92604081013567ffffffffffffffff81116113c2578361139b918301610ec0565b92606082013567ffffffffffffffff81116113bd576113ba9201610ed3565b90565b6102e0565b6102e0565b6102dc565b34611403576113ff6113eb6113e2366004611355565b929190916132ab565b6113f69391936102d2565b938493846104c4565b0390f35b6102d8565b3461143857611418366004610408565b6114346114236132d5565b61142b6102d2565b9182918261073d565b0390f35b6102d8565b91906040838203126114655780611459611462925f860161030f565b936020016105a9565b90565b6102dc565b346114995761148361147d36600461143d565b906133d9565b61148b6102d2565b806114958161037e565b0390f35b6102d8565b6114aa600d5f90610713565b90565b346114dd576114bd366004610408565b6114d96114c861149e565b6114d06102d2565b9182918261073d565b0390f35b6102d8565b34611510576114fa6114f53660046103b7565b613481565b6115026102d2565b8061150c8161037e565b0390f35b6102d8565b346115435761152d6115283660046103b7565b6134fe565b6115356102d2565b8061153f8161037e565b0390f35b6102d8565b6115616115669261155c600f935f94610fa9565b610fdb565b6108dc565b90565b3461159a5761159661158561157f36600461052f565b90611548565b61158d6102d2565b91829182610910565b0390f35b6102d8565b60018060a01b031690565b6115ba9060086115bf93026106ec565b61159f565b90565b906115cd91546115aa565b90565b6115dc60085f906115c2565b90565b6115e890610890565b90565b6115f4906115df565b9052565b919061160b905f602085019401906115eb565b565b3461163d5761161d366004610408565b6116396116286115d0565b6116306102d2565b918291826115f8565b0390f35b6102d8565b5f80fd5b906116599291611654613509565b611702565b565b90565b61167261166d6116779261165b565b6107bd565b6102e4565b90565b6116839061165e565b90565b5f1b90565b9061169c60018060a01b0391611686565b9181191691161790565b90565b906116be6116b96116c59261089c565b6116a6565b825461168b565b9055565b906116d55f1991611686565b9181191691161790565b90565b906116f76116f26116fe92610fbf565b6116df565b82546116c9565b9055565b8061171d6117176117125f61167a565b6102ef565b916102ef565b146117cf578261173d6117376117325f61167a565b6102ef565b916102ef565b146117b35761174d81600b6116a9565b61175882600c6116e2565b61176383600d6116a9565b9091906117ae61179c6117967f6d32598dc0f68571384420cdd4e5c4d44706577bd1da4d45aacac8c0e98f23d19361089c565b9361089c565b936117a56102d2565b918291826107f5565b0390a3565b5f63e6c4247b60e01b8152806117cb6004820161037e565b0390fd5b5f63e6c4247b60e01b8152806117e76004820161037e565b0390fd5b906117f69291611646565b565b61180990611804613509565b61180b565b565b8061182661182061181b5f61167a565b6102ef565b916102ef565b1461188857611833612c59565b61183c826134fe565b9061187061186a7ff4e75b79500ab730f8a026ed3cba6d55331bcb64c9e9f60c548e371356e5e3c09361089c565b9161089c565b916118796102d2565b806118838161037e565b0390a3565b5f63e6c4247b60e01b8152806118a06004820161037e565b0390fd5b6118ad906117f8565b565b6118b7613509565b6118bf6118c1565b565b6118c96132d5565b6118e36118dd6118d85f61167a565b6102ef565b916102ef565b14611942576118f86118f3612c59565b6135bb565b611900612c59565b61192a7f48a87225523c5fd46bf3b7da3223e5525f77b8136a962695d701a24699bef8f39161089c565b906119336102d2565b8061193d8161037e565b0390a2565b5f633e31d61b60e11b81528061195a6004820161037e565b0390fd5b6119666118af565b565b5f90565b5f90565b9061198695949392916119816135d1565b61198b565b909192565b906119a1959493929161199c613627565b611cc1565b9091926119ac6136ab565b565b6119c26119bd6119c79261165b565b6107bd565b61031e565b90565b60209181520190565b5f7f416d6f756e74206d7573742062652067726561746572207468616e207a65726f910152565b611a06602080926119ca565b611a0f816119d3565b0190565b611a289060208101905f8183039101526119fa565b90565b15611a3257565b611a3a6102d2565b62461bcd60e51b815280611a5060048201611a13565b0390fd5b634e487b7160e01b5f52601160045260245ffd5b611a77611a7d9193929361031e565b9261031e565b8203918211611a8857565b611a54565b5f1c90565b611a9e611aa391611a8d565b611048565b90565b611ab09054611a92565b90565b611abf611ac491611a8d565b610d90565b90565b611ad19054611ab3565b90565b611ade6040610c27565b90565b90611aeb9061044a565b9052565b90611af99061031e565b9052565b916020611b1e929493611b1760408201965f8301906104aa565b01906104b7565b565b611b2c611b3191611a8d565b6109fd565b90565b611b3e9054611b20565b90565b611b4a90610890565b90565b611b5c611b629193929361031e565b9261031e565b8201809211611b6d57565b611a54565b611b7e611b8391611a8d565b61159f565b90565b611b909054611b72565b90565b5f80fd5b60e01b90565b90505190611baa8261044d565b565b90505190611bb982610321565b565b9190604083820312611be35780611bd7611be0925f8601611b9d565b93602001611bac565b90565b6102dc565b611bf19061044a565b9052565b611bfe9061031e565b9052565b90602080611c2493611c1a5f8201515f860190611be8565b0151910190611bf5565b565b606090611c4f611c569496959396611c4560808401985f850190611c02565b60408301906104aa565b01906104aa565b565b611c606102d2565b3d5f823e3d90fd5b611c719061044a565b90565b90959492611cbf94611cae611cb892611ca4608096611c9a60a088019c5f8901906104b7565b60208701906104b7565b60408501906104aa565b60608301906104aa565b01906104b7565b565b9593929495505050611ce581611cdf611cd95f6119ae565b9161031e565b11611a2b565b611cee81612d98565b611cf9828290611a68565b946040611d066009611aa6565b611d30611d13600a611ac7565b611d27611d1e611ad4565b935f8501611ae1565b60208301611aef565b93611d99611d7588611d708b91611d61611d486102d2565b93849260046020850163bc6a9bd360e01b815201611afd565b60208201810382520382610bfe565b613812565b91611d806005611b34565b90611d8961387c565b611d9230611b41565b91926138ec565b611db6611daf85611daa6013611ac7565b611b4d565b60136116e2565b611dc8611dc36008611b86565b6115df565b611dec5f631f6d510b979397611df787611de06102d2565b9a8b9788968795611b97565b855260048501611c26565b03925af18015611e93575f80949091611e60575b5092949086929092611e55858890611e437f71591b8502d8aa9640fa219fbfb8e23ffcd2a75edbd923826ef3ef77f6da4a8b96611c68565b96611e4c6102d2565b95869586611c74565b0390a2919291929190565b9050611e8491935060403d8111611e8c575b611e7c8183610bfe565b810190611bbb565b92905f611e0b565b503d611e72565b611c58565b90611ebc9291611ea6611968565b611eae61196c565b611eb661196c565b91611970565b909192565b90611ed391611ece613509565b611eed565b565b611ede90610874565b90565b611eea90611ed5565b90565b80611f08611f02611efd5f61167a565b6102ef565b916102ef565b14611f8057611f28611f1982611ee1565b611f21612c59565b849161395f565b90611f31612c59565b9091611f7b611f69611f637f77023e19c7343ad491fd706c36335ca0e738340a91f29b1fd81e2673d44896c49361089c565b9361089c565b93611f726102d2565b918291826107f5565b0390a3565b5f63e6c4247b60e01b815280611f986004820161037e565b0390fd5b90611fa691611ec1565b565b90611fbf969594939291611fba6135d1565b611fc1565b565b90611fd8969594939291611fd3613627565b612187565b611fe06136ab565b565b611fec6040610c27565b90565b90611ff9906102ef565b9052565b60409061202661202d949695939661201c60608401985f850190610730565b60208301906104b7565b0190610730565b565b6120396060610c27565b90565b52565b52565b61204e61205391611a8d565b611239565b90565b6120609054612042565b90565b5f91031261206d57565b6102dc565b906020806120949361208a5f8201515f860190611be8565b0151910190611bf5565b565b61209f906102ef565b9052565b906020806120c5936120bb5f8201515f860190612096565b0151910190611bf5565b565b90608060406120fb936120e05f8201515f860190612072565b6120f16020820151838601906120a3565b0151910190611be8565b565b60209181520190565b5f80fd5b9037565b90918261211a916120fd565b9160018060fb1b03811161213d5782916020612139920293849161210a565b0190565b612106565b909391612184959361216d612177926121636101008601985f8701906120c7565b60a08501906104b7565b60c08301906104b7565b60e081850391015261210e565b90565b949291959093956121aa856121a461219e5f6119ae565b9161031e565b11611a2b565b6122876121b76009611aa6565b916121e26121c5600a611ac7565b6121d96121d0611ad4565b955f8701611ae1565b60208501611aef565b61227e6122606121f130611b41565b926122134661220a612201611fe2565b965f8801611fef565b60208601611aef565b61225b8b8b925f146123675761224c61222a61387c565b5b6122336102d2565b948593600460208601631a4ca37b60e21b815201611ffd565b60208201810382520382610bfe565b613812565b9161227561226c61202f565b955f870161203c565b6020850161203f565b60408301611ae1565b6122b86122b16122a161229988612d98565b978890611a68565b966122ac6013611ac7565b611b4d565b60136116e2565b6122ca6122c56007612056565b611279565b91637fb34967919397949091833b15612362576123086122fd935f979388946122f16102d2565b9c8d998a988997611b97565b875260048701612142565b03925af192831561235d5761232f93612331575b506123276005611b34565b91909161395f565b565b612350905f3d8111612356575b6123488183610bfe565b810190612063565b5f61231c565b503d61233e565b611c58565b611b93565b61224c6123735f61167a565b61222b565b90612387969594939291611fa8565b565b612391613509565b61239961239b565b565b6123a3613a0c565b565b6123ad612389565b565b6123b7613509565b6123bf6123c1565b565b6123c9613627565b6123d16123fc565b6123d96136ab565b565b6123e76123ec91611a8d565b6106f0565b90565b6123f990546123db565b90565b6124066013611ac7565b806124196124135f6119ae565b9161031e565b1461249d5761243161242a5f6119ae565b60136116e2565b61244f61243e6005611b34565b61244860126123ef565b839161395f565b61245960126123ef565b6124986124867fc0819c13be868895eb93e40eaceb96de976442fa1d404e5c55f14bb65a8c489a9261089c565b9261248f6102d2565b918291826107f5565b0390a2565b5f630d00db4d60e31b8152806124b56004820161037e565b0390fd5b6124c16123af565b565b5f90565b6124cf6124c3565b506124da60126123ef565b90565b5f90565b6124ed6124f291611a8d565b6108be565b90565b6124ff90546124e1565b90565b61250a6124dd565b506125145f6124f5565b90565b61252361252891611a8d565b610b06565b90565b6125359054612517565b90565b61254c6125476125519261165b565b611686565b61044a565b90565b61255d90610874565b90565b61256990612554565b90565b61257590612554565b90565b90565b9061259061258b6125979261256c565b612578565b825461168b565b9055565b6125a490611ed5565b90565b90565b906125bf6125ba6125c69261259b565b6125a7565b825461168b565b9055565b6125d390611a8d565b90565b906125eb6125e66125f292611c68565b6125ca565b82546116c9565b9055565b6125ff906102ef565b90565b61260b816125f6565b0361261257565b5f80fd5b9050519061262382612602565b565b9060208282031261263e5761263b915f01612616565b90565b6102dc565b61264c90610874565b90565b61265890612643565b90565b61266490612643565b90565b90565b9061267f61267a6126869261265b565b612667565b825461168b565b9055565b61269661269b91611a8d565b611196565b90565b6126a8905461268a565b90565b6126b4906102ef565b90565b6126c0816126ab565b036126c757565b5f80fd5b905051906126d8826126b7565b565b906020828203126126f3576126f0915f016126cb565b90565b6102dc565b61270190610874565b90565b61270d906126f8565b90565b90565b9061272861272361272f92612704565b612710565b825461168b565b9055565b61273c906102ef565b90565b61274881612733565b0361274f57565b5f80fd5b905051906127608261273f565b565b9060208282031261277b57612778915f01612753565b90565b6102dc565b61278990610874565b90565b61279590612780565b90565b90565b906127b06127ab6127b79261278c565b612798565b825461168b565b9055565b906020828203126127d4576127d1915f01611bac565b90565b6102dc565b9190916127e461387c565b6128166128107f00000000000000000000000000000000000000000000000000000000000000006102ef565b916102ef565b03612bbb5761282d612828600461252b565b610b46565b61284761284161283c5f61167a565b6102ef565b916102ef565b03612ba0578061286761286161285c5f61167a565b6102ef565b916102ef565b148015612b7e575b8015612b5c575b612b405761288d61288682612560565b600461257b565b6128a061289984611ee1565b60056125aa565b6128ab8260096125d6565b6128d860206128c26128bd600461252b565b610b46565b63971b0e6b906128d06102d2565b938492611b97565b825281806128e86004820161037e565b03915afa8015612b3b5761290a61290f91612916935f91612b0d575b506111d6565b61264f565b600661266a565b612943602061292d612928600661269e565b6111d6565b63a32fbb7b9061293b6102d2565b938492611b97565b825281806129536004820161037e565b03915afa8015612b0857612970915f91612ada575b506007612713565b61299d6020612987612982600661269e565b6111d6565b63368c093c906129956102d2565b938492611b97565b825281806129ad6004820161037e565b03915afa8015612ad5576129ca915f91612aa7575b50600861279b565b6129f760206129e16129dc600661269e565b6111d6565b630d8e6e2c906129ef6102d2565b938492611b97565b82528180612a076004820161037e565b03915afa8015612aa257612a24915f91612a74575b50600a6116e2565b919091612a6f612a5d612a577fce8c93fecc87ea28c5a92dea4f94ba0a51087dc17a2f11782aa2117dbd19b6869361089c565b9361089c565b93612a666102d2565b91829182611080565b0390a3565b612a95915060203d8111612a9b575b612a8d8183610bfe565b8101906127bb565b5f612a1c565b503d612a83565b611c58565b612ac8915060203d8111612ace575b612ac08183610bfe565b810190612762565b5f6129c2565b503d612ab6565b611c58565b612afb915060203d8111612b01575b612af38183610bfe565b8101906126da565b5f612968565b503d612ae9565b611c58565b612b2e915060203d8111612b34575b612b268183610bfe565b810190612625565b5f612904565b503d612b1c565b611c58565b5f63e6c4247b60e01b815280612b586004820161037e565b0390fd5b5081612b78612b72612b6d5f612538565b61044a565b9161044a565b14612876565b5082612b9a612b94612b8f5f61167a565b6102ef565b916102ef565b1461286f565b5f62dc149f60e41b815280612bb76004820161037e565b0390fd5b5f6282b42960e81b815280612bd26004820161037e565b0390fd5b612bde613509565b612be6612be8565b565b612bf9612bf45f61167a565b6135bb565b565b612c03612bd6565b565b612c0d613a16565b565b612c17613509565b612c1f612c21565b565b612c29613ac7565b565b612c33612c0f565b565b91612c569391612c436124dd565b50612c4c61387c565b9390919293613bcc565b90565b612c616124c3565b50612c6c60026123ef565b90565b612c8090612c7b613509565b612c82565b565b80612c9c612c96612c916107dc565b61031e565b9161031e565b11612ce757612cac8160116116e2565b612ce27f8c4d35e54a3f2ef1134138fd8ea3daee6a3c89e10d2665996babdf70261e2c7691612cd96102d2565b918291826107f5565b0390a1565b5f63cd4e616760e01b815280612cff6004820161037e565b0390fd5b612d0c90612c6f565b565b612d1d612d239193929361031e565b9261031e565b91612d2f83820261031e565b928184041490151715612d3e57565b611a54565b90565b612d5a612d55612d5f92612d43565b6107bd565b61031e565b90565b634e487b7160e01b5f52601260045260245ffd5b612d82612d889161031e565b9161031e565b908115612d93570490565b612d62565b612db8612dc991612da761196c565b50612db26011611ac7565b90612d0e565b612dc3612710612d46565b90612d76565b90565b91612ded9391612dda6124dd565b50612de361387c565b9390919293613cc1565b90565b90612e0897969594939291612e036135d1565b612e0d565b909192565b90612e2597969594939291612e20613627565b612e32565b909192612e306136ab565b565b9795939796929496505050612e5a612e54612e4f601033906108a8565b6124f5565b15610590565b61302957612e8892612e7e87612e78612e725f6119ae565b9161031e565b11611a2b565b9186909192613e11565b612e9183612d98565b92612e9d818590611a68565b936040612eaa6009611aa6565b612ed4612eb7600a611ac7565b612ecb612ec2611ad4565b935f8501611ae1565b60208301611aef565b92612f34612f17612f03612f128a612eea6102d2565b9283916004602084016311675ebd60e31b8152016107f5565b60208201810382520382610bfe565b613812565b91612f226005611b34565b9033612f2d30611b41565b91926138ec565b612f51612f4a84612f456013611ac7565b611b4d565b60136116e2565b612f63612f5e6008611b86565b6115df565b612f875f631f6d510b969396612f928a612f7b6102d2565b998a9788968795611b97565b855260048501611c26565b03925af18015613024575f80939091612ff1575b50919385919091612fe68487907fec915cbb614f4e8d4e71c5f18aa49dbb6e41d25ab75f44560c28ea05916168c395612fdd6102d2565b95869586611c74565b0390a1919291929190565b905061301591925060403d811161301d575b61300d8183610bfe565b810190611bbb565b91905f612fa6565b503d613003565b611c58565b5f63aa41dc9f60e01b8152806130416004820161037e565b0390fd5b9061306b94939291613055611968565b61305d61196c565b61306561196c565b91612df0565b909192565b61307861196c565b506130836013611ac7565b90565b9061309d9695949392916130986135d1565b6130a2565b909192565b906130b99695949392916130b4613627565b6130c6565b9091926130c46136ab565b565b9061310394969291979593975050506130f1866130eb6130e55f6119ae565b9161031e565b11611a2b565b6130f961387c565b9186909192613e11565b61310c83612d98565b92613118818590611a68565b9360406131256009611aa6565b61314f613132600a611ac7565b61314661313d611ad4565b935f8501611ae1565b60208301611aef565b926131b661319261317e61318d8a6131656102d2565b9283916004602084016311675ebd60e31b8152016107f5565b60208201810382520382610bfe565b613812565b9161319d6005611b34565b906131a661387c565b6131af30611b41565b91926138ec565b6131d36131cc846131c76013611ac7565b611b4d565b60136116e2565b6131e56131e06008611b86565b6115df565b6132095f631f6d510b9693966132148a6131fd6102d2565b998a9788968795611b97565b855260048501611c26565b03925af180156132a6575f80939091613273575b509193859190916132688487907fec915cbb614f4e8d4e71c5f18aa49dbb6e41d25ab75f44560c28ea05916168c39561325f6102d2565b95869586611c74565b0390a1919291929190565b905061329791925060403d811161329f575b61328f8183610bfe565b810190611bbb565b91905f613228565b503d613285565b611c58565b906132d09392916132ba611968565b6132c261196c565b6132ca61196c565b91613086565b909192565b6132dd6124c3565b506132e860036123ef565b90565b906132fd916132f8613509565b613344565b565b9061330b60ff91611686565b9181191691161790565b61331e90610590565b90565b90565b9061333961333461334092613315565b613321565b82546132ff565b9055565b8061335f6133596133545f61167a565b6102ef565b916102ef565b146133bd5761337982613374601084906108a8565b613324565b6133b86133a67fbee55516e29d3969d3cb8eb01351eb3c52d06f9e2435bd5a8bfe3647e185df929261089c565b926133af6102d2565b91829182610910565b0390a2565b5f63e6c4247b60e01b8152806133d56004820161037e565b0390fd5b906133e3916132eb565b565b6133f6906133f1613509565b6133f8565b565b8061341361340d6134085f61167a565b6102ef565b916102ef565b14613465576134238160126116a9565b61344d7f7a7b5a0a132f9e0581eb8527f66eae9ee89c2a3e79d4ac7e41a1f1f4d48a7fc29161089c565b906134566102d2565b806134608161037e565b0390a2565b5f63e6c4247b60e01b81528061347d6004820161037e565b0390fd5b61348a906133e5565b565b61349d90613498613509565b61349f565b565b6134aa8160036116a9565b6134b2612c59565b906134e66134e07f38d16b8cac22d99fc7c124b9cd0de2d3fa1faef420bfe791d8c362d765e227009361089c565b9161089c565b916134ef6102d2565b806134f98161037e565b0390a3565b6135079061348c565b565b613511612c59565b61352a61352461351f61387c565b6102ef565b916102ef565b0361353157565b61355361353c61387c565b5f91829163118cdaa760e01b83526004830161073d565b0390fd5b1b90565b9190600861357b91029161357560018060a01b0384613557565b92613557565b9181191691161790565b919061359b6135966135a39361089c565b6116a6565b90835461355b565b9055565b6135b9916135b36124c3565b91613585565b565b6135cf906135ca5f60036135a7565b614089565b565b6135d9612502565b6135df57565b5f63d93c066560e01b8152806135f76004820161037e565b0390fd5b90565b61361261360d613617926135fb565b6107bd565b61031e565b90565b61362460026135fe565b90565b6136316001611ac7565b61364a61364461363f61361a565b61031e565b9161031e565b146136635761366161365a61361a565b60016116e2565b565b5f633ee5aeb560e01b81528061367b6004820161037e565b0390fd5b90565b61369661369161369b9261367f565b6107bd565b61031e565b90565b6136a86001613682565b90565b6136bd6136b661369e565b60016116e2565b565b906136d16136cc83610c3c565b610c27565b918252565b369037565b906137006136e8836136bf565b926020806136f68693610c3c565b92019103906136d6565b565b5190565b905090565b90825f9392825e0152565b61373b6137329260209261372981613702565b94858093613706565b9384910161370b565b0190565b61374891613716565b90565b60ff191690565b61375b9061374b565b90565b90565b61376d6137729161374b565b61375e565b9052565b61378661378d91601f9493613716565b8092613761565b0190565b6137b092916137bc916137a26102d2565b948592602084019283613776565b90810382520383610bfe565b565b60200190565b6137ce905161044a565b90565b6137eb6137e66137e083613702565b926137be565b6137c4565b90602081106137f9575b5090565b61380b905f1990602003600802613557565b165f6137f5565b61381a611968565b5060205f61384561383361382e6001613682565b6136db565b9361383c6102d2565b9182918261373f565b039060025afa156138775761386f613874916138696138645f51611686565b613752565b90613791565b6137d1565b90565b611c58565b6138846124c3565b503390565b63ffffffff1690565b63ffffffff60e01b1690565b6138b26138ad6138b792613889565b611b97565b613892565b90565b6040906138e36138ea94969593966138d960608401985f850190610730565b6020830190610730565b01906104b7565b565b60049261392661393a9593613935939461390d6323b872dd9294919261389e565b936139166102d2565b97889560208701908152016138ba565b60208201810382520383610bfe565b6140ea565b565b91602061395d92949361395660408201965f830190610730565b01906104b7565b565b906139a66139ab936139976004949361397e63a9059cbb91939161389e565b926139876102d2565b968794602086019081520161393c565b60208201810382520383610bfe565b6140ea565b565b6139b561419e565b6139bd6139bf565b565b6139c95f5f613324565b6139d161387c565b613a077f5db9ee0a495bf2e6ff9c91a7834c1ba4fdd244a5e8aa4e537bd38aeae4b073aa916139fe6102d2565b9182918261073d565b0390a1565b613a146139ad565b565b613a1e61387c565b613a266132d5565b613a38613a32836102ef565b916102ef565b03613a4857613a46906135bb565b565b613a63905f91829163118cdaa760e01b83526004830161073d565b0390fd5b613a6f6135d1565b613a77613a79565b565b613a8460015f613324565b613a8c61387c565b613ac27f62e78cea01bee320cd4e420270b5ea74000d11b0c9f74754ebdbfc544b05a25891613ab96102d2565b9182918261073d565b0390a1565b613acf613a67565b565b90565b613ae0613ae59161031e565b613ad1565b9052565b60601b90565b613af890613ae9565b90565b613b0490613aef565b90565b613b13613b18916102ef565b613afb565b9052565b92613b496020613b5194613b418288613b3960149b9a8399613ad4565b018092613ad4565b018092613ad4565b018092613b07565b0190565b905090565b5f7f19457468657265756d205369676e6564204d6573736167653a0a333200000000910152565b613b8d601c8092613b55565b613b9681613b5a565b0190565b90565b613ba9613bae9161044a565b613b9a565b9052565b90613bc8613bc1602093613b81565b8092613b9d565b0190565b92613c0e613c3593613bff613c5c9796613c4495613be86124dd565b509294613bf36102d2565b95869460208601613b1c565b60208201810382520382610bfe565b613c20613c1a82613702565b916137be565b20613c296102d2565b92839160208301613bb2565b60208201810382520382610bfe565b613c56613c5082613702565b916137be565b206141d1565b613c77613c71613c6c600b6123ef565b6102ef565b916102ef565b1490565b6020613cbd94613cad828096613ca5601487613c9d613cb599839f9e9b613b07565b018092613ad4565b018092613ad4565b018092613ad4565b018092613b07565b0190565b9091939293613cce6124dd565b5042613ce2613cdc8761031e565b9161031e565b11613d9657613d29613d5093613d1a613d7797613d5f95929490613d0530611b41565b91613d0e6102d2565b96879560208701613c7b565b60208201810382520382610bfe565b613d3b613d3582613702565b916137be565b20613d446102d2565b92839160208301613bb2565b60208201810382520382610bfe565b613d71613d6b82613702565b916137be565b206141d1565b613d92613d8c613d87600d6123ef565b6102ef565b916102ef565b1490565b50505050505f90565b5f80fd5b5f80fd5b5f80fd5b903590600160200381360303821215613ded570180359067ffffffffffffffff8211613de857602001916001820236038313613de357565b613da7565b613da3565b613d9f565b5090565b35613e0081610321565b90565b613e0e913691610c6a565b90565b915f613e2a613e24836040810190613dab565b90613df2565b613e3c613e365f6119ae565b9161031e565b11613fc8575b613e4d915015610590565b613e57575b505050565b613e6e613e68846060810190613dab565b90613df2565b613e80613e7a5f6119ae565b9161031e565b14613fac57613eae613ea9613e97600e8590610fa9565b613ea360208701613df6565b90610fdb565b6124f5565b613f9057613f00613efa83613ec45f8701613df6565b613ed060208801613df6565b613edc60408901613df6565b91613ef4613eee8a6060810190613dab565b90613e03565b93613cc1565b15610590565b613f7457613f20613f1a613f155f8601613df6565b61031e565b9161031e565b11613f5857613f4b613f5092613f456020613f3e600195600e610fa9565b9201613df6565b90610fdb565b613324565b5f8080613e52565b5f63172bd6a160e31b815280613f706004820161037e565b0390fd5b5f631050484960e01b815280613f8c6004820161037e565b0390fd5b5f63236dea5560e21b815280613fa86004820161037e565b0390fd5b5f6304bc4ab760e31b815280613fc46004820161037e565b0390fd5b50613ff1613fec613fdb600f8690610fa9565b613fe65f8501613df6565b90610fdb565b6124f5565b61406d57613e4d9061406861403f8561400b5f8501613df6565b614015600c611ac7565b61402160208701613df6565b91614039614033886040810190613dab565b90613e03565b93613bcc565b9161406360019161405d5f614056600f8b90610fa9565b9201613df6565b90610fdb565b613324565b613e42565b5f636356e6ef60e11b8152806140856004820161037e565b0390fd5b61409360026123ef565b61409e8260026116a9565b906140d26140cc7f8be0079c531659141344cd1fd0a4f28419497f9722a3daafe3b4186f6b6457e09361089c565b9161089c565b916140db6102d2565b806140e58161037e565b0390a3565b905f6020916140f761196c565b5061410061196c565b50828151910182855af115614193573d5f519061412561411f5f6119ae565b9161031e565b145f14614179575061413681610a3d565b3b6141496141435f6119ae565b9161031e565b145b6141525750565b61415e61417591610a3d565b5f918291635274afe760e01b83526004830161073d565b0390fd5b61418c6141866001613682565b9161031e565b141561414b565b6040513d5f823e3d90fd5b6141af6141a9612502565b15610590565b6141b557565b5f638dfc202b60e01b8152806141cd6004820161037e565b0390fd5b6141f0916141e7916141e16124c3565b50614236565b9092919261431e565b90565b5f90565b90565b61420e614209614213926141f7565b6107bd565b61031e565b90565b61422a61422561422f9261031e565b611686565b61044a565b90565b5f90565b9190916142416124c3565b5061424a6141f3565b50614253611968565b5061425d83613702565b61427061426a60416141fa565b9161031e565b145f146142b7576142b09192614284611968565b5061428d611968565b50614296614232565b506020810151606060408301519201515f1a90919261445f565b9192909190565b506142c15f61167a565b906142d56142d0600294613702565b614216565b91929190565b634e487b7160e01b5f52602160045260245ffd5b600411156142f957565b6142db565b90614308826142ef565b565b61431661431b91611a8d565b610fbf565b90565b8061433161432b5f6142fe565b916142fe565b145f1461433c575050565b8061435061434a60016142fe565b916142fe565b145f14614373575f63f645eedf60e01b81528061436f6004820161037e565b0390fd5b8061438761438160026142fe565b916142fe565b145f146143b5576143b161439a8361430a565b5f91829163fce698f760e01b8352600483016107f5565b0390fd5b6143c86143c260036142fe565b916142fe565b146143d05750565b6143eb905f9182916335e2f38360e21b835260048301611080565b0390fd5b90565b61440661440161440b926143ef565b6107bd565b61031e565b90565b60ff1690565b61441d9061440e565b9052565b61445661445d9461444c606094989795614442608086019a5f8701906104aa565b6020850190614414565b60408301906104aa565b01906104aa565b565b93929361446a6124c3565b506144736141f3565b5061447c611968565b506144868561430a565b6144b86144b27f7fffffffffffffffffffffffffffffff5d576e7357a4501ddfe92f46681b20a06143f2565b9161031e565b1161454557906144db602094955f949392936144d26102d2565b94859485614421565b838052039060015afa15614540576144f35f51611686565b8061450e6145086145035f61167a565b6102ef565b916102ef565b14614524575f9161451e5f612538565b91929190565b5061452e5f61167a565b60019161453a5f612538565b91929190565b611c58565b5050506145515f61167a565b906003929192919056fea2646970667358221220bd998b156eddf5bb3ab18ad813a5554fd941ff05ed2845ed5d1695a1c763459c64736f6c634300081c0033","linkReferences":{}},"methodIdentifiers":{"MAX_FEE_BASIS_POINTS()":"4befe2ca","acceptOwnership()":"79ba5097","calculateFee(uint256)":"99a5d747","cancelOwnershipTransfer()":"23452b9c","cleanHandsCircuitId()":"d1a79008","cleanHandsNonces(address,uint256)":"f9148fa1","collectedFees()":"9003adfe","depositToAztecPrivate(uint256,bytes32,(uint256,uint256,bytes),(uint256,uint256,uint256,bytes))":"dcb1154d","depositToAztecPrivateFor(address,uint256,bytes32,(uint256,uint256,bytes),(uint256,uint256,uint256,bytes))":"a9b6e948","depositToAztecPublic(bytes32,uint256,bytes32)":"284b5dc6","feeBasisPoints()":"b8606eef","feeRecipient()":"46904840","getCollectedFees()":"d54a8d18","getFeeRecipient()":"4ccb20c0","humanIdAttester()":"b0a00e15","inbox()":"fb0e722b","initialize(address,address,bytes32)":"6133f985","l2Bridge()":"ae1f6aaf","outbox()":"ce11e6ab","owner()":"8da5cb5b","passportNonces(address,uint256)":"ab3d25ac","passportSigner()":"eb50136f","pause()":"8456cb59","paused()":"5c975abb","pendingOwner()":"e30c3978","proposeOwnershipTransfer(address)":"21040fc3","registry()":"7b103999","renounceOwnership()":"715018a6","rescueToken(address,uint256)":"33f3d628","rollup()":"cb23bcb5","rollupVersion()":"b0893887","setTrustedForwarder(address,bool)":"e691d03b","transferOwnership(address)":"f2fde38b","trustedForwarders(address)":"54776bb9","underlying()":"6f307dc3","unpause()":"3f4ba83a","updateAttestationConfig(address,uint256,address)":"202db826","updateFee(uint256)":"9012c4a8","updateFeeRecipient(address)":"f160d369","verifyCleanHandsSignature(uint256,uint256,uint256,bytes)":"857132c4","verifyPassportSignature(uint256,uint256,uint256,bytes)":"a491a4fc","withdraw(address,uint256,bool,uint256,uint256,bytes32[])":"3ba57310","withdrawFees()":"476343ee"},"id":92}