{"abi":[{"type":"constructor","inputs":[{"name":"_initialOwner","type":"address","internalType":"address"},{"name":"_feeRecipient","type":"address","internalType":"address"},{"name":"_feeBasisPoints","type":"uint256","internalType":"uint256"},{"name":"_humanIdAttester","type":"address","internalType":"address"},{"name":"_cleanHandsCircuitId","type":"uint256","internalType":"uint256"},{"name":"_passportSigner","type":"address","internalType":"address"}],"stateMutability":"nonpayable"},{"type":"function","name":"MAX_FEE_BASIS_POINTS","inputs":[],"outputs":[{"name":"","type":"uint256","internalType":"uint256"}],"stateMutability":"view"},{"type":"function","name":"acceptOwnership","inputs":[],"outputs":[],"stateMutability":"nonpayable"},{"type":"function","name":"calculateFee","inputs":[{"name":"_amount","type":"uint256","internalType":"uint256"}],"outputs":[{"name":"","type":"uint256","internalType":"uint256"}],"stateMutability":"view"},{"type":"function","name":"cancelOwnershipTransfer","inputs":[],"outputs":[],"stateMutability":"nonpayable"},{"type":"function","name":"cleanHandsCircuitId","inputs":[],"outputs":[{"name":"","type":"uint256","internalType":"uint256"}],"stateMutability":"view"},{"type":"function","name":"cleanHandsNonces","inputs":[{"name":"","type":"address","internalType":"address"},{"name":"","type":"uint256","internalType":"uint256"}],"outputs":[{"name":"","type":"bool","internalType":"bool"}],"stateMutability":"view"},{"type":"function","name":"collectedFees","inputs":[],"outputs":[{"name":"","type":"uint256","internalType":"uint256"}],"stateMutability":"view"},{"type":"function","name":"depositToAztecPrivate","inputs":[{"name":"_amount","type":"uint256","internalType":"uint256"},{"name":"_secretHashForL2MessageConsumption","type":"bytes32","internalType":"bytes32"},{"name":"_cleanHands","type":"tuple","internalType":"struct TokenPortal.CleanHandsData","components":[{"name":"nonce","type":"uint256","internalType":"uint256"},{"name":"actionId","type":"uint256","internalType":"uint256"},{"name":"signature","type":"bytes","internalType":"bytes"}]},{"name":"_passport","type":"tuple","internalType":"struct TokenPortal.PassportData","components":[{"name":"maxAmount","type":"uint256","internalType":"uint256"},{"name":"nonce","type":"uint256","internalType":"uint256"},{"name":"deadline","type":"uint256","internalType":"uint256"},{"name":"signature","type":"bytes","internalType":"bytes"}]}],"outputs":[{"name":"","type":"bytes32","internalType":"bytes32"},{"name":"","type":"uint256","internalType":"uint256"}],"stateMutability":"nonpayable"},{"type":"function","name":"depositToAztecPublic","inputs":[{"name":"_to","type":"bytes32","internalType":"bytes32"},{"name":"_amount","type":"uint256","internalType":"uint256"},{"name":"_secretHash","type":"bytes32","internalType":"bytes32"}],"outputs":[{"name":"","type":"bytes32","internalType":"bytes32"},{"name":"","type":"uint256","internalType":"uint256"}],"stateMutability":"nonpayable"},{"type":"function","name":"feeBasisPoints","inputs":[],"outputs":[{"name":"","type":"uint256","internalType":"uint256"}],"stateMutability":"view"},{"type":"function","name":"feeRecipient","inputs":[],"outputs":[{"name":"","type":"address","internalType":"address"}],"stateMutability":"view"},{"type":"function","name":"getCollectedFees","inputs":[],"outputs":[{"name":"","type":"uint256","internalType":"uint256"}],"stateMutability":"view"},{"type":"function","name":"getFeeRecipient","inputs":[],"outputs":[{"name":"","type":"address","internalType":"address"}],"stateMutability":"view"},{"type":"function","name":"humanIdAttester","inputs":[],"outputs":[{"name":"","type":"address","internalType":"address"}],"stateMutability":"view"},{"type":"function","name":"inbox","inputs":[],"outputs":[{"name":"","type":"address","internalType":"contract IInbox"}],"stateMutability":"view"},{"type":"function","name":"initialize","inputs":[{"name":"_registry","type":"address","internalType":"address"},{"name":"_underlying","type":"address","internalType":"address"},{"name":"_l2Bridge","type":"bytes32","internalType":"bytes32"}],"outputs":[],"stateMutability":"nonpayable"},{"type":"function","name":"l2Bridge","inputs":[],"outputs":[{"name":"","type":"bytes32","internalType":"bytes32"}],"stateMutability":"view"},{"type":"function","name":"outbox","inputs":[],"outputs":[{"name":"","type":"address","internalType":"contract IOutbox"}],"stateMutability":"view"},{"type":"function","name":"owner","inputs":[],"outputs":[{"name":"","type":"address","internalType":"address"}],"stateMutability":"view"},{"type":"function","name":"passportNonces","inputs":[{"name":"","type":"address","internalType":"address"},{"name":"","type":"uint256","internalType":"uint256"}],"outputs":[{"name":"","type":"bool","internalType":"bool"}],"stateMutability":"view"},{"type":"function","name":"passportSigner","inputs":[],"outputs":[{"name":"","type":"address","internalType":"address"}],"stateMutability":"view"},{"type":"function","name":"pause","inputs":[],"outputs":[],"stateMutability":"nonpayable"},{"type":"function","name":"paused","inputs":[],"outputs":[{"name":"","type":"bool","internalType":"bool"}],"stateMutability":"view"},{"type":"function","name":"pendingOwner","inputs":[],"outputs":[{"name":"","type":"address","internalType":"address"}],"stateMutability":"view"},{"type":"function","name":"proposeOwnershipTransfer","inputs":[{"name":"newOwner","type":"address","internalType":"address"}],"outputs":[],"stateMutability":"nonpayable"},{"type":"function","name":"registry","inputs":[],"outputs":[{"name":"","type":"address","internalType":"contract IRegistry"}],"stateMutability":"view"},{"type":"function","name":"renounceOwnership","inputs":[],"outputs":[],"stateMutability":"nonpayable"},{"type":"function","name":"rescueToken","inputs":[{"name":"_token","type":"address","internalType":"address"},{"name":"_amount","type":"uint256","internalType":"uint256"}],"outputs":[],"stateMutability":"nonpayable"},{"type":"function","name":"rollup","inputs":[],"outputs":[{"name":"","type":"address","internalType":"contract IRollup"}],"stateMutability":"view"},{"type":"function","name":"rollupVersion","inputs":[],"outputs":[{"name":"","type":"uint256","internalType":"uint256"}],"stateMutability":"view"},{"type":"function","name":"transferOwnership","inputs":[{"name":"newOwner","type":"address","internalType":"address"}],"outputs":[],"stateMutability":"nonpayable"},{"type":"function","name":"underlying","inputs":[],"outputs":[{"name":"","type":"address","internalType":"contract IERC20"}],"stateMutability":"view"},{"type":"function","name":"unpause","inputs":[],"outputs":[],"stateMutability":"nonpayable"},{"type":"function","name":"updateAttestationConfig","inputs":[{"name":"_attester","type":"address","internalType":"address"},{"name":"_circuitId","type":"uint256","internalType":"uint256"},{"name":"_signer","type":"address","internalType":"address"}],"outputs":[],"stateMutability":"nonpayable"},{"type":"function","name":"updateFee","inputs":[{"name":"_newFeeBasisPoints","type":"uint256","internalType":"uint256"}],"outputs":[],"stateMutability":"nonpayable"},{"type":"function","name":"updateFeeRecipient","inputs":[{"name":"_newFeeRecipient","type":"address","internalType":"address"}],"outputs":[],"stateMutability":"nonpayable"},{"type":"function","name":"verifyCleanHandsSignature","inputs":[{"name":"nonce","type":"uint256","internalType":"uint256"},{"name":"circuitId","type":"uint256","internalType":"uint256"},{"name":"actionId","type":"uint256","internalType":"uint256"},{"name":"userAddress","type":"address","internalType":"address"},{"name":"signature","type":"bytes","internalType":"bytes"}],"outputs":[{"name":"","type":"bool","internalType":"bool"}],"stateMutability":"view"},{"type":"function","name":"verifyPassportSignature","inputs":[{"name":"maxAmount","type":"uint256","internalType":"uint256"},{"name":"nonce","type":"uint256","internalType":"uint256"},{"name":"deadline","type":"uint256","internalType":"uint256"},{"name":"signature","type":"bytes","internalType":"bytes"}],"outputs":[{"name":"","type":"bool","internalType":"bool"}],"stateMutability":"view"},{"type":"function","name":"withdraw","inputs":[{"name":"_recipient","type":"address","internalType":"address"},{"name":"_amount","type":"uint256","internalType":"uint256"},{"name":"_withCaller","type":"bool","internalType":"bool"},{"name":"_l2BlockNumber","type":"uint256","internalType":"uint256"},{"name":"_leafIndex","type":"uint256","internalType":"uint256"},{"name":"_path","type":"bytes32[]","internalType":"bytes32[]"}],"outputs":[],"stateMutability":"nonpayable"},{"type":"function","name":"withdrawFees","inputs":[],"outputs":[],"stateMutability":"nonpayable"},{"type":"event","name":"AttestationConfigUpdated","inputs":[{"name":"attester","type":"address","indexed":true,"internalType":"address"},{"name":"circuitId","type":"uint256","indexed":false,"internalType":"uint256"},{"name":"signer","type":"address","indexed":true,"internalType":"address"}],"anonymous":false},{"type":"event","name":"DepositToAztecPrivate","inputs":[{"name":"amount","type":"uint256","indexed":false,"internalType":"uint256"},{"name":"fee","type":"uint256","indexed":false,"internalType":"uint256"},{"name":"secretHash","type":"bytes32","indexed":false,"internalType":"bytes32"},{"name":"key","type":"bytes32","indexed":false,"internalType":"bytes32"},{"name":"index","type":"uint256","indexed":false,"internalType":"uint256"}],"anonymous":false},{"type":"event","name":"DepositToAztecPublic","inputs":[{"name":"to","type":"bytes32","indexed":true,"internalType":"bytes32"},{"name":"amount","type":"uint256","indexed":false,"internalType":"uint256"},{"name":"fee","type":"uint256","indexed":false,"internalType":"uint256"},{"name":"secretHash","type":"bytes32","indexed":false,"internalType":"bytes32"},{"name":"key","type":"bytes32","indexed":false,"internalType":"bytes32"},{"name":"index","type":"uint256","indexed":false,"internalType":"uint256"}],"anonymous":false},{"type":"event","name":"FeeRecipientUpdated","inputs":[{"name":"newFeeRecipient","type":"address","indexed":true,"internalType":"address"}],"anonymous":false},{"type":"event","name":"FeeUpdated","inputs":[{"name":"newFeeBasisPoints","type":"uint256","indexed":false,"internalType":"uint256"}],"anonymous":false},{"type":"event","name":"FeesWithdrawn","inputs":[{"name":"recipient","type":"address","indexed":true,"internalType":"address"},{"name":"amount","type":"uint256","indexed":false,"internalType":"uint256"}],"anonymous":false},{"type":"event","name":"Initialized","inputs":[{"name":"registry","type":"address","indexed":true,"internalType":"address"},{"name":"underlying","type":"address","indexed":true,"internalType":"address"},{"name":"l2Bridge","type":"bytes32","indexed":false,"internalType":"bytes32"}],"anonymous":false},{"type":"event","name":"OwnershipTransferCancelled","inputs":[{"name":"currentOwner","type":"address","indexed":true,"internalType":"address"}],"anonymous":false},{"type":"event","name":"OwnershipTransferProposed","inputs":[{"name":"previousOwner","type":"address","indexed":true,"internalType":"address"},{"name":"newOwner","type":"address","indexed":true,"internalType":"address"}],"anonymous":false},{"type":"event","name":"OwnershipTransferStarted","inputs":[{"name":"previousOwner","type":"address","indexed":true,"internalType":"address"},{"name":"newOwner","type":"address","indexed":true,"internalType":"address"}],"anonymous":false},{"type":"event","name":"OwnershipTransferred","inputs":[{"name":"previousOwner","type":"address","indexed":true,"internalType":"address"},{"name":"newOwner","type":"address","indexed":true,"internalType":"address"}],"anonymous":false},{"type":"event","name":"Paused","inputs":[{"name":"account","type":"address","indexed":false,"internalType":"address"}],"anonymous":false},{"type":"event","name":"TokensRescued","inputs":[{"name":"token","type":"address","indexed":true,"internalType":"address"},{"name":"to","type":"address","indexed":true,"internalType":"address"},{"name":"amount","type":"uint256","indexed":false,"internalType":"uint256"}],"anonymous":false},{"type":"event","name":"Unpaused","inputs":[{"name":"account","type":"address","indexed":false,"internalType":"address"}],"anonymous":false},{"type":"error","name":"AlreadyInitialized","inputs":[]},{"type":"error","name":"AmountExceedsLimit","inputs":[]},{"type":"error","name":"CleanHandsNonceUsed","inputs":[]},{"type":"error","name":"ECDSAInvalidSignature","inputs":[]},{"type":"error","name":"ECDSAInvalidSignatureLength","inputs":[{"name":"length","type":"uint256","internalType":"uint256"}]},{"type":"error","name":"ECDSAInvalidSignatureS","inputs":[{"name":"s","type":"bytes32","internalType":"bytes32"}]},{"type":"error","name":"EnforcedPause","inputs":[]},{"type":"error","name":"ExpectedPause","inputs":[]},{"type":"error","name":"FeeTooHigh","inputs":[]},{"type":"error","name":"InvalidAddress","inputs":[]},{"type":"error","name":"InvalidPassportSignature","inputs":[]},{"type":"error","name":"InvalidVerification","inputs":[]},{"type":"error","name":"NoFeesToWithdraw","inputs":[]},{"type":"error","name":"NoPendingOwner","inputs":[]},{"type":"error","name":"OwnableInvalidOwner","inputs":[{"name":"owner","type":"address","internalType":"address"}]},{"type":"error","name":"OwnableUnauthorizedAccount","inputs":[{"name":"account","type":"address","internalType":"address"}]},{"type":"error","name":"PassportNonceUsed","inputs":[]},{"type":"error","name":"ReentrancyGuardReentrantCall","inputs":[]},{"type":"error","name":"SafeERC20FailedOperation","inputs":[{"name":"token","type":"address","internalType":"address"}]},{"type":"error","name":"Unauthorized","inputs":[]}],"bytecode":{"object":"0x60a06040523461003f57610020610014610170565b949390939291926102c2565b610028610044565b61408c61064582396080518161280e015261408c90f35b61004a565b60405190565b5f80fd5b601f801991011690565b634e487b7160e01b5f52604160045260245ffd5b906100769061004e565b810190811060018060401b0382111761008e57604052565b610058565b906100a661009f610044565b928361006c565b565b5f80fd5b60018060a01b031690565b6100c0906100ac565b90565b6100cc816100b7565b036100d357565b5f80fd5b905051906100e4826100c3565b565b90565b6100f2816100e6565b036100f957565b5f80fd5b9050519061010a826100e9565b565b909160c08284031261016b57610124835f84016100d7565b9261013281602085016100d7565b9261014082604083016100fd565b9261016861015184606085016100d7565b9361015f81608086016100fd565b9360a0016100d7565b90565b6100a8565b61018e6146d18038038061018381610093565b92833981019061010c565b909192939495565b90565b90565b6101b06101ab6101b592610196565b610199565b6100ac565b90565b6101c19061019c565b90565b5f0190565b90565b6101e06101db6101e5926101c9565b610199565b6100e6565b90565b6101f36103e86101cc565b90565b5f1b90565b9061020c60018060a01b03916101f6565b9181191691161790565b61022a61022561022f926100ac565b610199565b6100ac565b90565b61023b90610216565b90565b61024790610232565b90565b90565b9061026261025d6102699261023e565b61024a565b82546101fb565b9055565b906102795f19916101f6565b9181191691161790565b61029761029261029c926100e6565b610199565b6100e6565b90565b90565b906102b76102b26102be92610283565b61029f565b825461026d565b9055565b6102d190959495929192610402565b6102d961052b565b608052816102f76102f16102ec5f6101b8565b6100b7565b916100b7565b146103e6578061031661031061030b6101e8565b6100e6565b916100e6565b116103ca5761032961033092601161024d565b60106102a2565b8061034b6103456103405f6101b8565b6100b7565b916100b7565b146103ae578161036b6103656103605f6101b8565b6100b7565b916100b7565b14610392576103909261038261038992600b61024d565b600c6102a2565b600d61024d565b565b5f63e6c4247b60e01b8152806103aa600482016101c4565b0390fd5b5f63e6c4247b60e01b8152806103c6600482016101c4565b0390fd5b5f63cd4e616760e01b8152806103e2600482016101c4565b0390fd5b5f63e6c4247b60e01b8152806103fe600482016101c4565b0390fd5b61040b9061042f565b565b610416906100b7565b9052565b919061042d905f6020850194019061040d565b565b6104376104b5565b8061045261044c6104475f6101b8565b6100b7565b916100b7565b14610462576104609061059c565b565b61048561046e5f6101b8565b5f918291631e4fbdf760e01b83526004830161041a565b0390fd5b90565b6104a061049b6104a592610489565b610199565b6100e6565b90565b6104b2600161048c565b90565b6104bd61051b565b6104cf6104c86104a8565b60016102a2565b565b906104dd60ff916101f6565b9181191691161790565b151590565b6104f5906104e7565b90565b90565b9061051061050b610517926104ec565b6104f8565b82546104d1565b9055565b6105255f5f6104fb565b565b5f90565b610533610527565b503390565b1b90565b9190600861055c91029161055660018060a01b0384610538565b92610538565b9181191691161790565b919061057c6105776105849361023e565b61024a565b90835461053c565b9055565b61059a91610594610527565b91610566565b565b6105b0906105ab5f6003610588565b6105e3565b565b5f1c90565b60018060a01b031690565b6105ce6105d3916105b2565b6105b7565b90565b6105e090546105c2565b90565b6105ed60026105d6565b6105f882600261024d565b9061062c6106267f8be0079c531659141344cd1fd0a4f28419497f9722a3daafe3b4186f6b6457e09361023e565b9161023e565b91610635610044565b8061063f816101c4565b0390a356fe60806040526004361015610013575b6114e6565b61001d5f3561029c565b80631945e30814610297578063202db8261461029257806321040fc31461028d57806323452b9c14610288578063284b5dc61461028357806333f3d6281461027e5780633ba57310146102795780633f4ba83a14610274578063469048401461026f578063476343ee1461026a5780634befe2ca146102655780634ccb20c0146102605780635c975abb1461025b5780636133f985146102565780636f307dc314610251578063715018a61461024c57806379ba5097146102475780637b103999146102425780638456cb591461023d5780638da5cb5b146102385780639003adfe146102335780639012c4a81461022e57806399a5d74714610229578063a491a4fc14610224578063ab3d25ac1461021f578063ae1f6aaf1461021a578063b089388714610215578063b0a00e1514610210578063b8606eef1461020b578063cb23bcb514610206578063ce11e6ab14610201578063d1a79008146101fc578063d54a8d18146101f7578063dcb1154d146101f2578063e30c3978146101ed578063eb50136f146101e8578063f160d369146101e3578063f2fde38b146101de578063f9148fa1146101d95763fb0e722b0361000e576114b1565b61140d565b6113b9565b611386565b611351565b61130d565b6112d3565b6111fd565b6111c8565b611184565b6110e1565b61103e565b610ffa565b610fb6565b610f72565b610eef565b610e15565b610d81565b610d4e565b610cfb565b610c8e565b610c5b565b610c26565b610b85565b610b52565b610b1d565b610a53565b6109e4565b6109af565b61097a565b6108f7565b6108c2565b610829565b6107ef565b6106d5565b610671565b6105a1565b61055f565b61050d565b610495565b60e01c90565b60405190565b5f80fd5b5f80fd5b5f80fd5b90565b6102c0816102b4565b036102c757565b5f80fd5b905035906102d8826102b7565b565b60018060a01b031690565b6102ee906102da565b90565b6102fa816102e5565b0361030157565b5f80fd5b90503590610312826102f1565b565b5f80fd5b5f80fd5b601f801991011690565b634e487b7160e01b5f52604160045260245ffd5b906103449061031c565b810190811067ffffffffffffffff82111761035e57604052565b610326565b9061037661036f6102a2565b928361033a565b565b67ffffffffffffffff81116103965761039260209161031c565b0190565b610326565b90825f939282370152565b909291926103bb6103b682610378565b610363565b938185526020850190828401116103d7576103d59261039b565b565b610318565b9080601f830112156103fa578160206103f7933591016103a6565b90565b610314565b91909160a08184031261046957610418835f83016102cb565b9261042681602084016102cb565b9261043482604085016102cb565b926104428360608301610305565b92608082013567ffffffffffffffff81116104645761046192016103dc565b90565b6102b0565b6102ac565b151590565b61047c9061046e565b9052565b9190610493905f60208501940190610473565b565b346104c9576104c56104b46104ab3660046103ff565b93929092611619565b6104bc6102a2565b91829182610480565b0390f35b6102a8565b9091606082840312610503576105006104e9845f8501610305565b936104f781602086016102cb565b93604001610305565b90565b6102ac565b5f0190565b3461053c576105266105203660046104ce565b9161186d565b61052e6102a2565b8061053881610508565b0390f35b6102a8565b9060208282031261055a57610557915f01610305565b90565b6102ac565b3461058d57610577610572366004610541565b611926565b61057f6102a2565b8061058981610508565b0390f35b6102a8565b5f91031261059c57565b6102ac565b346105cf576105b1366004610592565b6105b96119e0565b6105c16102a2565b806105cb81610508565b0390f35b6102a8565b90565b6105e0816105d4565b036105e757565b5f80fd5b905035906105f8826105d7565b565b909160608284031261062f5761062c610615845f85016105eb565b9361062381602086016102cb565b936040016105eb565b90565b6102ac565b61063d906105d4565b9052565b61064a906102b4565b9052565b91602061066f92949361066860408201965f830190610634565b0190610641565b565b346106a35761068a6106843660046105fa565b91611ee8565b9061069f6106966102a2565b9283928361064e565b0390f35b6102a8565b91906040838203126106d057806106c46106cd925f8601610305565b936020016102cb565b90565b6102ac565b34610704576106ee6106e83660046106a8565b90611fe3565b6106f66102a2565b8061070081610508565b0390f35b6102a8565b6107128161046e565b0361071957565b5f80fd5b9050359061072a82610709565b565b5f80fd5b5f80fd5b909182601f8301121561076e5781359167ffffffffffffffff831161076957602001926020830284011161076457565b610730565b61072c565b610314565b9160c0838303126107ea5761078a825f8501610305565b9261079883602083016102cb565b926107a6816040840161071d565b926107b482606085016102cb565b926107c283608083016102cb565b9260a082013567ffffffffffffffff81116107e5576107e19201610734565b9091565b6102b0565b6102ac565b346108245761080e610802366004610773565b959490949391936123bf565b6108166102a2565b8061082081610508565b0390f35b6102a8565b3461085757610839366004610592565b6108416123ec565b6108496102a2565b8061085381610508565b0390f35b6102a8565b1c90565b60018060a01b031690565b61087b906008610880930261085c565b610860565b90565b9061088e915461086b565b90565b61089d60115f90610883565b90565b6108a9906102e5565b9052565b91906108c0905f602085019401906108a0565b565b346108f2576108d2366004610592565b6108ee6108dd610891565b6108e56102a2565b918291826108ad565b0390f35b6102a8565b3461092557610907366004610592565b61090f6124df565b6109176102a2565b8061092181610508565b0390f35b6102a8565b90565b90565b61094461093f6109499261092a565b61092d565b6102b4565b90565b6109576103e8610930565b90565b61096261094c565b90565b9190610978905f60208501940190610641565b565b346109aa5761098a366004610592565b6109a661099561095a565b61099d6102a2565b91829182610965565b0390f35b6102a8565b346109df576109bf366004610592565b6109db6109ca6124ed565b6109d26102a2565b918291826108ad565b0390f35b6102a8565b34610a14576109f4366004610592565b610a106109ff612524565b610a076102a2565b91829182610480565b0390f35b6102a8565b9091606082840312610a4e57610a4b610a34845f8501610305565b93610a428160208601610305565b936040016105eb565b90565b6102ac565b34610a8257610a6c610a66366004610a19565b916127fb565b610a746102a2565b80610a7e81610508565b0390f35b6102a8565b60018060a01b031690565b610aa2906008610aa7930261085c565b610a87565b90565b90610ab59154610a92565b90565b610ac460055f90610aaa565b90565b610adb610ad6610ae0926102da565b61092d565b6102da565b90565b610aec90610ac7565b90565b610af890610ae3565b90565b610b0490610aef565b9052565b9190610b1b905f60208501940190610afb565b565b34610b4d57610b2d366004610592565b610b49610b38610ab8565b610b406102a2565b91829182610b08565b0390f35b6102a8565b34610b8057610b62366004610592565b610b6a612c1d565b610b726102a2565b80610b7c81610508565b0390f35b6102a8565b34610bb357610b95366004610592565b610b9d612c27565b610ba56102a2565b80610baf81610508565b0390f35b6102a8565b60018060a01b031690565b610bd3906008610bd8930261085c565b610bb8565b90565b90610be69154610bc3565b90565b610bf560045f90610bdb565b90565b610c0190610ae3565b90565b610c0d90610bf8565b9052565b9190610c24905f60208501940190610c04565b565b34610c5657610c36366004610592565b610c52610c41610be9565b610c496102a2565b91829182610c11565b0390f35b6102a8565b34610c8957610c6b366004610592565b610c73612c4d565b610c7b6102a2565b80610c8581610508565b0390f35b6102a8565b34610cbe57610c9e366004610592565b610cba610ca9612c57565b610cb16102a2565b918291826108ad565b0390f35b6102a8565b90565b610cd6906008610cdb930261085c565b610cc3565b90565b90610ce99154610cc6565b90565b610cf860125f90610cde565b90565b34610d2b57610d0b366004610592565b610d27610d16610cec565b610d1e6102a2565b91829182610965565b0390f35b6102a8565b90602082820312610d4957610d46915f016102cb565b90565b6102ac565b34610d7c57610d66610d61366004610d30565b612d01565b610d6e6102a2565b80610d7881610508565b0390f35b6102a8565b34610db157610dad610d9c610d97366004610d30565b612d96565b610da46102a2565b91829182610965565b0390f35b6102a8565b90608082820312610e1057610dcd815f84016102cb565b92610ddb82602085016102cb565b92610de983604083016102cb565b92606082013567ffffffffffffffff8111610e0b57610e0892016103dc565b90565b6102b0565b6102ac565b34610e4957610e45610e34610e2b366004610db6565b92919091612e10565b610e3c6102a2565b91829182610480565b0390f35b6102a8565b610e5790610ae3565b90565b90610e6490610e4e565b5f5260205260405f2090565b610e84610e7f610e89926102b4565b61092d565b6102b4565b90565b90610e9690610e70565b5f5260205260405f2090565b60ff1690565b610eb8906008610ebd930261085c565b610ea2565b90565b90610ecb9154610ea8565b90565b610ee7610eec92610ee2600e935f94610e5a565b610e8c565b610ec0565b90565b34610f2057610f1c610f0b610f053660046106a8565b90610ece565b610f136102a2565b91829182610480565b0390f35b6102a8565b90565b610f38906008610f3d930261085c565b610f25565b90565b90610f4b9154610f28565b90565b610f5a60095f90610f40565b90565b9190610f70905f60208501940190610634565b565b34610fa257610f82366004610592565b610f9e610f8d610f4e565b610f956102a2565b91829182610f5d565b0390f35b6102a8565b610fb3600a5f90610cde565b90565b34610fe657610fc6366004610592565b610fe2610fd1610fa7565b610fd96102a2565b91829182610965565b0390f35b6102a8565b610ff7600b5f90610883565b90565b3461102a5761100a366004610592565b611026611015610feb565b61101d6102a2565b918291826108ad565b0390f35b6102a8565b61103b60105f90610cde565b90565b3461106e5761104e366004610592565b61106a61105961102f565b6110616102a2565b91829182610965565b0390f35b6102a8565b60018060a01b031690565b61108e906008611093930261085c565b611073565b90565b906110a1915461107e565b90565b6110b060065f90611096565b90565b6110bc90610ae3565b90565b6110c8906110b3565b9052565b91906110df905f602085019401906110bf565b565b34611111576110f1366004610592565b61110d6110fc6110a4565b6111046102a2565b918291826110cc565b0390f35b6102a8565b60018060a01b031690565b611131906008611136930261085c565b611116565b90565b906111449154611121565b90565b61115360075f90611139565b90565b61115f90610ae3565b90565b61116b90611156565b9052565b9190611182905f60208501940190611162565b565b346111b457611194366004610592565b6111b061119f611147565b6111a76102a2565b9182918261116f565b0390f35b6102a8565b6111c5600c5f90610cde565b90565b346111f8576111d8366004610592565b6111f46111e36111b9565b6111eb6102a2565b91829182610965565b0390f35b6102a8565b3461122d5761120d366004610592565b611229611218612ef4565b6112206102a2565b91829182610965565b0390f35b6102a8565b5f80fd5b908160609103126112445790565b611232565b908160809103126112575790565b611232565b906080828203126112ce57611273815f84016102cb565b9261128182602085016105eb565b92604081013567ffffffffffffffff81116112c957836112a2918301611236565b92606082013567ffffffffffffffff81116112c4576112c19201611249565b90565b6102b0565b6102b0565b6102ac565b34611308576112ef6112e636600461125c565b9291909161311a565b906113046112fb6102a2565b9283928361064e565b0390f35b6102a8565b3461133d5761131d366004610592565b61133961132861313b565b6113306102a2565b918291826108ad565b0390f35b6102a8565b61134e600d5f90610883565b90565b3461138157611361366004610592565b61137d61136c611342565b6113746102a2565b918291826108ad565b0390f35b6102a8565b346113b45761139e611399366004610541565b6131ed565b6113a66102a2565b806113b081610508565b0390f35b6102a8565b346113e7576113d16113cc366004610541565b61326a565b6113d96102a2565b806113e381610508565b0390f35b6102a8565b61140561140a92611400600f935f94610e5a565b610e8c565b610ec0565b90565b3461143e5761143a6114296114233660046106a8565b906113ec565b6114316102a2565b91829182610480565b0390f35b6102a8565b60018060a01b031690565b61145e906008611463930261085c565b611443565b90565b90611471915461144e565b90565b61148060085f90611466565b90565b61148c90610ae3565b90565b61149890611483565b9052565b91906114af905f6020850194019061148f565b565b346114e1576114c1366004610592565b6114dd6114cc611474565b6114d46102a2565b9182918261149c565b0390f35b6102a8565b5f80fd5b5f90565b90565b6114fd611502916102b4565b6114ee565b9052565b60601b90565b61151590611506565b90565b6115219061150c565b90565b611530611535916102e5565b611518565b9052565b92611566602061156e9461155e828861155660149b9a83996114f1565b0180926114f1565b0180926114f1565b018092611524565b0190565b60200190565b5190565b905090565b5f7f19457468657265756d205369676e6564204d6573736167653a0a333200000000910152565b6115b4601c809261157c565b6115bd81611581565b0190565b90565b6115d06115d5916105d4565b6115c1565b9052565b906115ef6115e86020936115a8565b80926115c4565b0190565b5f1c90565b611604611609916115f3565b610860565b90565b61161690546115f8565b90565b9161165b6116919261164c6116a99796611682966116356114ea565b5092946116406102a2565b95869460208601611539565b6020820181038252038261033a565b61166d61166782611578565b91611572565b206116766102a2565b928391602083016115d9565b6020820181038252038261033a565b6116a361169d82611578565b91611572565b20613275565b6116c46116be6116b9600b61160c565b6102e5565b916102e5565b1490565b906116db92916116d6613297565b611784565b565b90565b6116f46116ef6116f9926116dd565b61092d565b6102da565b90565b611705906116e0565b90565b5f1b90565b9061171e60018060a01b0391611708565b9181191691161790565b90565b9061174061173b61174792610e4e565b611728565b825461170d565b9055565b906117575f1991611708565b9181191691161790565b90565b9061177961177461178092610e70565b611761565b825461174b565b9055565b8061179f6117996117945f6116fc565b6102e5565b916102e5565b1461185157826117bf6117b96117b45f6116fc565b6102e5565b916102e5565b14611835576117cf81600b61172b565b6117da82600c611764565b6117e583600d61172b565b90919061183061181e6118187f6d32598dc0f68571384420cdd4e5c4d44706577bd1da4d45aacac8c0e98f23d193610e4e565b93610e4e565b936118276102a2565b91829182610965565b0390a3565b5f63e6c4247b60e01b81528061184d60048201610508565b0390fd5b5f63e6c4247b60e01b81528061186960048201610508565b0390fd5b9061187892916116c8565b565b61188b90611886613297565b61188d565b565b806118a86118a261189d5f6116fc565b6102e5565b916102e5565b1461190a576118b5612c57565b6118be8261326a565b906118f26118ec7ff4e75b79500ab730f8a026ed3cba6d55331bcb64c9e9f60c548e371356e5e3c093610e4e565b91610e4e565b916118fb6102a2565b8061190581610508565b0390a3565b5f63e6c4247b60e01b81528061192260048201610508565b0390fd5b61192f9061187a565b565b611939613297565b611941611943565b565b61194b61313b565b61196561195f61195a5f6116fc565b6102e5565b916102e5565b146119c45761197a611975612c57565b613349565b611982612c57565b6119ac7f48a87225523c5fd46bf3b7da3223e5525f77b8136a962695d701a24699bef8f391610e4e565b906119b56102a2565b806119bf81610508565b0390a2565b5f633e31d61b60e11b8152806119dc60048201610508565b0390fd5b6119e8611931565b565b5f90565b5f90565b90611a0794939291611a0261335f565b611a0b565b9091565b90611a2094939291611a1b6133b5565b611d17565b9091611a2a613439565b565b611a40611a3b611a45926116dd565b61092d565b6102b4565b90565b60209181520190565b5f7f416d6f756e74206d7573742062652067726561746572207468616e207a65726f910152565b611a8460208092611a48565b611a8d81611a51565b0190565b611aa69060208101905f818303910152611a78565b90565b15611ab057565b611ab86102a2565b62461bcd60e51b815280611ace60048201611a91565b0390fd5b634e487b7160e01b5f52601160045260245ffd5b611af5611afb919392936102b4565b926102b4565b8203918211611b0657565b611ad2565b611b17611b1c916115f3565b610f25565b90565b611b299054611b0b565b90565b611b38611b3d916115f3565b610cc3565b90565b611b4a9054611b2c565b90565b611b576040610363565b90565b90611b64906105d4565b9052565b90611b72906102b4565b9052565b611b82611b87916115f3565b610a87565b90565b611b949054611b76565b90565b611ba090610ae3565b90565b611bb2611bb8919392936102b4565b926102b4565b8201809211611bc357565b611ad2565b611bd4611bd9916115f3565b611443565b90565b611be69054611bc8565b90565b5f80fd5b60e01b90565b90505190611c00826105d7565b565b90505190611c0f826102b7565b565b9190604083820312611c395780611c2d611c36925f8601611bf3565b93602001611c02565b90565b6102ac565b611c47906105d4565b9052565b611c54906102b4565b9052565b90602080611c7a93611c705f8201515f860190611c3e565b0151910190611c4b565b565b606090611ca5611cac9496959396611c9b60808401985f850190611c58565b6040830190610634565b0190610634565b565b611cb66102a2565b3d5f823e3d90fd5b611cc7906105d4565b90565b90959492611d1594611d04611d0e92611cfa608096611cf060a088019c5f890190610641565b6020870190610641565b6040850190610634565b6060830190610634565b0190610641565b565b949391945050611d3982611d33611d2d5f611a2c565b916102b4565b11611aa9565b611d4282612d96565b90611d4e838390611ae6565b906040611d5b6009611b1f565b611d85611d68600a611b40565b611d7c611d73611b4d565b935f8501611b5a565b60208301611b68565b94611dee611dca89611dc58791611db6611d9d6102a2565b93849260046020850163bc6a9bd360e01b81520161064e565b6020820181038252038261033a565b613596565b91611dd56005611b8a565b90611dde613600565b611de730611b97565b9192613670565b611e0b611e0486611dff6012611b40565b611ba3565b6012611764565b611e1d611e186008611bdc565b611483565b611e415f631f6d510b989398611e4c87611e356102a2565b9b8c9788968795611bed565b855260048501611c7c565b03925af18015611ee3575f80959091611eb0575b50939591929092611ea9858890611e977f71591b8502d8aa9640fa219fbfb8e23ffcd2a75edbd923826ef3ef77f6da4a8b96611cbe565b96611ea06102a2565b95869586611cca565b0390a29190565b9050611ed491945060403d8111611edc575b611ecc818361033a565b810190611c11565b93905f611e60565b503d611ec2565b611cae565b90611f049291611ef66119ea565b611efe6119ee565b906119f2565b9091565b90611f1a91611f15613297565b611f34565b565b611f2590610ac7565b90565b611f3190611f1c565b90565b80611f4f611f49611f445f6116fc565b6102e5565b916102e5565b14611fc757611f6f611f6082611f28565b611f68612c57565b84916136e3565b90611f78612c57565b9091611fc2611fb0611faa7f77023e19c7343ad491fd706c36335ca0e738340a91f29b1fd81e2673d44896c493610e4e565b93610e4e565b93611fb96102a2565b91829182610965565b0390a3565b5f63e6c4247b60e01b815280611fdf60048201610508565b0390fd5b90611fed91611f08565b565b9061200696959493929161200161335f565b612008565b565b9061201f96959493929161201a6133b5565b6121ce565b612027613439565b565b6120336040610363565b90565b90612040906102e5565b9052565b60409061206d612074949695939661206360608401985f8501906108a0565b6020830190610641565b01906108a0565b565b6120806060610363565b90565b52565b52565b61209561209a916115f3565b611116565b90565b6120a79054612089565b90565b5f9103126120b457565b6102ac565b906020806120db936120d15f8201515f860190611c3e565b0151910190611c4b565b565b6120e6906102e5565b9052565b9060208061210c936121025f8201515f8601906120dd565b0151910190611c4b565b565b9060806040612142936121275f8201515f8601906120b9565b6121386020820151838601906120ea565b0151910190611c3e565b565b60209181520190565b5f80fd5b9037565b90918261216191612144565b9160018060fb1b03811161218457829160206121809202938491612151565b0190565b61214d565b9093916121cb95936121b46121be926121aa6101008601985f87019061210e565b60a0850190610641565b60c0830190610641565b60e0818503910152612155565b90565b949291959093956121f1856121eb6121e55f611a2c565b916102b4565b11611aa9565b6122ce6121fe6009611b1f565b9161222961220c600a611b40565b612220612217611b4d565b955f8701611b5a565b60208501611b68565b6122c56122a761223830611b97565b9261225a46612251612248612029565b965f8801612036565b60208601611b68565b6122a28b8b925f146123ae57612293612271613600565b5b61227a6102a2565b948593600460208601631a4ca37b60e21b815201612044565b6020820181038252038261033a565b613596565b916122bc6122b3612076565b955f8701612083565b60208501612086565b60408301611b5a565b6122ff6122f86122e86122e088612d96565b978890611ae6565b966122f36012611b40565b611ba3565b6012611764565b61231161230c600761209d565b611156565b91637fb34967919397949091833b156123a95761234f612344935f979388946123386102a2565b9c8d998a988997611bed565b875260048701612189565b03925af19283156123a45761237693612378575b5061236e6005611b8a565b9190916136e3565b565b612397905f3d811161239d575b61238f818361033a565b8101906120aa565b5f612363565b503d612385565b611cae565b611be9565b6122936123ba5f6116fc565b612272565b906123ce969594939291611fef565b565b6123d8613297565b6123e06123e2565b565b6123ea6137d5565b565b6123f46123d0565b565b6123fe613297565b612406612408565b565b6124106133b5565b612418612422565b612420613439565b565b61242c6012611b40565b8061243f6124395f611a2c565b916102b4565b146124c3576124576124505f611a2c565b6012611764565b6124756124646005611b8a565b61246e601161160c565b83916136e3565b61247f601161160c565b6124be6124ac7fc0819c13be868895eb93e40eaceb96de976442fa1d404e5c55f14bb65a8c489a92610e4e565b926124b56102a2565b91829182610965565b0390a2565b5f630d00db4d60e31b8152806124db60048201610508565b0390fd5b6124e76123f6565b565b5f90565b6124f56124e9565b50612500601161160c565b90565b61250f612514916115f3565b610ea2565b90565b6125219054612503565b90565b61252c6114ea565b506125365f612517565b90565b61254561254a916115f3565b610bb8565b90565b6125579054612539565b90565b61256e612569612573926116dd565b611708565b6105d4565b90565b61257f90610ac7565b90565b61258b90612576565b90565b61259790612576565b90565b90565b906125b26125ad6125b99261258e565b61259a565b825461170d565b9055565b6125c690611f1c565b90565b90565b906125e16125dc6125e8926125bd565b6125c9565b825461170d565b9055565b6125f5906115f3565b90565b9061260d61260861261492611cbe565b6125ec565b825461174b565b9055565b612621906102e5565b90565b61262d81612618565b0361263457565b5f80fd5b9050519061264582612624565b565b906020828203126126605761265d915f01612638565b90565b6102ac565b61266e90610ac7565b90565b61267a90612665565b90565b61268690612665565b90565b90565b906126a161269c6126a89261267d565b612689565b825461170d565b9055565b6126b86126bd916115f3565b611073565b90565b6126ca90546126ac565b90565b6126d6906102e5565b90565b6126e2816126cd565b036126e957565b5f80fd5b905051906126fa826126d9565b565b9060208282031261271557612712915f016126ed565b90565b6102ac565b61272390610ac7565b90565b61272f9061271a565b90565b90565b9061274a61274561275192612726565b612732565b825461170d565b9055565b61275e906102e5565b90565b61276a81612755565b0361277157565b5f80fd5b9050519061278282612761565b565b9060208282031261279d5761279a915f01612775565b90565b6102ac565b6127ab90610ac7565b90565b6127b7906127a2565b90565b90565b906127d26127cd6127d9926127ae565b6127ba565b825461170d565b9055565b906020828203126127f6576127f3915f01611c02565b90565b6102ac565b919091612806613600565b6128386128327f00000000000000000000000000000000000000000000000000000000000000006102e5565b916102e5565b03612bdd5761284f61284a600461254d565b610bf8565b61286961286361285e5f6116fc565b6102e5565b916102e5565b03612bc2578061288961288361287e5f6116fc565b6102e5565b916102e5565b148015612ba0575b8015612b7e575b612b62576128af6128a882612582565b600461259d565b6128c26128bb84611f28565b60056125cc565b6128cd8260096125f8565b6128fa60206128e46128df600461254d565b610bf8565b63971b0e6b906128f26102a2565b938492611bed565b8252818061290a60048201610508565b03915afa8015612b5d5761292c61293191612938935f91612b2f575b506110b3565b612671565b600661268c565b612965602061294f61294a60066126c0565b6110b3565b63a32fbb7b9061295d6102a2565b938492611bed565b8252818061297560048201610508565b03915afa8015612b2a57612992915f91612afc575b506007612735565b6129bf60206129a96129a460066126c0565b6110b3565b63368c093c906129b76102a2565b938492611bed565b825281806129cf60048201610508565b03915afa8015612af7576129ec915f91612ac9575b5060086127bd565b612a196020612a036129fe60066126c0565b6110b3565b630d8e6e2c90612a116102a2565b938492611bed565b82528180612a2960048201610508565b03915afa8015612ac457612a46915f91612a96575b50600a611764565b919091612a91612a7f612a797fce8c93fecc87ea28c5a92dea4f94ba0a51087dc17a2f11782aa2117dbd19b68693610e4e565b93610e4e565b93612a886102a2565b91829182610f5d565b0390a3565b612ab7915060203d8111612abd575b612aaf818361033a565b8101906127dd565b5f612a3e565b503d612aa5565b611cae565b612aea915060203d8111612af0575b612ae2818361033a565b810190612784565b5f6129e4565b503d612ad8565b611cae565b612b1d915060203d8111612b23575b612b15818361033a565b8101906126fc565b5f61298a565b503d612b0b565b611cae565b612b50915060203d8111612b56575b612b48818361033a565b810190612647565b5f612926565b503d612b3e565b611cae565b5f63e6c4247b60e01b815280612b7a60048201610508565b0390fd5b5081612b9a612b94612b8f5f61255a565b6105d4565b916105d4565b14612898565b5082612bbc612bb6612bb15f6116fc565b6102e5565b916102e5565b14612891565b5f62dc149f60e41b815280612bd960048201610508565b0390fd5b5f6282b42960e81b815280612bf460048201610508565b0390fd5b612c00613297565b612c08612c0a565b565b612c1b612c165f6116fc565b613349565b565b612c25612bf8565b565b612c2f6137df565b565b612c39613297565b612c41612c43565b565b612c4b613890565b565b612c55612c31565b565b612c5f6124e9565b50612c6a600261160c565b90565b612c7e90612c79613297565b612c80565b565b80612c9a612c94612c8f61094c565b6102b4565b916102b4565b11612ce557612caa816010611764565b612ce07f8c4d35e54a3f2ef1134138fd8ea3daee6a3c89e10d2665996babdf70261e2c7691612cd76102a2565b91829182610965565b0390a1565b5f63cd4e616760e01b815280612cfd60048201610508565b0390fd5b612d0a90612c6d565b565b612d1b612d21919392936102b4565b926102b4565b91612d2d8382026102b4565b928184041490151715612d3c57565b611ad2565b90565b612d58612d53612d5d92612d41565b61092d565b6102b4565b90565b634e487b7160e01b5f52601260045260245ffd5b612d80612d86916102b4565b916102b4565b908115612d91570490565b612d60565b612db6612dc791612da56119ee565b50612db06010611b40565b90612d0c565b612dc1612710612d44565b90612d74565b90565b6020612e0c94612dfc828096612df4601487612dec612e0499839f9e9b611524565b0180926114f1565b0180926114f1565b0180926114f1565b018092611524565b0190565b92919092612e1c6114ea565b5042612e30612e2a846102b4565b916102b4565b11612eec57612ecd93612e7f612eb592612e70612ea695612e4f613600565b929490612e5b30611b97565b91612e646102a2565b96879560208701612dca565b6020820181038252038261033a565b612e91612e8b82611578565b91611572565b20612e9a6102a2565b928391602083016115d9565b6020820181038252038261033a565b612ec7612ec182611578565b91611572565b20613275565b612ee8612ee2612edd600d61160c565b6102e5565b916102e5565b1490565b505050505f90565b612efc6119ee565b50612f076012611b40565b90565b90612f209594939291612f1b61335f565b612f24565b9091565b90612f3a9594939291612f356133b5565b612f46565b9091612f44613439565b565b90612f78939695919492945050612f6f84612f69612f635f611a2c565b916102b4565b11611aa9565b8391909161390c565b612f8181612d96565b612f8c828290611ae6565b936040612f996009611b1f565b612fc3612fa6600a611b40565b612fba612fb1611b4d565b935f8501611b5a565b60208301611b68565b9361302a613006612ff26130018a612fd96102a2565b9283916004602084016311675ebd60e31b815201610965565b6020820181038252038261033a565b613596565b916130116005611b8a565b9061301a613600565b61302330611b97565b9192613670565b6130476130408561303b6012611b40565b611ba3565b6012611764565b6130596130546008611bdc565b611483565b61307d5f631f6d510b979397613088876130716102a2565b9a8b9788968795611bed565b855260048501611c7c565b03925af18015613115575f809490916130e2575b5092949190916130db8487907fec915cbb614f4e8d4e71c5f18aa49dbb6e41d25ab75f44560c28ea05916168c3956130d26102a2565b95869586611cca565b0390a19190565b905061310691935060403d811161310e575b6130fe818361033a565b810190611c11565b92905f61309c565b503d6130f4565b611cae565b906131379392916131296119ea565b6131316119ee565b90612f0a565b9091565b6131436124e9565b5061314e600361160c565b90565b6131629061315d613297565b613164565b565b8061317f6131796131745f6116fc565b6102e5565b916102e5565b146131d15761318f81601161172b565b6131b97f7a7b5a0a132f9e0581eb8527f66eae9ee89c2a3e79d4ac7e41a1f1f4d48a7fc291610e4e565b906131c26102a2565b806131cc81610508565b0390a2565b5f63e6c4247b60e01b8152806131e960048201610508565b0390fd5b6131f690613151565b565b61320990613204613297565b61320b565b565b61321681600361172b565b61321e612c57565b9061325261324c7f38d16b8cac22d99fc7c124b9cd0de2d3fa1faef420bfe791d8c362d765e2270093610e4e565b91610e4e565b9161325b6102a2565b8061326581610508565b0390a3565b613273906131f8565b565b6132949161328b916132856124e9565b50613be9565b90929192613cd1565b90565b61329f612c57565b6132b86132b26132ad613600565b6102e5565b916102e5565b036132bf57565b6132e16132ca613600565b5f91829163118cdaa760e01b8352600483016108ad565b0390fd5b1b90565b9190600861330991029161330360018060a01b03846132e5565b926132e5565b9181191691161790565b919061332961332461333193610e4e565b611728565b9083546132e9565b9055565b613347916133416124e9565b91613313565b565b61335d906133585f6003613335565b613da2565b565b613367612524565b61336d57565b5f63d93c066560e01b81528061338560048201610508565b0390fd5b90565b6133a061339b6133a592613389565b61092d565b6102b4565b90565b6133b2600261338c565b90565b6133bf6001611b40565b6133d86133d26133cd6133a8565b6102b4565b916102b4565b146133f1576133ef6133e86133a8565b6001611764565b565b5f633ee5aeb560e01b81528061340960048201610508565b0390fd5b90565b61342461341f6134299261340d565b61092d565b6102b4565b90565b6134366001613410565b90565b61344b61344461342c565b6001611764565b565b9061345f61345a83610378565b610363565b918252565b369037565b9061348e6134768361344d565b926020806134848693610378565b9201910390613464565b565b905090565b90825f9392825e0152565b6134c56134bc926020926134b381611578565b94858093613490565b93849101613495565b0190565b6134d2916134a0565b90565b60ff191690565b6134e5906134d5565b90565b90565b6134f76134fc916134d5565b6134e8565b9052565b61351061351791601f94936134a0565b80926134eb565b0190565b61353a92916135469161352c6102a2565b948592602084019283613500565b9081038252038361033a565b565b61355290516105d4565b90565b61356f61356a61356483611578565b92611572565b613548565b906020811061357d575b5090565b61358f905f19906020036008026132e5565b165f613579565b61359e6119ea565b5060205f6135c96135b76135b26001613410565b613469565b936135c06102a2565b918291826134c9565b039060025afa156135fb576135f36135f8916135ed6135e85f51611708565b6134dc565b9061351b565b613555565b90565b611cae565b6136086124e9565b503390565b63ffffffff1690565b63ffffffff60e01b1690565b61363661363161363b9261360d565b611bed565b613616565b90565b60409061366761366e949695939661365d60608401985f8501906108a0565b60208301906108a0565b0190610641565b565b6004926136aa6136be95936136b993946136916323b872dd92949192613622565b9361369a6102a2565b978895602087019081520161363e565b6020820181038252038361033a565b613e03565b565b9160206136e19294936136da60408201965f8301906108a0565b0190610641565b565b9061372a61372f9361371b6004949361370263a9059cbb919391613622565b9261370b6102a2565b96879460208601908152016136c0565b6020820181038252038361033a565b613e03565b565b613739613eb7565b613741613788565b565b9061374f60ff91611708565b9181191691161790565b6137629061046e565b90565b90565b9061377d61377861378492613759565b613765565b8254613743565b9055565b6137925f5f613768565b61379a613600565b6137d07f5db9ee0a495bf2e6ff9c91a7834c1ba4fdd244a5e8aa4e537bd38aeae4b073aa916137c76102a2565b918291826108ad565b0390a1565b6137dd613731565b565b6137e7613600565b6137ef61313b565b6138016137fb836102e5565b916102e5565b036138115761380f90613349565b565b61382c905f91829163118cdaa760e01b8352600483016108ad565b0390fd5b61383861335f565b613840613842565b565b61384d60015f613768565b613855613600565b61388b7f62e78cea01bee320cd4e420270b5ea74000d11b0c9f74754ebdbfc544b05a258916138826102a2565b918291826108ad565b0390a1565b613898613830565b565b5f80fd5b5f80fd5b5f80fd5b9035906001602003813603038212156138e8570180359067ffffffffffffffff82116138e3576020019160018202360383136138de57565b6138a2565b61389e565b61389a565b5090565b356138fb816102b7565b90565b6139099136916103a6565b90565b905f61392561391f8360408101906138a6565b906138ed565b6139376139315f611a2c565b916102b4565b11613ad0575b61394891501561046e565b613951575b5050565b6139686139628360608101906138a6565b906138ed565b61397a6139745f611a2c565b916102b4565b14613ab4576139af6139aa613998600e613992613600565b90610e5a565b6139a4602086016138f1565b90610e8c565b612517565b613a9857613a006139fa6139c45f85016138f1565b6139d0602086016138f1565b6139dc604087016138f1565b906139f46139ee8860608101906138a6565b906138fe565b92612e10565b1561046e565b613a7c57613a20613a1a613a155f85016138f1565b6102b4565b916102b4565b11613a6057613a5990613a54600191613a4e6020613a47600e613a41613600565b90610e5a565b92016138f1565b90610e8c565b613768565b5f8061394d565b5f63172bd6a160e31b815280613a7860048201610508565b0390fd5b5f631050484960e01b815280613a9460048201610508565b0390fd5b5f63236dea5560e21b815280613ab060048201610508565b0390fd5b5f6304bc4ab760e31b815280613acc60048201610508565b0390fd5b50613b00613afb613aea600f613ae4613600565b90610e5a565b613af55f85016138f1565b90610e8c565b612517565b613b8a5780613b85613b55613b195f61394895016138f1565b613b23600c611b40565b613b2f602086016138f1565b613b37613600565b91613b4f613b498860408101906138a6565b906138fe565b93611619565b91613b80600191613b7a5f613b73600f613b6d613600565b90610e5a565b92016138f1565b90610e8c565b613768565b61393d565b5f636356e6ef60e11b815280613ba260048201610508565b0390fd5b5f90565b90565b613bc1613bbc613bc692613baa565b61092d565b6102b4565b90565b613bdd613bd8613be2926102b4565b611708565b6105d4565b90565b5f90565b919091613bf46124e9565b50613bfd613ba6565b50613c066119ea565b50613c1083611578565b613c23613c1d6041613bad565b916102b4565b145f14613c6a57613c639192613c376119ea565b50613c406119ea565b50613c49613be5565b506020810151606060408301519201515f1a909192613f5a565b9192909190565b50613c745f6116fc565b90613c88613c83600294611578565b613bc9565b91929190565b634e487b7160e01b5f52602160045260245ffd5b60041115613cac57565b613c8e565b90613cbb82613ca2565b565b613cc9613cce916115f3565b610e70565b90565b80613ce4613cde5f613cb1565b91613cb1565b145f14613cef575050565b80613d03613cfd6001613cb1565b91613cb1565b145f14613d26575f63f645eedf60e01b815280613d2260048201610508565b0390fd5b80613d3a613d346002613cb1565b91613cb1565b145f14613d6857613d64613d4d83613cbd565b5f91829163fce698f760e01b835260048301610965565b0390fd5b613d7b613d756003613cb1565b91613cb1565b14613d835750565b613d9e905f9182916335e2f38360e21b835260048301610f5d565b0390fd5b613dac600261160c565b613db782600261172b565b90613deb613de57f8be0079c531659141344cd1fd0a4f28419497f9722a3daafe3b4186f6b6457e093610e4e565b91610e4e565b91613df46102a2565b80613dfe81610508565b0390a3565b905f602091613e106119ee565b50613e196119ee565b50828151910182855af115613eac573d5f5190613e3e613e385f611a2c565b916102b4565b145f14613e925750613e4f81610aef565b3b613e62613e5c5f611a2c565b916102b4565b145b613e6b5750565b613e77613e8e91610aef565b5f918291635274afe760e01b8352600483016108ad565b0390fd5b613ea5613e9f6001613410565b916102b4565b1415613e64565b6040513d5f823e3d90fd5b613ec8613ec2612524565b1561046e565b613ece57565b5f638dfc202b60e01b815280613ee660048201610508565b0390fd5b90565b613f01613efc613f0692613eea565b61092d565b6102b4565b90565b60ff1690565b613f1890613f09565b9052565b613f51613f5894613f47606094989795613f3d608086019a5f870190610634565b6020850190613f0f565b6040830190610634565b0190610634565b565b939293613f656124e9565b50613f6e613ba6565b50613f776119ea565b50613f8185613cbd565b613fb3613fad7f7fffffffffffffffffffffffffffffff5d576e7357a4501ddfe92f46681b20a0613eed565b916102b4565b116140405790613fd6602094955f94939293613fcd6102a2565b94859485613f1c565b838052039060015afa1561403b57613fee5f51611708565b80614009614003613ffe5f6116fc565b6102e5565b916102e5565b1461401f575f916140195f61255a565b91929190565b506140295f6116fc565b6001916140355f61255a565b91929190565b611cae565b50505061404c5f6116fc565b906003929192919056fea2646970667358221220c1e81a1a25b93370fa2a877c123d5e1e3ab6ec6ae40a89388a379a377fb4521964736f6c634300081c0033","linkReferences":{}},"methodIdentifiers":{"MAX_FEE_BASIS_POINTS()":"4befe2ca","acceptOwnership()":"79ba5097","calculateFee(uint256)":"99a5d747","cancelOwnershipTransfer()":"23452b9c","cleanHandsCircuitId()":"d1a79008","cleanHandsNonces(address,uint256)":"f9148fa1","collectedFees()":"9003adfe","depositToAztecPrivate(uint256,bytes32,(uint256,uint256,bytes),(uint256,uint256,uint256,bytes))":"dcb1154d","depositToAztecPublic(bytes32,uint256,bytes32)":"284b5dc6","feeBasisPoints()":"b8606eef","feeRecipient()":"46904840","getCollectedFees()":"d54a8d18","getFeeRecipient()":"4ccb20c0","humanIdAttester()":"b0a00e15","inbox()":"fb0e722b","initialize(address,address,bytes32)":"6133f985","l2Bridge()":"ae1f6aaf","outbox()":"ce11e6ab","owner()":"8da5cb5b","passportNonces(address,uint256)":"ab3d25ac","passportSigner()":"eb50136f","pause()":"8456cb59","paused()":"5c975abb","pendingOwner()":"e30c3978","proposeOwnershipTransfer(address)":"21040fc3","registry()":"7b103999","renounceOwnership()":"715018a6","rescueToken(address,uint256)":"33f3d628","rollup()":"cb23bcb5","rollupVersion()":"b0893887","transferOwnership(address)":"f2fde38b","underlying()":"6f307dc3","unpause()":"3f4ba83a","updateAttestationConfig(address,uint256,address)":"202db826","updateFee(uint256)":"9012c4a8","updateFeeRecipient(address)":"f160d369","verifyCleanHandsSignature(uint256,uint256,uint256,address,bytes)":"1945e308","verifyPassportSignature(uint256,uint256,uint256,bytes)":"a491a4fc","withdraw(address,uint256,bool,uint256,uint256,bytes32[])":"3ba57310","withdrawFees()":"476343ee"},"id":70}